{
  "contractName": "Borrower",
  "abi": [
    {
      "inputs": [
        {
          "internalType": "string",
          "name": "_id",
          "type": "string"
        },
        {
          "internalType": "string",
          "name": "_account",
          "type": "string"
        },
        {
          "internalType": "string",
          "name": "_passwd",
          "type": "string"
        },
        {
          "internalType": "string",
          "name": "_name",
          "type": "string"
        }
      ],
      "stateMutability": "nonpayable",
      "type": "constructor"
    },
    {
      "inputs": [],
      "name": "id",
      "outputs": [
        {
          "internalType": "string",
          "name": "",
          "type": "string"
        }
      ],
      "stateMutability": "view",
      "type": "function"
    },
    {
      "inputs": [],
      "name": "valid",
      "outputs": [
        {
          "internalType": "bool",
          "name": "",
          "type": "bool"
        }
      ],
      "stateMutability": "view",
      "type": "function"
    },
    {
      "inputs": [
        {
          "internalType": "uint256",
          "name": "cashFlowID",
          "type": "uint256"
        }
      ],
      "name": "attachCashFlow",
      "outputs": [
        {
          "internalType": "bool",
          "name": "",
          "type": "bool"
        }
      ],
      "stateMutability": "nonpayable",
      "type": "function"
    },
    {
      "inputs": [
        {
          "internalType": "string",
          "name": "_passwd",
          "type": "string"
        }
      ],
      "name": "BorrowerLogin",
      "outputs": [
        {
          "internalType": "bool",
          "name": "",
          "type": "bool"
        }
      ],
      "stateMutability": "view",
      "type": "function"
    },
    {
      "inputs": [],
      "name": "getBorrowerInfo",
      "outputs": [
        {
          "internalType": "string",
          "name": "",
          "type": "string"
        },
        {
          "internalType": "string",
          "name": "",
          "type": "string"
        },
        {
          "internalType": "uint256",
          "name": "",
          "type": "uint256"
        },
        {
          "internalType": "uint256",
          "name": "",
          "type": "uint256"
        },
        {
          "internalType": "uint256[]",
          "name": "",
          "type": "uint256[]"
        }
      ],
      "stateMutability": "view",
      "type": "function"
    },
    {
      "inputs": [
        {
          "internalType": "string",
          "name": "id",
          "type": "string"
        },
        {
          "internalType": "uint256",
          "name": "Amount",
          "type": "uint256"
        }
      ],
      "name": "LoanApply",
      "outputs": [],
      "stateMutability": "nonpayable",
      "type": "function"
    },
    {
      "inputs": [],
      "name": "deleteBorrower",
      "outputs": [
        {
          "internalType": "bool",
          "name": "",
          "type": "bool"
        }
      ],
      "stateMutability": "nonpayable",
      "type": "function"
    }
  ],
  "bytecode": "0x608060405260646005556001600660006101000a81548160ff0219169083151502179055503480156200003157600080fd5b5060405162000f3c38038062000f3c833981810160405281019062000057919062000312565b83600090805190602001906200006f929190620000c5565b50826001908051906020019062000088929190620000c5565b508160029080519060200190620000a1929190620000c5565b508060039080519060200190620000ba929190620000c5565b505050505062000465565b828054620000d3906200042f565b90600052602060002090601f016020900481019282620000f7576000855562000143565b82601f106200011257805160ff191683800117855562000143565b8280016001018555821562000143579182015b828111156200014257825182559160200191906001019062000125565b5b50905062000152919062000156565b5090565b5b808211156200017157600081600090555060010162000157565b5090565b6000604051905090565b600080fd5b600080fd5b600080fd5b600080fd5b6000601f19601f8301169050919050565b7f4e487b7100000000000000000000000000000000000000000000000000000000600052604160045260246000fd5b620001de8262000193565b810181811067ffffffffffffffff821117156200020057620001ff620001a4565b5b80604052505050565b60006200021562000175565b9050620002238282620001d3565b919050565b600067ffffffffffffffff821115620002465762000245620001a4565b5b620002518262000193565b9050602081019050919050565b60005b838110156200027e57808201518184015260208101905062000261565b838111156200028e576000848401525b50505050565b6000620002ab620002a58462000228565b62000209565b905082815260208101848484011115620002ca57620002c96200018e565b5b620002d78482856200025e565b509392505050565b600082601f830112620002f757620002f662000189565b5b81516200030984826020860162000294565b91505092915050565b600080600080608085870312156200032f576200032e6200017f565b5b600085015167ffffffffffffffff81111562000350576200034f62000184565b5b6200035e87828801620002df565b945050602085015167ffffffffffffffff81111562000382576200038162000184565b5b6200039087828801620002df565b935050604085015167ffffffffffffffff811115620003b457620003b362000184565b5b620003c287828801620002df565b925050606085015167ffffffffffffffff811115620003e657620003e562000184565b5b620003f487828801620002df565b91505092959194509250565b7f4e487b7100000000000000000000000000000000000000000000000000000000600052602260045260246000fd5b600060028204905060018216806200044857607f821691505b602082108114156200045f576200045e62000400565b5b50919050565b610ac780620004756000396000f3fe608060405234801561001057600080fd5b506004361061007d5760003560e01c8063af640d0f1161005b578063af640d0f146100de578063b47feefa146100fc578063bb4397b91461012c578063c19912191461015c5761007d565b8063571347fb146100825780638103d623146100a4578063959cf485146100c0575b600080fd5b61008a61017a565b60405161009b9594939291906105ee565b60405180910390f35b6100be60048036038101906100b991906107cb565b610309565b005b6100c8610326565b6040516100d59190610842565b60405180910390f35b6100e661036f565b6040516100f3919061085d565b60405180910390f35b6101166004803603810190610111919061087f565b6103fd565b6040516101239190610842565b60405180910390f35b610146600480360381019061014191906108c8565b610437565b6040516101539190610842565b60405180910390f35b61016461046b565b6040516101719190610842565b60405180910390f35b606080600080606060016003600454600554600784805461019a90610924565b80601f01602080910402602001604051908101604052809291908181526020018280546101c690610924565b80156102135780601f106101e857610100808354040283529160200191610213565b820191906000526020600020905b8154815290600101906020018083116101f657829003601f168201915b5050505050945083805461022690610924565b80601f016020809104026020016040519081016040528092919081815260200182805461025290610924565b801561029f5780601f106102745761010080835404028352916020019161029f565b820191906000526020600020905b81548152906001019060200180831161028257829003601f168201915b50505050509350808054806020026020016040519081016040528092919081815260200182805480156102f157602002820191906000526020600020905b8154815260200190600101908083116102dd575b50505050509050945094509450945094509091929394565b806004600082825461031b9190610985565b925050819055505050565b600080600660006101000a81548160ff02191690831515021790555060001515600660009054906101000a900460ff1615151415610367576001905061036c565b600090505b90565b6000805461037c90610924565b80601f01602080910402602001604051908101604052809291908181526020018280546103a890610924565b80156103f55780601f106103ca576101008083540402835291602001916103f5565b820191906000526020600020905b8154815290600101906020018083116103d857829003601f168201915b505050505081565b6000818051906020012060026040516104169190610a7a565b6040518091039020141561042d5760019050610432565b600090505b919050565b6000600782908060018154018082558091505060019003906000526020600020016000909190919091505560019050919050565b600660009054906101000a900460ff1681565b600081519050919050565b600082825260208201905092915050565b60005b838110156104b857808201518184015260208101905061049d565b838111156104c7576000848401525b50505050565b6000601f19601f8301169050919050565b60006104e98261047e565b6104f38185610489565b935061050381856020860161049a565b61050c816104cd565b840191505092915050565b6000819050919050565b61052a81610517565b82525050565b600081519050919050565b600082825260208201905092915050565b6000819050602082019050919050565b61056581610517565b82525050565b6000610577838361055c565b60208301905092915050565b6000602082019050919050565b600061059b82610530565b6105a5818561053b565b93506105b08361054c565b8060005b838110156105e15781516105c8888261056b565b97506105d383610583565b9250506001810190506105b4565b5085935050505092915050565b600060a082019050818103600083015261060881886104de565b9050818103602083015261061c81876104de565b905061062b6040830186610521565b6106386060830185610521565b818103608083015261064a8184610590565b90509695505050505050565b6000604051905090565b600080fd5b600080fd5b600080fd5b600080fd5b7f4e487b7100000000000000000000000000000000000000000000000000000000600052604160045260246000fd5b6106ac826104cd565b810181811067ffffffffffffffff821117156106cb576106ca610674565b5b80604052505050565b60006106de610656565b90506106ea82826106a3565b919050565b600067ffffffffffffffff82111561070a57610709610674565b5b610713826104cd565b9050602081019050919050565b82818337600083830152505050565b600061074261073d846106ef565b6106d4565b90508281526020810184848401111561075e5761075d61066f565b5b610769848285610720565b509392505050565b600082601f8301126107865761078561066a565b5b813561079684826020860161072f565b91505092915050565b6107a881610517565b81146107b357600080fd5b50565b6000813590506107c58161079f565b92915050565b600080604083850312156107e2576107e1610660565b5b600083013567ffffffffffffffff811115610800576107ff610665565b5b61080c85828601610771565b925050602061081d858286016107b6565b9150509250929050565b60008115159050919050565b61083c81610827565b82525050565b60006020820190506108576000830184610833565b92915050565b6000602082019050818103600083015261087781846104de565b905092915050565b60006020828403121561089557610894610660565b5b600082013567ffffffffffffffff8111156108b3576108b2610665565b5b6108bf84828501610771565b91505092915050565b6000602082840312156108de576108dd610660565b5b60006108ec848285016107b6565b91505092915050565b7f4e487b7100000000000000000000000000000000000000000000000000000000600052602260045260246000fd5b6000600282049050600182168061093c57607f821691505b602082108114156109505761094f6108f5565b5b50919050565b7f4e487b7100000000000000000000000000000000000000000000000000000000600052601160045260246000fd5b600061099082610517565b915061099b83610517565b9250827fffffffffffffffffffffffffffffffffffffffffffffffffffffffffffffffff038211156109d0576109cf610956565b5b828201905092915050565b600081905092915050565b60008190508160005260206000209050919050565b60008154610a0881610924565b610a1281866109db565b94506001821660008114610a2d5760018114610a3e57610a71565b60ff19831686528186019350610a71565b610a47856109e6565b60005b83811015610a6957815481890152600182019150602081019050610a4a565b838801955050505b50505092915050565b6000610a8682846109fb565b91508190509291505056fea264697066735822122060b43ff6ab7bded7f23ab3d333a3d16adba3e142d573218887754a48ff340eb764736f6c634300080b0033",
  "immutableReferences": {},
  "source": "// SPDX-License-Identifier: SimPL-2.0\r\npragma solidity ^0.8.7;\r\n\r\ncontract Borrower {\r\n    string public id;\r\n    string account;\r\n    string passwd;\r\n    string name;\r\n    uint256 balance;\r\n    uint256 reputation = 100;\r\n    bool public valid = true;\r\n    uint256[] cashFlows;\r\n\r\n    constructor(\r\n        string memory _id,\r\n        string memory _account,\r\n        string memory _passwd,\r\n        string memory _name\r\n    ) public {\r\n        id = _id;\r\n        account=_account;\r\n        passwd = _passwd;\r\n        name = _name;\r\n    }\r\n\r\n    function attachCashFlow(uint256 cashFlowID) public returns (bool) {\r\n        cashFlows.push(cashFlowID);\r\n        return true;\r\n    }\r\n\r\n    function BorrowerLogin(string memory _passwd) public view returns (bool) {\r\n        if (keccak256(bytes(passwd)) == keccak256(bytes(_passwd))) return true;\r\n        else return false;\r\n    }\r\n\r\n    function getBorrowerInfo()\r\n        public\r\n        view\r\n        returns (\r\n            string memory,\r\n            string memory,\r\n            uint256,\r\n            uint256,\r\n            uint256[] memory\r\n        )\r\n    {\r\n        return (account, name, balance, reputation, cashFlows);\r\n    }\r\n\r\n    function LoanApply(string memory id, uint256 Amount) public {\r\n        // if(checkreputation)??\r\n        balance += Amount;\r\n    }\r\n\r\n    function deleteBorrower() public returns (bool) {\r\n        valid = false;\r\n        if (valid == false) return true;\r\n        else return false;\r\n    }\r\n}\r\n",
  "sourcePath": "/home/syj/Desktop/LoanSystem/contracts/Borrower.sol",
  "compiler": {
    "name": "solc",
    "version": "0.8.11+commit.d7f03943.Emscripten.clang"
  },
  "schemaVersion": "3.4.4",
  "updatedAt": "2022-04-14T03:50:50.928Z",
  "networkType": "ethereum",
  "devdoc": {
    "kind": "dev",
    "methods": {},
    "version": 1
  },
  "userdoc": {
    "kind": "user",
    "methods": {},
    "version": 1
  }
}