{
  "contractName": "Borrower",
  "abi": [
    {
      "inputs": [
        {
          "internalType": "address",
          "name": "_id",
          "type": "address"
        },
        {
          "internalType": "string",
          "name": "_account",
          "type": "string"
        },
        {
          "internalType": "string",
          "name": "_passwd",
          "type": "string"
        },
        {
          "internalType": "string",
          "name": "_name",
          "type": "string"
        }
      ],
      "stateMutability": "nonpayable",
      "type": "constructor"
    },
    {
      "inputs": [],
      "name": "id",
      "outputs": [
        {
          "internalType": "address",
          "name": "",
          "type": "address"
        }
      ],
      "stateMutability": "view",
      "type": "function"
    },
    {
      "inputs": [],
      "name": "valid",
      "outputs": [
        {
          "internalType": "bool",
          "name": "",
          "type": "bool"
        }
      ],
      "stateMutability": "view",
      "type": "function"
    },
    {
      "inputs": [
        {
          "internalType": "uint256",
          "name": "cashFlowID",
          "type": "uint256"
        }
      ],
      "name": "attachCashFlow",
      "outputs": [
        {
          "internalType": "bool",
          "name": "",
          "type": "bool"
        }
      ],
      "stateMutability": "nonpayable",
      "type": "function"
    },
    {
      "inputs": [
        {
          "internalType": "string",
          "name": "_passwd",
          "type": "string"
        }
      ],
      "name": "BorrowerLogin",
      "outputs": [
        {
          "internalType": "bool",
          "name": "",
          "type": "bool"
        }
      ],
      "stateMutability": "view",
      "type": "function"
    },
    {
      "inputs": [],
      "name": "getBorrowerInfo",
      "outputs": [
        {
          "internalType": "address",
          "name": "",
          "type": "address"
        },
        {
          "internalType": "string",
          "name": "",
          "type": "string"
        },
        {
          "internalType": "string",
          "name": "",
          "type": "string"
        },
        {
          "internalType": "uint256",
          "name": "",
          "type": "uint256"
        },
        {
          "internalType": "uint256",
          "name": "",
          "type": "uint256"
        },
        {
          "internalType": "uint256[]",
          "name": "",
          "type": "uint256[]"
        }
      ],
      "stateMutability": "view",
      "type": "function"
    },
    {
      "inputs": [
        {
          "internalType": "address",
          "name": "id",
          "type": "address"
        },
        {
          "internalType": "uint256",
          "name": "value",
          "type": "uint256"
        }
      ],
      "name": "LoanApply",
      "outputs": [],
      "stateMutability": "nonpayable",
      "type": "function"
    },
    {
      "inputs": [],
      "name": "deleteBorrower",
      "outputs": [
        {
          "internalType": "bool",
          "name": "",
          "type": "bool"
        }
      ],
      "stateMutability": "nonpayable",
      "type": "function"
    }
  ],
  "bytecode": "0x608060405260646005556001600660006101000a81548160ff0219169083151502179055503480156200003157600080fd5b5060405162000fba38038062000fba83398181016040528101906200005791906200039e565b836000806101000a81548173ffffffffffffffffffffffffffffffffffffffff021916908373ffffffffffffffffffffffffffffffffffffffff1602179055508260019080519060200190620000af929190620000ec565b508160029080519060200190620000c8929190620000ec565b508060039080519060200190620000e1929190620000ec565b5050505050620004d1565b828054620000fa906200049c565b90600052602060002090601f0160209004810192826200011e57600085556200016a565b82601f106200013957805160ff19168380011785556200016a565b828001600101855582156200016a579182015b82811115620001695782518255916020019190600101906200014c565b5b5090506200017991906200017d565b5090565b5b80821115620001985760008160009055506001016200017e565b5090565b6000604051905090565b600080fd5b600080fd5b600073ffffffffffffffffffffffffffffffffffffffff82169050919050565b6000620001dd82620001b0565b9050919050565b620001ef81620001d0565b8114620001fb57600080fd5b50565b6000815190506200020f81620001e4565b92915050565b600080fd5b600080fd5b6000601f19601f8301169050919050565b7f4e487b7100000000000000000000000000000000000000000000000000000000600052604160045260246000fd5b6200026a826200021f565b810181811067ffffffffffffffff821117156200028c576200028b62000230565b5b80604052505050565b6000620002a16200019c565b9050620002af82826200025f565b919050565b600067ffffffffffffffff821115620002d257620002d162000230565b5b620002dd826200021f565b9050602081019050919050565b60005b838110156200030a578082015181840152602081019050620002ed565b838111156200031a576000848401525b50505050565b6000620003376200033184620002b4565b62000295565b9050828152602081018484840111156200035657620003556200021a565b5b62000363848285620002ea565b509392505050565b600082601f83011262000383576200038262000215565b5b81516200039584826020860162000320565b91505092915050565b60008060008060808587031215620003bb57620003ba620001a6565b5b6000620003cb87828801620001fe565b945050602085015167ffffffffffffffff811115620003ef57620003ee620001ab565b5b620003fd878288016200036b565b935050604085015167ffffffffffffffff811115620004215762000420620001ab565b5b6200042f878288016200036b565b925050606085015167ffffffffffffffff811115620004535762000452620001ab565b5b62000461878288016200036b565b91505092959194509250565b7f4e487b7100000000000000000000000000000000000000000000000000000000600052602260045260246000fd5b60006002820490506001821680620004b557607f821691505b602082108103620004cb57620004ca6200046d565b5b50919050565b610ad980620004e16000396000f3fe608060405234801561001057600080fd5b506004361061007d5760003560e01c8063b47feefa1161005b578063b47feefa146100e1578063ba5a50c814610111578063bb4397b91461012d578063c19912191461015d5761007d565b8063571347fb14610082578063959cf485146100a5578063af640d0f146100c3575b600080fd5b61008a61017b565b60405161009c969594939291906105ea565b60405180910390f35b6100ad610330565b6040516100ba919061067b565b60405180910390f35b6100cb610378565b6040516100d89190610696565b60405180910390f35b6100fb60048036038101906100f691906107fa565b61039c565b604051610108919061067b565b60405180910390f35b61012b6004803603810190610126919061089b565b6103d5565b005b610147600480360381019061014291906108db565b6103f2565b604051610154919061067b565b60405180910390f35b610165610426565b604051610172919061067b565b60405180910390f35b6000606080600080606060008054906101000a900473ffffffffffffffffffffffffffffffffffffffff166001600360045460055460078480546101be90610937565b80601f01602080910402602001604051908101604052809291908181526020018280546101ea90610937565b80156102375780601f1061020c57610100808354040283529160200191610237565b820191906000526020600020905b81548152906001019060200180831161021a57829003601f168201915b5050505050945083805461024a90610937565b80601f016020809104026020016040519081016040528092919081815260200182805461027690610937565b80156102c35780601f10610298576101008083540402835291602001916102c3565b820191906000526020600020905b8154815290600101906020018083116102a657829003601f168201915b505050505093508080548060200260200160405190810160405280929190818152602001828054801561031557602002820191906000526020600020905b815481526020019060010190808311610301575b50505050509050955095509550955095509550909192939495565b600080600660006101000a81548160ff02191690831515021790555060001515600660009054906101000a900460ff161515036103705760019050610375565b600090505b90565b60008054906101000a900473ffffffffffffffffffffffffffffffffffffffff1681565b6000818051906020012060026040516103b59190610a07565b6040518091039020036103cb57600190506103d0565b600090505b919050565b80600460008282546103e79190610a4d565b925050819055505050565b6000600782908060018154018082558091505060019003906000526020600020016000909190919091505560019050919050565b600660009054906101000a900460ff1681565b600073ffffffffffffffffffffffffffffffffffffffff82169050919050565b600061046482610439565b9050919050565b61047481610459565b82525050565b600081519050919050565b600082825260208201905092915050565b60005b838110156104b4578082015181840152602081019050610499565b838111156104c3576000848401525b50505050565b6000601f19601f8301169050919050565b60006104e58261047a565b6104ef8185610485565b93506104ff818560208601610496565b610508816104c9565b840191505092915050565b6000819050919050565b61052681610513565b82525050565b600081519050919050565b600082825260208201905092915050565b6000819050602082019050919050565b61056181610513565b82525050565b60006105738383610558565b60208301905092915050565b6000602082019050919050565b60006105978261052c565b6105a18185610537565b93506105ac83610548565b8060005b838110156105dd5781516105c48882610567565b97506105cf8361057f565b9250506001810190506105b0565b5085935050505092915050565b600060c0820190506105ff600083018961046b565b818103602083015261061181886104da565b9050818103604083015261062581876104da565b9050610634606083018661051d565b610641608083018561051d565b81810360a0830152610653818461058c565b9050979650505050505050565b60008115159050919050565b61067581610660565b82525050565b6000602082019050610690600083018461066c565b92915050565b60006020820190506106ab600083018461046b565b92915050565b6000604051905090565b600080fd5b600080fd5b600080fd5b600080fd5b7f4e487b7100000000000000000000000000000000000000000000000000000000600052604160045260246000fd5b610707826104c9565b810181811067ffffffffffffffff82111715610726576107256106cf565b5b80604052505050565b60006107396106b1565b905061074582826106fe565b919050565b600067ffffffffffffffff821115610765576107646106cf565b5b61076e826104c9565b9050602081019050919050565b82818337600083830152505050565b600061079d6107988461074a565b61072f565b9050828152602081018484840111156107b9576107b86106ca565b5b6107c484828561077b565b509392505050565b600082601f8301126107e1576107e06106c5565b5b81356107f184826020860161078a565b91505092915050565b6000602082840312156108105761080f6106bb565b5b600082013567ffffffffffffffff81111561082e5761082d6106c0565b5b61083a848285016107cc565b91505092915050565b61084c81610459565b811461085757600080fd5b50565b60008135905061086981610843565b92915050565b61087881610513565b811461088357600080fd5b50565b6000813590506108958161086f565b92915050565b600080604083850312156108b2576108b16106bb565b5b60006108c08582860161085a565b92505060206108d185828601610886565b9150509250929050565b6000602082840312156108f1576108f06106bb565b5b60006108ff84828501610886565b91505092915050565b7f4e487b7100000000000000000000000000000000000000000000000000000000600052602260045260246000fd5b6000600282049050600182168061094f57607f821691505b60208210810361096257610961610908565b5b50919050565b600081905092915050565b60008190508160005260206000209050919050565b6000815461099581610937565b61099f8186610968565b945060018216600081146109ba57600181146109cb576109fe565b60ff198316865281860193506109fe565b6109d485610973565b60005b838110156109f6578154818901526001820191506020810190506109d7565b838801955050505b50505092915050565b6000610a138284610988565b915081905092915050565b7f4e487b7100000000000000000000000000000000000000000000000000000000600052601160045260246000fd5b6000610a5882610513565b9150610a6383610513565b9250827fffffffffffffffffffffffffffffffffffffffffffffffffffffffffffffffff03821115610a9857610a97610a1e565b5b82820190509291505056fea26469706673582212208894e829b209998d10ad10ffbcd795a4f5f469e69fa35ee499620be5c906c19a64736f6c634300080d0033",
  "immutableReferences": {},
  "source": "contract Borrower {\r\n    address public id;\r\n    string account;\r\n    string passwd;\r\n    string name;\r\n    uint256 balance;\r\n    uint256 reputation = 100;\r\n    bool public valid = true;\r\n    uint256[] cashFlows;\r\n\r\n    constructor(\r\n        address _id,\r\n        string memory _account,\r\n        string memory _passwd,\r\n        string memory _name\r\n    ) public {\r\n        id = _id;\r\n        account = _account;\r\n        passwd = _passwd;\r\n        name = _name;\r\n    }\r\n\r\n    function attachCashFlow(uint256 cashFlowID) public returns (bool) {\r\n        cashFlows.push(cashFlowID);\r\n        return true;\r\n    }\r\n\r\n    function BorrowerLogin(string memory _passwd) public view returns (bool) {\r\n        if (keccak256(bytes(passwd)) == keccak256(bytes(_passwd))) return true;\r\n        else return false;\r\n    }\r\n\r\n    function getBorrowerInfo()\r\n        public\r\n        view\r\n        returns (\r\n            address,\r\n            string memory,\r\n            string memory,\r\n            uint256,\r\n            uint256,\r\n            uint256[] memory\r\n        )\r\n    {\r\n        return (id, account, name, balance, reputation, cashFlows);\r\n    }\r\n\r\n    function LoanApply(address id, uint256 value) public {\r\n        // if(checkreputation)??\r\n        balance += value;\r\n    }\r\n\r\n    function deleteBorrower() public returns (bool) {\r\n        valid = false;\r\n        if (valid == false) return true;\r\n        else return false;\r\n    }\r\n}\r\n",
  "sourcePath": "/home/syj/Desktop/LoanSystem/contracts/Borrower.sol",
  "compiler": {
    "name": "solc",
    "version": "0.8.13+commit.abaa5c0e.Emscripten.clang"
  },
  "schemaVersion": "3.4.4",
  "updatedAt": "2022-04-25T08:14:58.175Z",
  "devdoc": {
    "kind": "dev",
    "methods": {},
    "version": 1
  },
  "userdoc": {
    "kind": "user",
    "methods": {},
    "version": 1
  }
}