{
  "contractName": "CashFlow",
  "abi": [
    {
      "inputs": [
        {
          "internalType": "uint256",
          "name": "_id",
          "type": "uint256"
        },
        {
          "internalType": "uint256",
          "name": "cashNum",
          "type": "uint256"
        }
      ],
      "stateMutability": "nonpayable",
      "type": "constructor"
    },
    {
      "inputs": [],
      "name": "currBalance",
      "outputs": [
        {
          "internalType": "uint256",
          "name": "",
          "type": "uint256"
        }
      ],
      "stateMutability": "view",
      "type": "function"
    },
    {
      "inputs": [],
      "name": "id",
      "outputs": [
        {
          "internalType": "uint256",
          "name": "",
          "type": "uint256"
        }
      ],
      "stateMutability": "view",
      "type": "function"
    },
    {
      "inputs": [
        {
          "internalType": "uint256",
          "name": "cashNum",
          "type": "uint256"
        }
      ],
      "name": "withdraw",
      "outputs": [
        {
          "internalType": "bool",
          "name": "",
          "type": "bool"
        }
      ],
      "stateMutability": "nonpayable",
      "type": "function"
    },
    {
      "inputs": [
        {
          "internalType": "uint256",
          "name": "transactionID",
          "type": "uint256"
        }
      ],
      "name": "attachTransaction",
      "outputs": [
        {
          "internalType": "bool",
          "name": "",
          "type": "bool"
        }
      ],
      "stateMutability": "nonpayable",
      "type": "function"
    },
    {
      "inputs": [],
      "name": "checkCashFlow",
      "outputs": [
        {
          "internalType": "uint256",
          "name": "",
          "type": "uint256"
        },
        {
          "internalType": "uint256",
          "name": "",
          "type": "uint256"
        },
        {
          "internalType": "uint256[]",
          "name": "",
          "type": "uint256[]"
        }
      ],
      "stateMutability": "view",
      "type": "function"
    }
  ],
  "bytecode": "0x608060405234801561001057600080fd5b5060405161052e38038061052e83398181016040528101906100329190610089565b81600081905550806001819055508060028190555050506100c9565b600080fd5b6000819050919050565b61006681610053565b811461007157600080fd5b50565b6000815190506100838161005d565b92915050565b600080604083850312156100a05761009f61004e565b5b60006100ae85828601610074565b92505060206100bf85828601610074565b9150509250929050565b610456806100d86000396000f3fe608060405234801561001057600080fd5b50600436106100575760003560e01c80631dfe52db1461005c5780632e1a7d4d1461007a5780637d839d2f146100aa5780637ec49395146100da578063af640d0f146100fa575b600080fd5b610064610118565b6040516100719190610212565b60405180910390f35b610094600480360381019061008f919061025e565b61011e565b6040516100a191906102a6565b60405180910390f35b6100c460048036038101906100bf919061025e565b610155565b6040516100d191906102a6565b60405180910390f35b6100e2610189565b6040516100f19392919061037f565b60405180910390f35b6101026101f3565b60405161010f9190610212565b60405180910390f35b60025481565b6000816002541061014b57816002600082825461013b91906103ec565b9250508190555060019050610150565b600090505b919050565b6000600382908060018154018082558091505060019003906000526020600020016000909190919091505560019050919050565b60008060606001546002546003808054806020026020016040519081016040528092919081815260200182805480156101e157602002820191906000526020600020905b8154815260200190600101908083116101cd575b50505050509050925092509250909192565b60005481565b6000819050919050565b61020c816101f9565b82525050565b60006020820190506102276000830184610203565b92915050565b600080fd5b61023b816101f9565b811461024657600080fd5b50565b60008135905061025881610232565b92915050565b6000602082840312156102745761027361022d565b5b600061028284828501610249565b91505092915050565b60008115159050919050565b6102a08161028b565b82525050565b60006020820190506102bb6000830184610297565b92915050565b600081519050919050565b600082825260208201905092915050565b6000819050602082019050919050565b6102f6816101f9565b82525050565b600061030883836102ed565b60208301905092915050565b6000602082019050919050565b600061032c826102c1565b61033681856102cc565b9350610341836102dd565b8060005b8381101561037257815161035988826102fc565b975061036483610314565b925050600181019050610345565b5085935050505092915050565b60006060820190506103946000830186610203565b6103a16020830185610203565b81810360408301526103b38184610321565b9050949350505050565b7f4e487b7100000000000000000000000000000000000000000000000000000000600052601160045260246000fd5b60006103f7826101f9565b9150610402836101f9565b925082821015610415576104146103bd565b5b82820390509291505056fea26469706673582212204029576e55f371ad72caf950638ea355041d71070bf8acdffed29f4a9a0f103164736f6c634300080b0033",
  "immutableReferences": {},
  "source": "contract CashFlow {\r\n    uint256 public id;\r\n    uint256 initBalance;\r\n    uint256 public currBalance;\r\n    uint256[] Transactions;\r\n\r\n    constructor(uint256 _id, uint256 cashNum) {\r\n        id = _id;\r\n        initBalance = cashNum;\r\n        currBalance = cashNum;\r\n    }\r\n\r\n    function withdraw(uint256 cashNum) public returns (bool) {\r\n        if (currBalance >= cashNum) {\r\n            currBalance -= cashNum;\r\n            return true;\r\n        } else return false;\r\n    }\r\n\r\n    function attachTransaction(uint256 transactionID) public returns (bool) {\r\n        Transactions.push(transactionID);\r\n        return true;\r\n    }\r\n\r\n    function checkCashFlow()\r\n        public\r\n        view\r\n        returns (\r\n            uint256,\r\n            uint256,\r\n            uint256[] memory\r\n        )\r\n    {\r\n        return (initBalance, currBalance, Transactions);\r\n    }\r\n}\r\n",
  "sourcePath": "/home/syj/Desktop/LoanSystem/contracts/CashFlow.sol",
  "compiler": {
    "name": "solc",
    "version": "0.8.11+commit.d7f03943.Emscripten.clang"
  },
  "schemaVersion": "3.4.4",
  "updatedAt": "2022-04-14T03:50:50.944Z",
  "networkType": "ethereum",
  "devdoc": {
    "kind": "dev",
    "methods": {},
    "version": 1
  },
  "userdoc": {
    "kind": "user",
    "methods": {},
    "version": 1
  }
}