{
  "contractName": "Lender",
  "abi": [
    {
      "inputs": [
        {
          "internalType": "address",
          "name": "_id",
          "type": "address"
        },
        {
          "internalType": "string",
          "name": "_account",
          "type": "string"
        },
        {
          "internalType": "string",
          "name": "_passwd",
          "type": "string"
        },
        {
          "internalType": "string",
          "name": "_name",
          "type": "string"
        }
      ],
      "stateMutability": "nonpayable",
      "type": "constructor"
    },
    {
      "inputs": [],
      "name": "id",
      "outputs": [
        {
          "internalType": "address",
          "name": "",
          "type": "address"
        }
      ],
      "stateMutability": "view",
      "type": "function"
    },
    {
      "inputs": [],
      "name": "valid",
      "outputs": [
        {
          "internalType": "bool",
          "name": "",
          "type": "bool"
        }
      ],
      "stateMutability": "view",
      "type": "function"
    },
    {
      "inputs": [
        {
          "internalType": "uint256",
          "name": "cashFlowID",
          "type": "uint256"
        }
      ],
      "name": "attachCashFlow",
      "outputs": [
        {
          "internalType": "bool",
          "name": "",
          "type": "bool"
        }
      ],
      "stateMutability": "nonpayable",
      "type": "function"
    },
    {
      "inputs": [
        {
          "internalType": "string",
          "name": "_passwd",
          "type": "string"
        }
      ],
      "name": "LenderLogin",
      "outputs": [
        {
          "internalType": "bool",
          "name": "",
          "type": "bool"
        }
      ],
      "stateMutability": "view",
      "type": "function"
    },
    {
      "inputs": [],
      "name": "getLenderInfo",
      "outputs": [
        {
          "internalType": "address",
          "name": "",
          "type": "address"
        },
        {
          "internalType": "string",
          "name": "",
          "type": "string"
        },
        {
          "internalType": "string",
          "name": "",
          "type": "string"
        },
        {
          "internalType": "uint256[]",
          "name": "",
          "type": "uint256[]"
        }
      ],
      "stateMutability": "view",
      "type": "function"
    },
    {
      "inputs": [
        {
          "internalType": "address",
          "name": "id",
          "type": "address"
        },
        {
          "internalType": "uint256",
          "name": "value",
          "type": "uint256"
        }
      ],
      "name": "LoanResponse",
      "outputs": [],
      "stateMutability": "payable",
      "type": "function"
    },
    {
      "inputs": [],
      "name": "deleteLender",
      "outputs": [
        {
          "internalType": "bool",
          "name": "",
          "type": "bool"
        }
      ],
      "stateMutability": "nonpayable",
      "type": "function"
    }
  ],
  "bytecode": "0x60806040526001600460006101000a81548160ff0219169083151502179055503480156200002c57600080fd5b5060405162000f6338038062000f63833981810160405281019062000052919062000399565b836000806101000a81548173ffffffffffffffffffffffffffffffffffffffff021916908373ffffffffffffffffffffffffffffffffffffffff1602179055508260019080519060200190620000aa929190620000e7565b508160029080519060200190620000c3929190620000e7565b508060039080519060200190620000dc929190620000e7565b5050505050620004cc565b828054620000f59062000497565b90600052602060002090601f01602090048101928262000119576000855562000165565b82601f106200013457805160ff191683800117855562000165565b8280016001018555821562000165579182015b828111156200016457825182559160200191906001019062000147565b5b50905062000174919062000178565b5090565b5b808211156200019357600081600090555060010162000179565b5090565b6000604051905090565b600080fd5b600080fd5b600073ffffffffffffffffffffffffffffffffffffffff82169050919050565b6000620001d882620001ab565b9050919050565b620001ea81620001cb565b8114620001f657600080fd5b50565b6000815190506200020a81620001df565b92915050565b600080fd5b600080fd5b6000601f19601f8301169050919050565b7f4e487b7100000000000000000000000000000000000000000000000000000000600052604160045260246000fd5b62000265826200021a565b810181811067ffffffffffffffff821117156200028757620002866200022b565b5b80604052505050565b60006200029c62000197565b9050620002aa82826200025a565b919050565b600067ffffffffffffffff821115620002cd57620002cc6200022b565b5b620002d8826200021a565b9050602081019050919050565b60005b8381101562000305578082015181840152602081019050620002e8565b8381111562000315576000848401525b50505050565b6000620003326200032c84620002af565b62000290565b90508281526020810184848401111562000351576200035062000215565b5b6200035e848285620002e5565b509392505050565b600082601f8301126200037e576200037d62000210565b5b8151620003908482602086016200031b565b91505092915050565b60008060008060808587031215620003b657620003b5620001a1565b5b6000620003c687828801620001f9565b945050602085015167ffffffffffffffff811115620003ea57620003e9620001a6565b5b620003f88782880162000366565b935050604085015167ffffffffffffffff8111156200041c576200041b620001a6565b5b6200042a8782880162000366565b925050606085015167ffffffffffffffff8111156200044e576200044d620001a6565b5b6200045c8782880162000366565b91505092959194509250565b7f4e487b7100000000000000000000000000000000000000000000000000000000600052602260045260246000fd5b60006002820490506001821680620004b057607f821691505b602082108103620004c657620004c562000468565b5b50919050565b610a8780620004dc6000396000f3fe6080604052600436106100705760003560e01c8063af640d0f1161004e578063af640d0f146100fc578063bb4397b914610127578063bb70bdaa14610164578063c19912191461018f57610070565b806333433131146100755780633be16efa1461009157806377c4d9dd146100ce575b600080fd5b61008f600480360381019061008a919061053f565b6101ba565b005b34801561009d57600080fd5b506100b860048036038101906100b391906106c5565b610205565b6040516100c59190610729565b60405180910390f35b3480156100da57600080fd5b506100e361023e565b6040516100f39493929190610899565b60405180910390f35b34801561010857600080fd5b506101116103e4565b60405161011e91906108f3565b60405180910390f35b34801561013357600080fd5b5061014e6004803603810190610149919061090e565b610408565b60405161015b9190610729565b60405180910390f35b34801561017057600080fd5b5061017961043c565b6040516101869190610729565b60405180910390f35b34801561019b57600080fd5b506101a4610484565b6040516101b19190610729565b60405180910390f35b8173ffffffffffffffffffffffffffffffffffffffff166108fc829081150290604051600060405180830381858888f19350505050158015610200573d6000803e3d6000fd5b505050565b60008180519060200120600260405161021e9190610a3a565b6040518091039020036102345760019050610239565b600090505b919050565b6000606080606060008054906101000a900473ffffffffffffffffffffffffffffffffffffffff166001600360058280546102789061096a565b80601f01602080910402602001604051908101604052809291908181526020018280546102a49061096a565b80156102f15780601f106102c6576101008083540402835291602001916102f1565b820191906000526020600020905b8154815290600101906020018083116102d457829003601f168201915b505050505092508180546103049061096a565b80601f01602080910402602001604051908101604052809291908181526020018280546103309061096a565b801561037d5780601f106103525761010080835404028352916020019161037d565b820191906000526020600020905b81548152906001019060200180831161036057829003601f168201915b50505050509150808054806020026020016040519081016040528092919081815260200182805480156103cf57602002820191906000526020600020905b8154815260200190600101908083116103bb575b50505050509050935093509350935090919293565b60008054906101000a900473ffffffffffffffffffffffffffffffffffffffff1681565b6000600582908060018154018082558091505060019003906000526020600020016000909190919091505560019050919050565b600080600460006101000a81548160ff02191690831515021790555060001515600460009054906101000a900460ff1615150361047c5760019050610481565b600090505b90565b600460009054906101000a900460ff1681565b6000604051905090565b600080fd5b600080fd5b600073ffffffffffffffffffffffffffffffffffffffff82169050919050565b60006104d6826104ab565b9050919050565b6104e6816104cb565b81146104f157600080fd5b50565b600081359050610503816104dd565b92915050565b6000819050919050565b61051c81610509565b811461052757600080fd5b50565b60008135905061053981610513565b92915050565b60008060408385031215610556576105556104a1565b5b6000610564858286016104f4565b92505060206105758582860161052a565b9150509250929050565b600080fd5b600080fd5b6000601f19601f8301169050919050565b7f4e487b7100000000000000000000000000000000000000000000000000000000600052604160045260246000fd5b6105d282610589565b810181811067ffffffffffffffff821117156105f1576105f061059a565b5b80604052505050565b6000610604610497565b905061061082826105c9565b919050565b600067ffffffffffffffff8211156106305761062f61059a565b5b61063982610589565b9050602081019050919050565b82818337600083830152505050565b600061066861066384610615565b6105fa565b90508281526020810184848401111561068457610683610584565b5b61068f848285610646565b509392505050565b600082601f8301126106ac576106ab61057f565b5b81356106bc848260208601610655565b91505092915050565b6000602082840312156106db576106da6104a1565b5b600082013567ffffffffffffffff8111156106f9576106f86104a6565b5b61070584828501610697565b91505092915050565b60008115159050919050565b6107238161070e565b82525050565b600060208201905061073e600083018461071a565b92915050565b61074d816104cb565b82525050565b600081519050919050565b600082825260208201905092915050565b60005b8381101561078d578082015181840152602081019050610772565b8381111561079c576000848401525b50505050565b60006107ad82610753565b6107b7818561075e565b93506107c781856020860161076f565b6107d081610589565b840191505092915050565b600081519050919050565b600082825260208201905092915050565b6000819050602082019050919050565b61081081610509565b82525050565b60006108228383610807565b60208301905092915050565b6000602082019050919050565b6000610846826107db565b61085081856107e6565b935061085b836107f7565b8060005b8381101561088c5781516108738882610816565b975061087e8361082e565b92505060018101905061085f565b5085935050505092915050565b60006080820190506108ae6000830187610744565b81810360208301526108c081866107a2565b905081810360408301526108d481856107a2565b905081810360608301526108e8818461083b565b905095945050505050565b60006020820190506109086000830184610744565b92915050565b600060208284031215610924576109236104a1565b5b60006109328482850161052a565b91505092915050565b7f4e487b7100000000000000000000000000000000000000000000000000000000600052602260045260246000fd5b6000600282049050600182168061098257607f821691505b6020821081036109955761099461093b565b5b50919050565b600081905092915050565b60008190508160005260206000209050919050565b600081546109c88161096a565b6109d2818661099b565b945060018216600081146109ed57600181146109fe57610a31565b60ff19831686528186019350610a31565b610a07856109a6565b60005b83811015610a2957815481890152600182019150602081019050610a0a565b838801955050505b50505092915050565b6000610a4682846109bb565b91508190509291505056fea264697066735822122053cc510bf28062987a40d1d846653bdca9eca9119ffc03f064f828e84d9aee0264736f6c634300080d0033",
  "immutableReferences": {},
  "source": "contract Lender {\r\n    //\r\n    address public id;\r\n    string account;\r\n    string passwd;\r\n    string name;\r\n    bool public valid = true;\r\n    uint256[] cashFlows;\r\n\r\n    constructor(\r\n        address _id,\r\n        string memory _account,\r\n        string memory _passwd,\r\n        string memory _name\r\n    ) public {\r\n        id = _id;\r\n        account = _account;\r\n        passwd = _passwd;\r\n        name = _name;\r\n    }\r\n\r\n    function attachCashFlow(uint256 cashFlowID) public returns (bool) {\r\n        cashFlows.push(cashFlowID);\r\n        return true;\r\n    }\r\n\r\n    function LenderLogin(string memory _passwd) public view returns (bool) {\r\n        if (keccak256(bytes(passwd)) == keccak256(bytes(_passwd))) return true;\r\n        else return false;\r\n    }\r\n\r\n    function getLenderInfo()\r\n        public\r\n        view\r\n        returns (\r\n            address,\r\n            string memory,\r\n            string memory,\r\n            uint256[] memory\r\n        )\r\n    {\r\n        return (id, account, name, cashFlows);\r\n    }\r\n\r\n    function LoanResponse(address id, uint256 value) public payable {\r\n        // if(checkreputation)??\r\n        payable(address(id)).transfer(value);\r\n    }\r\n\r\n    function deleteLender() public returns (bool) {\r\n        valid = false;\r\n        if (valid == false) return true;\r\n        else return false;\r\n    }\r\n}\r\n",
  "sourcePath": "/home/syj/Desktop/LoanSystem/contracts/Lender.sol",
  "compiler": {
    "name": "solc",
    "version": "0.8.13+commit.abaa5c0e.Emscripten.clang"
  },
  "schemaVersion": "3.4.4",
  "updatedAt": "2022-04-16T03:34:36.648Z",
  "networkType": "ethereum",
  "devdoc": {
    "kind": "dev",
    "methods": {},
    "version": 1
  },
  "userdoc": {
    "kind": "user",
    "methods": {},
    "version": 1
  }
}