{
  "contractName": "Lender",
  "abi": [
    {
      "inputs": [
        {
          "internalType": "string",
          "name": "_id",
          "type": "string"
        },
        {
          "internalType": "string",
          "name": "_account",
          "type": "string"
        },
        {
          "internalType": "string",
          "name": "_passwd",
          "type": "string"
        },
        {
          "internalType": "string",
          "name": "_name",
          "type": "string"
        }
      ],
      "stateMutability": "nonpayable",
      "type": "constructor"
    },
    {
      "inputs": [],
      "name": "id",
      "outputs": [
        {
          "internalType": "string",
          "name": "",
          "type": "string"
        }
      ],
      "stateMutability": "view",
      "type": "function"
    },
    {
      "inputs": [],
      "name": "valid",
      "outputs": [
        {
          "internalType": "bool",
          "name": "",
          "type": "bool"
        }
      ],
      "stateMutability": "view",
      "type": "function"
    },
    {
      "inputs": [
        {
          "internalType": "uint256",
          "name": "cashFlowID",
          "type": "uint256"
        }
      ],
      "name": "attachCashFlow",
      "outputs": [
        {
          "internalType": "bool",
          "name": "",
          "type": "bool"
        }
      ],
      "stateMutability": "nonpayable",
      "type": "function"
    },
    {
      "inputs": [
        {
          "internalType": "string",
          "name": "_passwd",
          "type": "string"
        }
      ],
      "name": "LenderLogin",
      "outputs": [
        {
          "internalType": "bool",
          "name": "",
          "type": "bool"
        }
      ],
      "stateMutability": "view",
      "type": "function"
    },
    {
      "inputs": [],
      "name": "getLenderInfo",
      "outputs": [
        {
          "internalType": "string",
          "name": "",
          "type": "string"
        },
        {
          "internalType": "string",
          "name": "",
          "type": "string"
        },
        {
          "internalType": "string",
          "name": "",
          "type": "string"
        },
        {
          "internalType": "uint256[]",
          "name": "",
          "type": "uint256[]"
        }
      ],
      "stateMutability": "view",
      "type": "function"
    },
    {
      "inputs": [],
      "name": "deleteLender",
      "outputs": [
        {
          "internalType": "bool",
          "name": "",
          "type": "bool"
        }
      ],
      "stateMutability": "nonpayable",
      "type": "function"
    }
  ],
  "bytecode": "0x60806040526001600460006101000a81548160ff0219169083151502179055503480156200002c57600080fd5b5060405162000e6e38038062000e6e83398181016040528101906200005291906200030d565b83600090805190602001906200006a929190620000c0565b50826001908051906020019062000083929190620000c0565b5081600290805190602001906200009c929190620000c0565b508060039080519060200190620000b5929190620000c0565b505050505062000460565b828054620000ce906200042a565b90600052602060002090601f016020900481019282620000f257600085556200013e565b82601f106200010d57805160ff19168380011785556200013e565b828001600101855582156200013e579182015b828111156200013d57825182559160200191906001019062000120565b5b5090506200014d919062000151565b5090565b5b808211156200016c57600081600090555060010162000152565b5090565b6000604051905090565b600080fd5b600080fd5b600080fd5b600080fd5b6000601f19601f8301169050919050565b7f4e487b7100000000000000000000000000000000000000000000000000000000600052604160045260246000fd5b620001d9826200018e565b810181811067ffffffffffffffff82111715620001fb57620001fa6200019f565b5b80604052505050565b60006200021062000170565b90506200021e8282620001ce565b919050565b600067ffffffffffffffff8211156200024157620002406200019f565b5b6200024c826200018e565b9050602081019050919050565b60005b83811015620002795780820151818401526020810190506200025c565b8381111562000289576000848401525b50505050565b6000620002a6620002a08462000223565b62000204565b905082815260208101848484011115620002c557620002c462000189565b5b620002d284828562000259565b509392505050565b600082601f830112620002f257620002f162000184565b5b8151620003048482602086016200028f565b91505092915050565b600080600080608085870312156200032a57620003296200017a565b5b600085015167ffffffffffffffff8111156200034b576200034a6200017f565b5b6200035987828801620002da565b945050602085015167ffffffffffffffff8111156200037d576200037c6200017f565b5b6200038b87828801620002da565b935050604085015167ffffffffffffffff811115620003af57620003ae6200017f565b5b620003bd87828801620002da565b925050606085015167ffffffffffffffff811115620003e157620003e06200017f565b5b620003ef87828801620002da565b91505092959194509250565b7f4e487b7100000000000000000000000000000000000000000000000000000000600052602260045260246000fd5b600060028204905060018216806200044357607f821691505b602082108114156200045a5762000459620003fb565b5b50919050565b6109fe80620004706000396000f3fe608060405234801561001057600080fd5b50600436106100625760003560e01c80633be16efa1461006757806377c4d9dd14610097578063af640d0f146100b8578063bb4397b9146100d6578063bb70bdaa14610106578063c199121914610124575b600080fd5b610081600480360381019061007c9190610606565b610142565b60405161008e919061066a565b60405180910390f35b61009f61017c565b6040516100af94939291906107d5565b60405180910390f35b6100c061038e565b6040516100cd9190610836565b60405180910390f35b6100f060048036038101906100eb9190610884565b61041c565b6040516100fd919061066a565b60405180910390f35b61010e610450565b60405161011b919061066a565b60405180910390f35b61012c610499565b604051610139919061066a565b60405180910390f35b60008180519060200120600260405161015b91906109b1565b604051809103902014156101725760019050610177565b600090505b919050565b6060806060806000600160036005838054610196906108e0565b80601f01602080910402602001604051908101604052809291908181526020018280546101c2906108e0565b801561020f5780601f106101e45761010080835404028352916020019161020f565b820191906000526020600020905b8154815290600101906020018083116101f257829003601f168201915b50505050509350828054610222906108e0565b80601f016020809104026020016040519081016040528092919081815260200182805461024e906108e0565b801561029b5780601f106102705761010080835404028352916020019161029b565b820191906000526020600020905b81548152906001019060200180831161027e57829003601f168201915b505050505092508180546102ae906108e0565b80601f01602080910402602001604051908101604052809291908181526020018280546102da906108e0565b80156103275780601f106102fc57610100808354040283529160200191610327565b820191906000526020600020905b81548152906001019060200180831161030a57829003601f168201915b505050505091508080548060200260200160405190810160405280929190818152602001828054801561037957602002820191906000526020600020905b815481526020019060010190808311610365575b50505050509050935093509350935090919293565b6000805461039b906108e0565b80601f01602080910402602001604051908101604052809291908181526020018280546103c7906108e0565b80156104145780601f106103e957610100808354040283529160200191610414565b820191906000526020600020905b8154815290600101906020018083116103f757829003601f168201915b505050505081565b6000600582908060018154018082558091505060019003906000526020600020016000909190919091505560019050919050565b600080600460006101000a81548160ff02191690831515021790555060001515600460009054906101000a900460ff16151514156104915760019050610496565b600090505b90565b600460009054906101000a900460ff1681565b6000604051905090565b600080fd5b600080fd5b600080fd5b600080fd5b6000601f19601f8301169050919050565b7f4e487b7100000000000000000000000000000000000000000000000000000000600052604160045260246000fd5b610513826104ca565b810181811067ffffffffffffffff82111715610532576105316104db565b5b80604052505050565b60006105456104ac565b9050610551828261050a565b919050565b600067ffffffffffffffff821115610571576105706104db565b5b61057a826104ca565b9050602081019050919050565b82818337600083830152505050565b60006105a96105a484610556565b61053b565b9050828152602081018484840111156105c5576105c46104c5565b5b6105d0848285610587565b509392505050565b600082601f8301126105ed576105ec6104c0565b5b81356105fd848260208601610596565b91505092915050565b60006020828403121561061c5761061b6104b6565b5b600082013567ffffffffffffffff81111561063a576106396104bb565b5b610646848285016105d8565b91505092915050565b60008115159050919050565b6106648161064f565b82525050565b600060208201905061067f600083018461065b565b92915050565b600081519050919050565b600082825260208201905092915050565b60005b838110156106bf5780820151818401526020810190506106a4565b838111156106ce576000848401525b50505050565b60006106df82610685565b6106e98185610690565b93506106f98185602086016106a1565b610702816104ca565b840191505092915050565b600081519050919050565b600082825260208201905092915050565b6000819050602082019050919050565b6000819050919050565b61074c81610739565b82525050565b600061075e8383610743565b60208301905092915050565b6000602082019050919050565b60006107828261070d565b61078c8185610718565b935061079783610729565b8060005b838110156107c85781516107af8882610752565b97506107ba8361076a565b92505060018101905061079b565b5085935050505092915050565b600060808201905081810360008301526107ef81876106d4565b9050818103602083015261080381866106d4565b9050818103604083015261081781856106d4565b9050818103606083015261082b8184610777565b905095945050505050565b6000602082019050818103600083015261085081846106d4565b905092915050565b61086181610739565b811461086c57600080fd5b50565b60008135905061087e81610858565b92915050565b60006020828403121561089a576108996104b6565b5b60006108a88482850161086f565b91505092915050565b7f4e487b7100000000000000000000000000000000000000000000000000000000600052602260045260246000fd5b600060028204905060018216806108f857607f821691505b6020821081141561090c5761090b6108b1565b5b50919050565b600081905092915050565b60008190508160005260206000209050919050565b6000815461093f816108e0565b6109498186610912565b945060018216600081146109645760018114610975576109a8565b60ff198316865281860193506109a8565b61097e8561091d565b60005b838110156109a057815481890152600182019150602081019050610981565b838801955050505b50505092915050565b60006109bd8284610932565b91508190509291505056fea2646970667358221220762a5cbdd8deffd3758d4c1e165150a50a0e363f63bcb9d91cca433076a8ac8d64736f6c634300080b0033",
  "immutableReferences": {},
  "source": "// SPDX-License-Identifier: SimPL-2.0\r\npragma solidity ^0.8.7;\r\n\r\ncontract Lender {\r\n    //\r\n    string public id;\r\n    string account;\r\n    string passwd;\r\n    string name;\r\n    bool public valid=true;\r\n    uint256[] cashFlows;\r\n\r\n    constructor(\r\n        string memory _id,\r\n        string memory _account,\r\n        string memory _passwd,\r\n        string memory _name\r\n    ) public {\r\n        id = _id;\r\n        account = _account;\r\n        passwd = _passwd;\r\n        name = _name;\r\n    }\r\n\r\n    function attachCashFlow(uint256 cashFlowID) public returns (bool) {\r\n        cashFlows.push(cashFlowID);\r\n        return true;\r\n    }\r\n\r\n    function LenderLogin(string memory _passwd) public view returns (bool) {\r\n        if (keccak256(bytes(passwd)) == keccak256(bytes(_passwd))) return true;\r\n        else return false;\r\n    }\r\n\r\n    function getLenderInfo()\r\n        public\r\n        view\r\n        returns (\r\n            string memory,\r\n            string memory,\r\n            string memory,\r\n            uint256[] memory\r\n        )\r\n    {\r\n        return (id, account, name, cashFlows);\r\n    }\r\n\r\n    function deleteLender() public returns (bool) {\r\n        valid = false;\r\n        if (valid == false) return true;\r\n        else return false;\r\n    }\r\n}\r\n",
  "sourcePath": "/home/syj/Desktop/LoanSystem/contracts/Lender.sol",
  "compiler": {
    "name": "solc",
    "version": "0.8.11+commit.d7f03943.Emscripten.clang"
  },
  "schemaVersion": "3.4.4",
  "updatedAt": "2022-04-14T03:50:50.935Z",
  "networkType": "ethereum",
  "devdoc": {
    "kind": "dev",
    "methods": {},
    "version": 1
  },
  "userdoc": {
    "kind": "user",
    "methods": {},
    "version": 1
  }
}