{
  "contractName": "LoanSystem",
  "abi": [
    {
      "anonymous": false,
      "inputs": [
        {
          "indexed": false,
          "internalType": "string",
          "name": "id",
          "type": "string"
        },
        {
          "indexed": false,
          "internalType": "string",
          "name": "account",
          "type": "string"
        },
        {
          "indexed": false,
          "internalType": "string",
          "name": "name",
          "type": "string"
        }
      ],
      "name": "CreateBorrower",
      "type": "event"
    },
    {
      "anonymous": false,
      "inputs": [
        {
          "indexed": false,
          "internalType": "string",
          "name": "from",
          "type": "string"
        },
        {
          "indexed": false,
          "internalType": "string",
          "name": "to",
          "type": "string"
        },
        {
          "indexed": false,
          "internalType": "uint256",
          "name": "amount",
          "type": "uint256"
        }
      ],
      "name": "CreateCashFlow",
      "type": "event"
    },
    {
      "anonymous": false,
      "inputs": [
        {
          "indexed": false,
          "internalType": "string",
          "name": "id",
          "type": "string"
        },
        {
          "indexed": false,
          "internalType": "string",
          "name": "account",
          "type": "string"
        },
        {
          "indexed": false,
          "internalType": "string",
          "name": "name",
          "type": "string"
        }
      ],
      "name": "CreateLender",
      "type": "event"
    },
    {
      "anonymous": false,
      "inputs": [
        {
          "indexed": false,
          "internalType": "string",
          "name": "from",
          "type": "string"
        },
        {
          "indexed": false,
          "internalType": "string",
          "name": "to",
          "type": "string"
        },
        {
          "indexed": false,
          "internalType": "uint256",
          "name": "cashFlowID",
          "type": "uint256"
        },
        {
          "indexed": false,
          "internalType": "uint256",
          "name": "amount",
          "type": "uint256"
        }
      ],
      "name": "CreateTransaction",
      "type": "event"
    },
    {
      "anonymous": false,
      "inputs": [
        {
          "indexed": false,
          "internalType": "string",
          "name": "id",
          "type": "string"
        },
        {
          "indexed": false,
          "internalType": "bool",
          "name": "result",
          "type": "bool"
        }
      ],
      "name": "DeleteBorrower",
      "type": "event"
    },
    {
      "anonymous": false,
      "inputs": [
        {
          "indexed": false,
          "internalType": "string",
          "name": "id",
          "type": "string"
        },
        {
          "indexed": false,
          "internalType": "bool",
          "name": "result",
          "type": "bool"
        }
      ],
      "name": "DeleteLender",
      "type": "event"
    },
    {
      "inputs": [
        {
          "internalType": "string",
          "name": "account",
          "type": "string"
        },
        {
          "internalType": "string",
          "name": "passwd",
          "type": "string"
        },
        {
          "internalType": "string",
          "name": "name",
          "type": "string"
        }
      ],
      "name": "createLender",
      "outputs": [
        {
          "internalType": "string",
          "name": "",
          "type": "string"
        }
      ],
      "stateMutability": "nonpayable",
      "type": "function"
    },
    {
      "inputs": [
        {
          "internalType": "string",
          "name": "account",
          "type": "string"
        },
        {
          "internalType": "string",
          "name": "passwd",
          "type": "string"
        },
        {
          "internalType": "string",
          "name": "name",
          "type": "string"
        }
      ],
      "name": "createBorrower",
      "outputs": [
        {
          "internalType": "string",
          "name": "",
          "type": "string"
        }
      ],
      "stateMutability": "nonpayable",
      "type": "function"
    },
    {
      "inputs": [
        {
          "internalType": "string",
          "name": "id",
          "type": "string"
        }
      ],
      "name": "deleteLender",
      "outputs": [
        {
          "internalType": "bool",
          "name": "",
          "type": "bool"
        }
      ],
      "stateMutability": "nonpayable",
      "type": "function"
    },
    {
      "inputs": [
        {
          "internalType": "string",
          "name": "id",
          "type": "string"
        }
      ],
      "name": "deleteBorrower",
      "outputs": [
        {
          "internalType": "bool",
          "name": "",
          "type": "bool"
        }
      ],
      "stateMutability": "nonpayable",
      "type": "function"
    },
    {
      "inputs": [
        {
          "internalType": "string",
          "name": "id",
          "type": "string"
        }
      ],
      "name": "getLenderInfo",
      "outputs": [
        {
          "internalType": "string",
          "name": "",
          "type": "string"
        },
        {
          "internalType": "string",
          "name": "",
          "type": "string"
        },
        {
          "internalType": "string",
          "name": "",
          "type": "string"
        },
        {
          "internalType": "uint256[]",
          "name": "",
          "type": "uint256[]"
        }
      ],
      "stateMutability": "view",
      "type": "function",
      "constant": true
    },
    {
      "inputs": [
        {
          "internalType": "string",
          "name": "id",
          "type": "string"
        }
      ],
      "name": "getBorrowerInfo",
      "outputs": [
        {
          "internalType": "string",
          "name": "",
          "type": "string"
        },
        {
          "internalType": "string",
          "name": "",
          "type": "string"
        },
        {
          "internalType": "uint256",
          "name": "",
          "type": "uint256"
        },
        {
          "internalType": "uint256",
          "name": "",
          "type": "uint256"
        },
        {
          "internalType": "uint256[]",
          "name": "",
          "type": "uint256[]"
        }
      ],
      "stateMutability": "view",
      "type": "function",
      "constant": true
    },
    {
      "inputs": [
        {
          "internalType": "string",
          "name": "lenderID",
          "type": "string"
        },
        {
          "internalType": "string",
          "name": "borrowerID",
          "type": "string"
        },
        {
          "internalType": "uint256",
          "name": "cashNum",
          "type": "uint256"
        }
      ],
      "name": "createCashFlow",
      "outputs": [
        {
          "internalType": "bool",
          "name": "",
          "type": "bool"
        }
      ],
      "stateMutability": "nonpayable",
      "type": "function"
    },
    {
      "inputs": [
        {
          "internalType": "uint256",
          "name": "cashFlowID",
          "type": "uint256"
        },
        {
          "internalType": "string",
          "name": "senderID",
          "type": "string"
        },
        {
          "internalType": "string",
          "name": "receiverID",
          "type": "string"
        },
        {
          "internalType": "uint256",
          "name": "cashNum",
          "type": "uint256"
        },
        {
          "internalType": "string",
          "name": "note",
          "type": "string"
        }
      ],
      "name": "createTransaction",
      "outputs": [
        {
          "internalType": "bool",
          "name": "",
          "type": "bool"
        }
      ],
      "stateMutability": "nonpayable",
      "type": "function"
    },
    {
      "inputs": [
        {
          "internalType": "uint256",
          "name": "cashflowID",
          "type": "uint256"
        }
      ],
      "name": "checkCashFlow",
      "outputs": [
        {
          "internalType": "uint256",
          "name": "",
          "type": "uint256"
        },
        {
          "internalType": "uint256",
          "name": "",
          "type": "uint256"
        },
        {
          "internalType": "uint256[]",
          "name": "",
          "type": "uint256[]"
        }
      ],
      "stateMutability": "view",
      "type": "function",
      "constant": true
    },
    {
      "inputs": [
        {
          "internalType": "uint256",
          "name": "transactionID",
          "type": "uint256"
        }
      ],
      "name": "checkTransaction",
      "outputs": [
        {
          "internalType": "uint256",
          "name": "",
          "type": "uint256"
        },
        {
          "internalType": "string",
          "name": "",
          "type": "string"
        },
        {
          "internalType": "string",
          "name": "",
          "type": "string"
        },
        {
          "internalType": "uint256",
          "name": "",
          "type": "uint256"
        },
        {
          "internalType": "uint256",
          "name": "",
          "type": "uint256"
        },
        {
          "internalType": "uint256",
          "name": "",
          "type": "uint256"
        },
        {
          "internalType": "string",
          "name": "",
          "type": "string"
        },
        {
          "internalType": "uint256",
          "name": "",
          "type": "uint256"
        }
      ],
      "stateMutability": "view",
      "type": "function",
      "constant": true
    }
  ],
  "bytecode": "0x60e06040526000608081815260a082905260c0919091526200002690600490600362000045565b50600060055560006006553480156200003e57600080fd5b50620000b1565b82805482825590600052602060002090810192821562000088579160200282015b8281111562000088578251829060ff1690559160200191906001019062000066565b50620000969291506200009a565b5090565b5b808211156200009657600081556001016200009b565b61428f80620000c16000396000f3fe60806040523480156200001157600080fd5b5060043610620000ab5760003560e01c8063a6c1f4c8116200006e578063a6c1f4c81462000187578063b2dcfeb8146200019e578063c3f5a19514620001c6578063d45bcc9014620001dd578063d6431b9e14620001f457600080fd5b806301d1024814620000b0578063320a9eb814620000e357806333d79a661462000109578063867498d214620001325780638ce18a9f146200015a575b600080fd5b620000c7620000c136600462001aa9565b6200020b565b604051620000da95949392919062001b87565b60405180910390f35b620000fa620000f436600462001bde565b62000458565b604051620000da919062001c6f565b620001206200011a36600462001aa9565b6200053d565b604051620000da949392919062001c8b565b620001496200014336600462001ceb565b6200078e565b604051620000da9392919062001d05565b620001716200016b36600462001ceb565b6200082d565b604051620000da98979695949392919062001d26565b620000fa6200019836600462001bde565b620008e3565b620001b5620001af36600462001aa9565b620009b9565b6040519015158152602001620000da565b620001b5620001d736600462001aa9565b62000b65565b620001b5620001ee36600462001d96565b62000cfb565b620001b56200020536600462001e09565b62001242565b606080600080606060005b6001548110156200040d578680519060200120600182815481106200023f576200023f62001eae565b60009182526020822001546040805163af640d0f60e01b815290516001600160a01b039092169263af640d0f926004808401938290030181865afa1580156200028c573d6000803e3d6000fd5b505050506040513d6000823e601f3d908101601f19168201604052620002b6919081019062001f10565b8051906020012003620003f85760018181548110620002d957620002d962001eae565b600091825260209182902001546040805163c199121960e01b815290516001600160a01b039092169263c1991219926004808401938290030181865afa15801562000328573d6000803e3d6000fd5b505050506040513d601f19601f820116820180604052508101906200034e919062001f48565b15620003f257600181815481106200036a576200036a62001eae565b60009182526020822001546040805163571347fb60e01b815290516001600160a01b039092169263571347fb926004808401938290030181865afa158015620003b7573d6000803e3d6000fd5b505050506040513d6000823e601f3d908101601f19168201604052620003e1919081019062001fe9565b95509550955095509550506200044f565b6200040d565b80620004048162002097565b91505062000216565b5050604080518082018252600880825267139bdd119bdd5b9960c21b602080840182905284518086019095529184529083015294509250600019915081905060605b91939590929450565b6060600062000468600062001607565b90506000818686866040516200047e90620019a2565b6200048d9493929190620020b3565b604051809103906000f080158015620004aa573d6000803e3d6000fd5b50600080546001810182559080527f290decd9548b62a8d60345a988386fc84ba6bc95484008f6362f93160ef3e5630180546001600160a01b0319166001600160a01b0383161790556040519091507f3654448d712a1c551e96873396aae19f81cae374a3cd242739347011356890ac906200052c9084908990889062002108565b60405180910390a150949350505050565b60608060608060005b6000548110156200073b578580519060200120600082815481106200056f576200056f62001eae565b60009182526020822001546040805163af640d0f60e01b815290516001600160a01b039092169263af640d0f926004808401938290030181865afa158015620005bc573d6000803e3d6000fd5b505050506040513d6000823e601f3d908101601f19168201604052620005e6919081019062001f10565b805190602001200362000726576000818154811062000609576200060962001eae565b600091825260209182902001546040805163c199121960e01b815290516001600160a01b039092169263c1991219926004808401938290030181865afa15801562000658573d6000803e3d6000fd5b505050506040513d601f19601f820116820180604052508101906200067e919062001f48565b156200072057600081815481106200069a576200069a62001eae565b6000918252602082200154604080516377c4d9dd60e01b815290516001600160a01b03909216926377c4d9dd926004808401938290030181865afa158015620006e7573d6000803e3d6000fd5b505050506040513d6000823e601f3d908101601f1916820160405262000711919081019062002151565b94509450945094505062000787565b6200073b565b80620007328162002097565b91505062000546565b5050604080518082018252600880825267139bdd119bdd5b9960c21b60208084018290528451808601865283815280820183905285518087019096529285528401529094509250905060605b9193509193565b600080606060028481548110620007a957620007a962001eae565b600091825260208220015460408051637ec4939560e01b815290516001600160a01b0390921692637ec49395926004808401938290030181865afa158015620007f6573d6000803e3d6000fd5b505050506040513d6000823e601f3d908101601f191682016040526200082091908101906200220a565b9250925092509193909250565b60006060806000806000606060006003898154811062000851576200085162001eae565b6000918252602082200154604080516331b71c9360e01b815290516001600160a01b03909216926331b71c93926004808401938290030181865afa1580156200089e573d6000803e3d6000fd5b505050506040513d6000823e601f3d908101601f19168201604052620008c8919081019062002253565b97509750975097509750975097509750919395975091939597565b60606000620008f3600162001607565b90506000818686866040516200090990620019b0565b620009189493929190620020b3565b604051809103906000f08015801562000935573d6000803e3d6000fd5b506001805480820182556000919091527fb10e2d527612073b26eecdfd717e6a320cf44b4afac2b0732d9fcbe2b7fa0cf60180546001600160a01b0319166001600160a01b0383161790556040519091507fb5bca8badcdc39a36a2f2d8f228ea08d29df5a4a024a97605107723de93a81ea906200052c9084908990889062002108565b6000805b60015481101562000b5f57828051906020012060018281548110620009e657620009e662001eae565b60009182526020822001546040805163af640d0f60e01b815290516001600160a01b039092169263af640d0f926004808401938290030181865afa15801562000a33573d6000803e3d6000fd5b505050506040513d6000823e601f3d908101601f1916820160405262000a5d919081019062001f10565b805190602001200362000b4a5760006001828154811062000a825762000a8262001eae565b9060005260206000200160009054906101000a90046001600160a01b03166001600160a01b031663959cf4856040518163ffffffff1660e01b81526004016020604051808303816000875af115801562000ae0573d6000803e3d6000fd5b505050506040513d601f19601f8201168201806040525081019062000b06919062001f48565b90507f2768a342762ca1f61d869becf6c4a1a92912a361019b2fe04305d80851d606f7848260405162000b3b92919062002315565b60405180910390a19392505050565b8062000b568162002097565b915050620009bd565b50919050565b6000805b60005481101562000b5f5782805190602001206000828154811062000b925762000b9262001eae565b60009182526020822001546040805163af640d0f60e01b815290516001600160a01b039092169263af640d0f926004808401938290030181865afa15801562000bdf573d6000803e3d6000fd5b505050506040513d6000823e601f3d908101601f1916820160405262000c09919081019062001f10565b805190602001200362000ce657600080828154811062000c2d5762000c2d62001eae565b9060005260206000200160009054906101000a90046001600160a01b03166001600160a01b031663bb70bdaa6040518163ffffffff1660e01b81526004016020604051808303816000875af115801562000c8b573d6000803e3d6000fd5b505050506040513d601f19601f8201168201806040525081019062000cb1919062001f48565b90507f9bdd03539e965e24c782c8863f46650bcb6c8f5d902db6576edeaddc15787758848260405162000b3b92919062002315565b8062000cf28162002097565b91505062000b69565b6000806005548360405162000d1090620019be565b9182526020820152604001604051809103906000f08015801562000d38573d6000803e3d6000fd5b506002805460018101825560009182527f405787fa12a823e0f2b7631cc41b3ba8828b3321ca811111fa75cd3aa3bb5ace0180546001600160a01b0319166001600160a01b0384161790559091505b60005481101562000feb5785805190602001206000828154811062000db05762000db062001eae565b60009182526020822001546040805163af640d0f60e01b815290516001600160a01b039092169263af640d0f926004808401938290030181865afa15801562000dfd573d6000803e3d6000fd5b505050506040513d6000823e601f3d908101601f1916820160405262000e27919081019062001f10565b8051906020012014801562000ec257506000818154811062000e4d5762000e4d62001eae565b600091825260209182902001546040805163c199121960e01b815290516001600160a01b039092169263c1991219926004808401938290030181865afa15801562000e9c573d6000803e3d6000fd5b505050506040513d601f19601f8201168201806040525081019062000ec2919062001f48565b1562000fd6576000818154811062000ede5762000ede62001eae565b9060005260206000200160009054906101000a90046001600160a01b03166001600160a01b031663bb4397b9836001600160a01b031663af640d0f6040518163ffffffff1660e01b8152600401602060405180830381865afa15801562000f49573d6000803e3d6000fd5b505050506040513d601f19601f8201168201806040525081019062000f6f91906200233b565b6040518263ffffffff1660e01b815260040162000f8e91815260200190565b6020604051808303816000875af115801562000fae573d6000803e3d6000fd5b505050506040513d601f19601f8201168201806040525081019062000fd4919062001f48565b505b8062000fe28162002097565b91505062000d87565b5060005b600154811015620011e25784805190602001206001828154811062001018576200101862001eae565b60009182526020822001546040805163af640d0f60e01b815290516001600160a01b039092169263af640d0f926004808401938290030181865afa15801562001065573d6000803e3d6000fd5b505050506040513d6000823e601f3d908101601f191682016040526200108f919081019062001f10565b805190602001201480156200112a575060018181548110620010b557620010b562001eae565b600091825260209182902001546040805163c199121960e01b815290516001600160a01b039092169263c1991219926004808401938290030181865afa15801562001104573d6000803e3d6000fd5b505050506040513d601f19601f820116820180604052508101906200112a919062001f48565b15620011cd576001818154811062001146576200114662001eae565b60009182526020909120015460055460405163bb4397b960e01b81526001600160a01b039092169163bb4397b991620011859160040190815260200190565b6020604051808303816000875af1158015620011a5573d6000803e3d6000fd5b505050506040513d601f19601f82011682018060405250810190620011cb919062001f48565b505b80620011d98162002097565b91505062000fef565b507f1fb5838a38c2d7777280aff2fc3198f322e2541e209ba0afacc781d1b7c29e0c858585604051620012189392919062002355565b60405180910390a160058054906000620012328362002097565b9091555060019695505050505050565b600080600287815481106200125b576200125b62001eae565b6000918252602091829020015460408051631dfe52db60e01b815290516001600160a01b0390921692631dfe52db926004808401938290030181865afa158015620012aa573d6000803e3d6000fd5b505050506040513d601f19601f82011682018060405250810190620012d091906200233b565b905060028781548110620012e857620012e862001eae565b600091825260209091200154604051632e1a7d4d60e01b8152600481018690526001600160a01b0390911690632e1a7d4d906024016020604051808303816000875af11580156200133d573d6000803e3d6000fd5b505050506040513d601f19601f8201168201806040525081019062001363919062001f48565b15620015f85760006006548888888560028d8154811062001388576200138862001eae565b6000918252602091829020015460408051631dfe52db60e01b815290516001600160a01b0390921692631dfe52db926004808401938290030181865afa158015620013d7573d6000803e3d6000fd5b505050506040513d601f19601f82011682018060405250810190620013fd91906200233b565b8a8a6040516200140d90620019cc565b620014209897969594939291906200238f565b604051809103906000f0801580156200143d573d6000803e3d6000fd5b506003805460018101825560009182527fc2575a0e9e593c00f959f8c92f12db2869c3395a3b0502d05e2516446f71f85b0180546001600160a01b0319166001600160a01b03841617905560068054929350906200149b8362002097565b919050555060028881548110620014b657620014b662001eae565b9060005260206000200160009054906101000a90046001600160a01b03166001600160a01b0316637d839d2f826001600160a01b031663af640d0f6040518163ffffffff1660e01b8152600401602060405180830381865afa15801562001521573d6000803e3d6000fd5b505050506040513d601f19601f820116820180604052508101906200154791906200233b565b6040518263ffffffff1660e01b81526004016200156691815260200190565b6020604051808303816000875af115801562001586573d6000803e3d6000fd5b505050506040513d601f19601f82011682018060405250810190620015ac919062001f48565b507f7a8336266665c20168eff961a3cdee8f8d0b29320989135b8053d809afaeba6d87878a88604051620015e49493929190620023fe565b60405180910390a1600192505050620015fe565b60009150505b95945050505050565b606060048260ff168154811062001622576200162262001eae565b600091825260208220018054916200163a8362002097565b91905055506000600160048460ff16815481106200165c576200165c62001eae565b90600052602060002001546200167391906200243b565b90506060816000036200169f57506040805180820190915260018152600360fc1b6020820152620017ba565b8160005b8115620016cf5780620016b68162002097565b9150620016c79050600a8362002455565b9150620016a3565b6000816001600160401b03811115620016ec57620016ec620019da565b6040519080825280601f01601f19166020018201604052801562001717576020820181803683370190505b5090505b8415620017b557816200172e8162002478565b92506000905062001741600a8762002455565b6200174e90600a62002492565b6200175a90876200243b565b62001767906030620024b4565b905060008160f81b90508083858151811062001787576200178762001eae565b60200101906001600160f81b031916908160001a905350620017ab600a8862002455565b965050506200171b565b925050505b60608460ff16600003620017e757506040805180820190915260018152600360fc1b60208201526200182c565b8460ff166001036200181257506040805180820190915260018152603160f81b60208201526200182c565b506040805180820190915260018152601960f91b60208201525b620015fe818380518251606091849184916000916200184c9190620024dc565b6001600160401b03811115620018665762001866620019da565b6040519080825280601f01601f19166020018201604052801562001891576020820181803683370190505b509050806000805b85518110156200191557858181518110620018b857620018b862001eae565b01602001516001600160f81b0319168383620018d48162002097565b945081518110620018e957620018e962001eae565b60200101906001600160f81b031916908160001a905350806200190c8162002097565b91505062001899565b5060005b8451811015620019955784818151811062001938576200193862001eae565b01602001516001600160f81b0319168383620019548162002097565b94508151811062001969576200196962001eae565b60200101906001600160f81b031916908160001a905350806200198c8162002097565b91505062001919565b5091979650505050505050565b6109e380620024f883390190565b610a308062002edb83390190565b6102dd806200390b83390190565b6106728062003be883390190565b634e487b7160e01b600052604160045260246000fd5b604051601f8201601f191681016001600160401b038111828210171562001a1b5762001a1b620019da565b604052919050565b60006001600160401b0382111562001a3f5762001a3f620019da565b50601f01601f191660200190565b600082601f83011262001a5f57600080fd5b813562001a7662001a708262001a23565b620019f0565b81815284602083860101111562001a8c57600080fd5b816020850160208301376000918101602001919091529392505050565b60006020828403121562001abc57600080fd5b81356001600160401b0381111562001ad357600080fd5b62001ae18482850162001a4d565b949350505050565b60005b8381101562001b0657818101518382015260200162001aec565b8381111562001b16576000848401525b50505050565b6000815180845262001b3681602086016020860162001ae9565b601f01601f19169290920160200192915050565b600081518084526020808501945080840160005b8381101562001b7c5781518752958201959082019060010162001b5e565b509495945050505050565b60a08152600062001b9c60a083018862001b1c565b828103602084015262001bb0818862001b1c565b9050856040840152846060840152828103608084015262001bd2818562001b4a565b98975050505050505050565b60008060006060848603121562001bf457600080fd5b83356001600160401b038082111562001c0c57600080fd5b62001c1a8783880162001a4d565b9450602086013591508082111562001c3157600080fd5b62001c3f8783880162001a4d565b9350604086013591508082111562001c5657600080fd5b5062001c658682870162001a4d565b9150509250925092565b60208152600062001c84602083018462001b1c565b9392505050565b60808152600062001ca0608083018762001b1c565b828103602084015262001cb4818762001b1c565b9050828103604084015262001cca818662001b1c565b9050828103606084015262001ce0818562001b4a565b979650505050505050565b60006020828403121562001cfe57600080fd5b5035919050565b838152826020820152606060408201526000620015fe606083018462001b4a565b60006101008a835280602084015262001d428184018b62001b1c565b9050828103604084015262001d58818a62001b1c565b90508760608401528660808401528560a084015282810360c084015262001d80818662001b1c565b9150508260e08301529998505050505050505050565b60008060006060848603121562001dac57600080fd5b83356001600160401b038082111562001dc457600080fd5b62001dd28783880162001a4d565b9450602086013591508082111562001de957600080fd5b5062001df88682870162001a4d565b925050604084013590509250925092565b600080600080600060a0868803121562001e2257600080fd5b8535945060208601356001600160401b038082111562001e4157600080fd5b62001e4f89838a0162001a4d565b9550604088013591508082111562001e6657600080fd5b62001e7489838a0162001a4d565b945060608801359350608088013591508082111562001e9257600080fd5b5062001ea18882890162001a4d565b9150509295509295909350565b634e487b7160e01b600052603260045260246000fd5b600082601f83011262001ed657600080fd5b815162001ee762001a708262001a23565b81815284602083860101111562001efd57600080fd5b62001ae182602083016020870162001ae9565b60006020828403121562001f2357600080fd5b81516001600160401b0381111562001f3a57600080fd5b62001ae18482850162001ec4565b60006020828403121562001f5b57600080fd5b8151801515811462001c8457600080fd5b600082601f83011262001f7e57600080fd5b815160206001600160401b0382111562001f9c5762001f9c620019da565b8160051b62001fad828201620019f0565b928352848101820192828101908785111562001fc857600080fd5b83870192505b8483101562001ce05782518252918301919083019062001fce565b600080600080600060a086880312156200200257600080fd5b85516001600160401b03808211156200201a57600080fd5b6200202889838a0162001ec4565b965060208801519150808211156200203f57600080fd5b6200204d89838a0162001ec4565b9550604088015194506060880151935060808801519150808211156200207257600080fd5b5062001ea18882890162001f6c565b634e487b7160e01b600052601160045260246000fd5b600060018201620020ac57620020ac62002081565b5060010190565b608081526000620020c8608083018762001b1c565b8281036020840152620020dc818762001b1c565b90508281036040840152620020f2818662001b1c565b9050828103606084015262001ce0818562001b1c565b6060815260006200211d606083018662001b1c565b828103602084015262002131818662001b1c565b9050828103604084015262002147818562001b1c565b9695505050505050565b600080600080608085870312156200216857600080fd5b84516001600160401b03808211156200218057600080fd5b6200218e8883890162001ec4565b95506020870151915080821115620021a557600080fd5b620021b38883890162001ec4565b94506040870151915080821115620021ca57600080fd5b620021d88883890162001ec4565b93506060870151915080821115620021ef57600080fd5b50620021fe8782880162001f6c565b91505092959194509250565b6000806000606084860312156200222057600080fd5b835192506020840151915060408401516001600160401b038111156200224557600080fd5b62001c658682870162001f6c565b600080600080600080600080610100898b0312156200227157600080fd5b8851975060208901516001600160401b03808211156200229057600080fd5b6200229e8c838d0162001ec4565b985060408b0151915080821115620022b557600080fd5b620022c38c838d0162001ec4565b975060608b0151965060808b0151955060a08b0151945060c08b0151915080821115620022ef57600080fd5b50620022fe8b828c0162001ec4565b92505060e089015190509295985092959890939650565b6040815260006200232a604083018562001b1c565b905082151560208301529392505050565b6000602082840312156200234e57600080fd5b5051919050565b6060815260006200236a606083018662001b1c565b82810360208401526200237e818662001b1c565b915050826040830152949350505050565b60006101008a8352896020840152806040840152620023b18184018a62001b1c565b90508281036060840152620023c7818962001b1c565b90508660808401528560a08401528460c084015282810360e0840152620023ef818562001b1c565b9b9a5050505050505050505050565b60808152600062002413608083018762001b1c565b828103602084015262002427818762001b1c565b604084019590955250506060015292915050565b60008282101562002450576200245062002081565b500390565b6000826200247357634e487b7160e01b600052601260045260246000fd5b500490565b6000816200248a576200248a62002081565b506000190190565b6000816000190483118215151615620024af57620024af62002081565b500290565b600060ff821660ff84168060ff03821115620024d457620024d462002081565b019392505050565b60008219821115620024f257620024f262002081565b50019056fe60806040526004805460ff191660011790553480156200001e57600080fd5b50604051620009e3380380620009e3833981016040819052620000419162000216565b835162000056906000906020870190620000a3565b5082516200006c906001906020860190620000a3565b50815162000082906002906020850190620000a3565b50805162000098906003906020840190620000a3565b50505050506200030b565b828054620000b190620002cf565b90600052602060002090601f016020900481019282620000d5576000855562000120565b82601f10620000f057805160ff191683800117855562000120565b8280016001018555821562000120579182015b828111156200012057825182559160200191906001019062000103565b506200012e92915062000132565b5090565b5b808211156200012e576000815560010162000133565b634e487b7160e01b600052604160045260246000fd5b600082601f8301126200017157600080fd5b81516001600160401b03808211156200018e576200018e62000149565b604051601f8301601f19908116603f01168101908282118183101715620001b957620001b962000149565b81604052838152602092508683858801011115620001d657600080fd5b600091505b83821015620001fa5785820183015181830184015290820190620001db565b838211156200020c5760008385830101525b9695505050505050565b600080600080608085870312156200022d57600080fd5b84516001600160401b03808211156200024557600080fd5b62000253888389016200015f565b955060208701519150808211156200026a57600080fd5b62000278888389016200015f565b945060408701519150808211156200028f57600080fd5b6200029d888389016200015f565b93506060870151915080821115620002b457600080fd5b50620002c3878288016200015f565b91505092959194509250565b600181811c90821680620002e457607f821691505b6020821081036200030557634e487b7160e01b600052602260045260246000fd5b50919050565b6106c8806200031b6000396000f3fe608060405234801561001057600080fd5b50600436106100625760003560e01c80633be16efa1461006757806377c4d9dd1461008f578063af640d0f146100a7578063bb4397b9146100bc578063bb70bdaa14610104578063c199121914610115575b600080fd5b61007a61007536600461040e565b610122565b60405190151581526020015b60405180910390f35b610097610158565b604051610086949392919061050c565b6100af61036a565b604051610086919061058a565b61007a6100ca3660046105a4565b60058054600181810183556000929092527f036b6384b5eca791c62761152d0c79bb0604c104a5fb6f4eb0703f3154bb3db0019190915590565b6004805460ff19169055600161007a565b60045461007a9060ff1681565b60008180519060200120600260405161013b91906105f7565b60405180910390200361015057506001919050565b506000919050565b6060806060806000600160036005838054610172906105bd565b80601f016020809104026020016040519081016040528092919081815260200182805461019e906105bd565b80156101eb5780601f106101c0576101008083540402835291602001916101eb565b820191906000526020600020905b8154815290600101906020018083116101ce57829003601f168201915b505050505093508280546101fe906105bd565b80601f016020809104026020016040519081016040528092919081815260200182805461022a906105bd565b80156102775780601f1061024c57610100808354040283529160200191610277565b820191906000526020600020905b81548152906001019060200180831161025a57829003601f168201915b5050505050925081805461028a906105bd565b80601f01602080910402602001604051908101604052809291908181526020018280546102b6906105bd565b80156103035780601f106102d857610100808354040283529160200191610303565b820191906000526020600020905b8154815290600101906020018083116102e657829003601f168201915b505050505091508080548060200260200160405190810160405280929190818152602001828054801561035557602002820191906000526020600020905b815481526020019060010190808311610341575b50505050509050935093509350935090919293565b60008054610377906105bd565b80601f01602080910402602001604051908101604052809291908181526020018280546103a3906105bd565b80156103f05780601f106103c5576101008083540402835291602001916103f0565b820191906000526020600020905b8154815290600101906020018083116103d357829003601f168201915b505050505081565b634e487b7160e01b600052604160045260246000fd5b60006020828403121561042057600080fd5b813567ffffffffffffffff8082111561043857600080fd5b818401915084601f83011261044c57600080fd5b81358181111561045e5761045e6103f8565b604051601f8201601f19908116603f01168101908382118183101715610486576104866103f8565b8160405282815287602084870101111561049f57600080fd5b826020860160208301376000928101602001929092525095945050505050565b6000815180845260005b818110156104e5576020818501810151868301820152016104c9565b818111156104f7576000602083870101525b50601f01601f19169290920160200192915050565b60808152600061051f60808301876104bf565b60208382038185015261053282886104bf565b9150838203604085015261054682876104bf565b8481036060860152855180825282870193509082019060005b8181101561057b5784518352938301939183019160010161055f565b50909998505050505050505050565b60208152600061059d60208301846104bf565b9392505050565b6000602082840312156105b657600080fd5b5035919050565b600181811c908216806105d157607f821691505b6020821081036105f157634e487b7160e01b600052602260045260246000fd5b50919050565b600080835481600182811c91508083168061061357607f831692505b6020808410820361063257634e487b7160e01b86526022600452602486fd5b818015610646576001811461065757610684565b60ff19861689528489019650610684565b60008a81526020902060005b8681101561067c5781548b820152908501908301610663565b505084890196505b50949897505050505050505056fea2646970667358221220f934027ad60d9feb2cfd7eda277191d05cd0cdf0a81134ad4994ec603d30a11064736f6c634300080d0033608060405260646005556006805460ff191660011790553480156200002357600080fd5b5060405162000a3038038062000a3083398101604081905262000046916200021b565b83516200005b906000906020870190620000a8565b50825162000071906001906020860190620000a8565b50815162000087906002906020850190620000a8565b5080516200009d906003906020840190620000a8565b505050505062000310565b828054620000b690620002d4565b90600052602060002090601f016020900481019282620000da576000855562000125565b82601f10620000f557805160ff191683800117855562000125565b8280016001018555821562000125579182015b828111156200012557825182559160200191906001019062000108565b506200013392915062000137565b5090565b5b8082111562000133576000815560010162000138565b634e487b7160e01b600052604160045260246000fd5b600082601f8301126200017657600080fd5b81516001600160401b03808211156200019357620001936200014e565b604051601f8301601f19908116603f01168101908282118183101715620001be57620001be6200014e565b81604052838152602092508683858801011115620001db57600080fd5b600091505b83821015620001ff5785820183015181830184015290820190620001e0565b83821115620002115760008385830101525b9695505050505050565b600080600080608085870312156200023257600080fd5b84516001600160401b03808211156200024a57600080fd5b620002588883890162000164565b955060208701519150808211156200026f57600080fd5b6200027d8883890162000164565b945060408701519150808211156200029457600080fd5b620002a28883890162000164565b93506060870151915080821115620002b957600080fd5b50620002c88782880162000164565b91505092959194509250565b600181811c90821680620002e957607f821691505b6020821081036200030a57634e487b7160e01b600052602260045260246000fd5b50919050565b61071080620003206000396000f3fe608060405234801561001057600080fd5b506004361061007d5760003560e01c8063af640d0f1161005b578063af640d0f146100d6578063b47feefa146100eb578063bb4397b9146100fe578063c19912191461014657600080fd5b8063571347fb146100825780638103d623146100a4578063959cf485146100b9575b600080fd5b61008a610153565b60405161009b95949392919061040e565b60405180910390f35b6100b76100b236600461052a565b6102e2565b005b6006805460ff1916905560015b604051901515815260200161009b565b6100de6102fd565b60405161009b919061056f565b6100c66100f9366004610589565b61038b565b6100c661010c3660046105c6565b60078054600181810183556000929092527fa66cc928b5edb82af9bd49922954155ab7b0942694bea4ce44661d9a8736c688019190915590565b6006546100c69060ff1681565b6060806000806060600160036004546005546007848054610173906105df565b80601f016020809104026020016040519081016040528092919081815260200182805461019f906105df565b80156101ec5780601f106101c1576101008083540402835291602001916101ec565b820191906000526020600020905b8154815290600101906020018083116101cf57829003601f168201915b505050505094508380546101ff906105df565b80601f016020809104026020016040519081016040528092919081815260200182805461022b906105df565b80156102785780601f1061024d57610100808354040283529160200191610278565b820191906000526020600020905b81548152906001019060200180831161025b57829003601f168201915b50505050509350808054806020026020016040519081016040528092919081815260200182805480156102ca57602002820191906000526020600020905b8154815260200190600101908083116102b6575b50505050509050945094509450945094509091929394565b80600460008282546102f49190610619565b90915550505050565b6000805461030a906105df565b80601f0160208091040260200160405190810160405280929190818152602001828054610336906105df565b80156103835780601f1061035857610100808354040283529160200191610383565b820191906000526020600020905b81548152906001019060200180831161036657829003601f168201915b505050505081565b6000818051906020012060026040516103a4919061063f565b6040518091039020036103b957506001919050565b506000919050565b6000815180845260005b818110156103e7576020818501810151868301820152016103cb565b818111156103f9576000602083870101525b50601f01601f19169290920160200192915050565b60a08152600061042160a08301886103c1565b60208382038185015261043482896103c1565b60408501889052606085018790528481036080860152855180825282870193509082019060005b818110156104775784518352938301939183019160010161045b565b50909a9950505050505050505050565b634e487b7160e01b600052604160045260246000fd5b600082601f8301126104ae57600080fd5b813567ffffffffffffffff808211156104c9576104c9610487565b604051601f8301601f19908116603f011681019082821181831017156104f1576104f1610487565b8160405283815286602085880101111561050a57600080fd5b836020870160208301376000602085830101528094505050505092915050565b6000806040838503121561053d57600080fd5b823567ffffffffffffffff81111561055457600080fd5b6105608582860161049d565b95602094909401359450505050565b60208152600061058260208301846103c1565b9392505050565b60006020828403121561059b57600080fd5b813567ffffffffffffffff8111156105b257600080fd5b6105be8482850161049d565b949350505050565b6000602082840312156105d857600080fd5b5035919050565b600181811c908216806105f357607f821691505b60208210810361061357634e487b7160e01b600052602260045260246000fd5b50919050565b6000821982111561063a57634e487b7160e01b600052601160045260246000fd5b500190565b600080835481600182811c91508083168061065b57607f831692505b6020808410820361067a57634e487b7160e01b86526022600452602486fd5b81801561068e576001811461069f576106cc565b60ff198616895284890196506106cc565b60008a81526020902060005b868110156106c45781548b8201529085019083016106ab565b505084890196505b50949897505050505050505056fea26469706673582212207686da6f9d4b9fe6d3e53a45769b0baa7f45c3d522ad8326e26467f7a2f3ba6e64736f6c634300080d0033608060405234801561001057600080fd5b506040516102dd3803806102dd83398101604081905261002f91610042565b6000919091556001819055600255610066565b6000806040838503121561005557600080fd5b505080516020909101519092909150565b610268806100756000396000f3fe608060405234801561001057600080fd5b50600436106100575760003560e01c80631dfe52db1461005c5780632e1a7d4d146100785780637d839d2f1461009b5780637ec49395146100e3578063af640d0f146100fa575b600080fd5b61006560025481565b6040519081526020015b60405180910390f35b61008b61008636600461019f565b610103565b604051901515815260200161006f565b61008b6100a936600461019f565b60038054600181810183556000929092527fc2575a0e9e593c00f959f8c92f12db2869c3395a3b0502d05e2516446f71f85b019190915590565b6100eb610135565b60405161006f939291906101b8565b61006560005481565b6000816002541061012d578160026000828254610120919061020d565b9091555060019392505050565b506000919050565b600080606060015460025460038080548060200260200160405190810160405280929190818152602001828054801561018d57602002820191906000526020600020905b815481526020019060010190808311610179575b50505050509050925092509250909192565b6000602082840312156101b157600080fd5b5035919050565b6000606082018583526020858185015260606040850152818551808452608086019150828701935060005b818110156101ff578451835293830193918301916001016101e3565b509098975050505050505050565b60008282101561022d57634e487b7160e01b600052601160045260246000fd5b50039056fea264697066735822122086f7789ce8d0ce04f4785092284b87fd0e4296c2322aa99b97df39d4b7f2645764736f6c634300080d0033608060405234801561001057600080fd5b5060405161067238038061067283398101604081905261002f916101f1565b60008890556001879055855161004c906002906020890190610096565b508451610060906003906020880190610096565b506004849055600583905560068290558051610083906007906020840190610096565b505042600855506102e495505050505050565b8280546100a2906102aa565b90600052602060002090601f0160209004810192826100c4576000855561010a565b82601f106100dd57805160ff191683800117855561010a565b8280016001018555821561010a579182015b8281111561010a5782518255916020019190600101906100ef565b5061011692915061011a565b5090565b5b80821115610116576000815560010161011b565b634e487b7160e01b600052604160045260246000fd5b600082601f83011261015657600080fd5b81516001600160401b03808211156101705761017061012f565b604051601f8301601f19908116603f011681019082821181831017156101985761019861012f565b816040528381526020925086838588010111156101b457600080fd5b600091505b838210156101d657858201830151818301840152908201906101b9565b838211156101e75760008385830101525b9695505050505050565b600080600080600080600080610100898b03121561020e57600080fd5b885160208a015160408b015191995097506001600160401b038082111561023457600080fd5b6102408c838d01610145565b975060608b015191508082111561025657600080fd5b6102628c838d01610145565b965060808b0151955060a08b0151945060c08b0151935060e08b015191508082111561028d57600080fd5b5061029a8b828c01610145565b9150509295985092959890939650565b600181811c908216806102be57607f821691505b6020821081036102de57634e487b7160e01b600052602260045260246000fd5b50919050565b61037f806102f36000396000f3fe608060405234801561001057600080fd5b50600436106100365760003560e01c806331b71c931461003b578063af640d0f14610060575b600080fd5b610043610077565b6040516100579897969594939291906102a5565b60405180910390f35b61006960005481565b604051908152602001610057565b60006060806000806000606060006001546002600360045460055460065460076008548680546100a69061030f565b80601f01602080910402602001604051908101604052809291908181526020018280546100d29061030f565b801561011f5780601f106100f45761010080835404028352916020019161011f565b820191906000526020600020905b81548152906001019060200180831161010257829003601f168201915b505050505096508580546101329061030f565b80601f016020809104026020016040519081016040528092919081815260200182805461015e9061030f565b80156101ab5780601f10610180576101008083540402835291602001916101ab565b820191906000526020600020905b81548152906001019060200180831161018e57829003601f168201915b505050505095508180546101be9061030f565b80601f01602080910402602001604051908101604052809291908181526020018280546101ea9061030f565b80156102375780601f1061020c57610100808354040283529160200191610237565b820191906000526020600020905b81548152906001019060200180831161021a57829003601f168201915b50505050509150975097509750975097509750975097509091929394959697565b6000815180845260005b8181101561027e57602081850181015186830182015201610262565b81811115610290576000602083870101525b50601f01601f19169290920160200192915050565b60006101008a83528060208401526102bf8184018b610258565b905082810360408401526102d3818a610258565b90508760608401528660808401528560a084015282810360c08401526102f98186610258565b9150508260e08301529998505050505050505050565b600181811c9082168061032357607f821691505b60208210810361034357634e487b7160e01b600052602260045260246000fd5b5091905056fea2646970667358221220120e2898fde57f31010c8767e2f6bc7239b07509a8a54d72d46b2b3c3b67526064736f6c634300080d0033a26469706673582212201ae846b007aecdce0798464361931091bc3b842a1af1fa264319aa658db4996564736f6c634300080d0033",
  "immutableReferences": {},
  "source": "pragma solidity ^0.8.7;\r\n\r\nimport \"./Lender.sol\";\r\nimport \"./Borrower.sol\";\r\n//import \"./Manager.sol\";\r\nimport \"./CashFlow.sol\";\r\nimport \"./Transaction.sol\";\r\n\r\ncontract LoanSystem {\r\n    //\r\n\r\n    event CreateLender(string id, string account, string name);\r\n    event CreateBorrower(string id, string account, string name);\r\n    // event CreateManager(string id);\r\n    event DeleteLender(string id, bool result);\r\n    event DeleteBorrower(string id, bool result);\r\n    // event DeleteManager(string id, bool result);\r\n    // event CheckInfo(string id);\r\n    event CreateCashFlow(string from, string to, uint256 amount);\r\n    event CreateTransaction(\r\n        string from,\r\n        string to,\r\n        uint256 cashFlowID,\r\n        uint256 amount\r\n    );\r\n\r\n    Lender[] lenders;\r\n    Borrower[] borrowers;\r\n    // Manager[] managers;\r\n    CashFlow[] cashFlows;\r\n    Transaction[] transactions;\r\n\r\n    uint256[] IDarr = [0, 0, 0]; //ID\r\n    uint256 cashFlowCount = 0; //ID\r\n    uint256 TransactionCount = 0; //ID\r\n\r\n    function createLender(\r\n        string memory account,\r\n        string memory passwd,\r\n        string memory name\r\n    ) public returns (string memory) {\r\n        //ID\r\n        string memory id = generateID(0);\r\n        Lender lender = new Lender(id, account, passwd, name);\r\n        lenders.push(lender);\r\n        emit CreateLender(id, account, name);\r\n        return id;\r\n    }\r\n\r\n    function createBorrower(\r\n        string memory account,\r\n        string memory passwd,\r\n        string memory name\r\n    ) public returns (string memory) {\r\n        //ID\r\n        string memory id = generateID(1);\r\n        Borrower borrower = new Borrower(id, account, passwd, name);\r\n        borrowers.push(borrower);\r\n        emit CreateBorrower(id, account, name);\r\n        return id;\r\n    }\r\n\r\n    // function createManager(string memory passwd)\r\n    //     public\r\n    //     returns (string memory)\r\n    // {\r\n    //     //ID\r\n    //     string memory id = generateID(2);\r\n    //     Manager manager = new Manager(id, passwd);\r\n    //     managers.push(manager);\r\n    //     emit CreateManager(id);\r\n    //     return id;\r\n    // }\r\n\r\n    function deleteLender(string memory id) public returns (bool) {\r\n        //\r\n        for (uint256 i = 0; i < lenders.length; i++) {\r\n            if (keccak256(bytes(lenders[i].id())) == keccak256(bytes(id))) {\r\n                bool result = lenders[i].deleteLender();\r\n                emit DeleteLender(id, result);\r\n                return result;\r\n            }\r\n        }\r\n    }\r\n\r\n    function deleteBorrower(string memory id) public returns (bool) {\r\n        //\r\n        for (uint256 i = 0; i < borrowers.length; i++) {\r\n            if (keccak256(bytes(borrowers[i].id())) == keccak256(bytes(id))) {\r\n                bool result = borrowers[i].deleteBorrower();\r\n                emit DeleteBorrower(id, result);\r\n                return result;\r\n            }\r\n        }\r\n    }\r\n\r\n    // function deleteManager(string memory id) public returns (bool) {\r\n    //     //\r\n    //     for (uint256 i = 0; i < lenders.length; i++) {\r\n    //         if (keccak256(bytes(managers[i].id())) == keccak256(bytes(id))) {\r\n    //             bool result = managers[i].deleteManager();\r\n    //             emit DeleteManager(id, result);\r\n    //             return result;\r\n    //         }\r\n    //     }\r\n    // }\r\n\r\n    function getLenderInfo(string memory id)\r\n        public\r\n        view\r\n        returns (\r\n            string memory,\r\n            string memory,\r\n            string memory,\r\n            uint256[] memory\r\n        )\r\n    {\r\n        //()\r\n        for (uint256 i = 0; i < lenders.length; i++) {\r\n            if (keccak256(bytes(lenders[i].id())) == keccak256(bytes(id)))\r\n                if (lenders[i].valid()) return lenders[i].getLenderInfo();\r\n                else break;\r\n        }\r\n        uint256[] memory arr;\r\n        return (\"NotFound\", \"NotFound\", \"NotFound\", arr);\r\n    }\r\n\r\n    function getBorrowerInfo(string memory id)\r\n        public\r\n        view\r\n        returns (\r\n            string memory,\r\n            string memory,\r\n            uint256,\r\n            uint256,\r\n            uint256[] memory\r\n        )\r\n    {\r\n        //()\r\n        for (uint256 i = 0; i < borrowers.length; i++) {\r\n            if (keccak256(bytes(borrowers[i].id())) == keccak256(bytes(id)))\r\n                if (borrowers[i].valid()) return borrowers[i].getBorrowerInfo();\r\n                else break;\r\n        }\r\n        uint256[] memory arr;\r\n        return (\r\n            \"NotFound\",\r\n            \"NotFound\",\r\n            type(uint256).max,\r\n            type(uint256).max,\r\n            arr\r\n        );\r\n    }\r\n\r\n    // function getAllLenderInfo() public view returns (Lender[] memory) {\r\n    //     //\r\n    //     // \r\n    // }\r\n\r\n    function createCashFlow(\r\n        string memory lenderID,\r\n        string memory borrowerID,\r\n        uint256 cashNum\r\n    ) public returns (bool) {\r\n        //\r\n        CashFlow cashflow = new CashFlow(cashFlowCount, cashNum);\r\n        cashFlows.push(cashflow);\r\n        for (uint256 i = 0; i < lenders.length; i++) {\r\n            if (\r\n                keccak256(bytes(lenders[i].id())) ==\r\n                keccak256(bytes(lenderID)) &&\r\n                lenders[i].valid()\r\n            ) lenders[i].attachCashFlow(cashflow.id());\r\n        }\r\n        for (uint256 i = 0; i < borrowers.length; i++) {\r\n            if (\r\n                keccak256(bytes(borrowers[i].id())) ==\r\n                keccak256(bytes(borrowerID)) &&\r\n                borrowers[i].valid()\r\n            ) borrowers[i].attachCashFlow(cashFlowCount);\r\n        }\r\n        emit CreateCashFlow(lenderID, borrowerID, cashNum);\r\n        cashFlowCount++;\r\n        return true;\r\n    }\r\n\r\n    function createTransaction(\r\n        uint256 cashFlowID,\r\n        string memory senderID,\r\n        string memory receiverID,\r\n        uint256 cashNum,\r\n        string memory note\r\n    ) public returns (bool) {\r\n        //\r\n        uint256 prevCash = cashFlows[cashFlowID].currBalance();\r\n        if (cashFlows[cashFlowID].withdraw(cashNum)) {\r\n            Transaction transaction = new Transaction(\r\n                TransactionCount,\r\n                cashFlowID,\r\n                senderID,\r\n                receiverID,\r\n                prevCash,\r\n                cashFlows[cashFlowID].currBalance(),\r\n                cashNum,\r\n                note\r\n            );\r\n            transactions.push(transaction);\r\n            TransactionCount++;\r\n            cashFlows[cashFlowID].attachTransaction(transaction.id());\r\n            emit CreateTransaction(senderID, receiverID, cashFlowID, cashNum);\r\n            return true;\r\n        } else return false;\r\n    }\r\n\r\n    function checkCashFlow(uint256 cashflowID)\r\n        public\r\n        view\r\n        returns (\r\n            uint256,\r\n            uint256,\r\n            uint256[] memory\r\n        )\r\n    {\r\n        //\r\n        return cashFlows[cashflowID].checkCashFlow();\r\n    }\r\n\r\n    function checkTransaction(uint256 transactionID)\r\n        public\r\n        view\r\n        returns (\r\n            uint256,\r\n            string memory,\r\n            string memory,\r\n            uint256,\r\n            uint256,\r\n            uint256,\r\n            string memory,\r\n            uint256\r\n        )\r\n    {\r\n        //\r\n        return transactions[transactionID].checkTransaction();\r\n    }\r\n\r\n    //\r\n\r\n    function strConcat(string memory _a, string memory _b)\r\n        internal\r\n        pure\r\n        returns (string memory)\r\n    {\r\n        //\r\n        bytes memory _ba = bytes(_a);\r\n        bytes memory _bb = bytes(_b);\r\n        string memory ret = new string(_ba.length + _bb.length);\r\n        bytes memory bret = bytes(ret);\r\n        uint256 k = 0;\r\n        for (uint256 i = 0; i < _ba.length; i++) bret[k++] = _ba[i];\r\n        for (uint256 i = 0; i < _bb.length; i++) bret[k++] = _bb[i];\r\n        return string(ret);\r\n    }\r\n\r\n    function generateID(uint8 t) internal returns (string memory) {\r\n        //id \r\n        IDarr[t]++;\r\n        uint256 rawID = IDarr[t] - 1;\r\n        string memory strID;\r\n        if (rawID == 0) strID = \"0\";\r\n        else {\r\n            uint256 cp = rawID;\r\n            uint256 len = 0;\r\n            while (cp != 0) {\r\n                len++;\r\n                cp /= 10;\r\n            }\r\n            bytes memory bstr = new bytes(len);\r\n            while (rawID != 0) {\r\n                len--;\r\n                uint8 temp = (48 + uint8(rawID - (rawID / 10) * 10));\r\n                bytes1 b1 = bytes1(temp);\r\n                bstr[len] = b1;\r\n                rawID /= 10;\r\n            }\r\n            strID = string(bstr);\r\n        }\r\n        string memory prefix;\r\n        if (t == 0) prefix = \"0\";\r\n        else if (t == 1) prefix = \"1\";\r\n        else prefix = \"2\";\r\n        return strConcat(prefix, strID);\r\n    }\r\n}\r\n",
  "sourcePath": "/home/syj/Desktop/LoanSystem/contracts/LoanSystem.sol",
  "compiler": {
    "name": "solc",
    "version": "0.8.13+commit.abaa5c0e.Emscripten.clang"
  },
  "schemaVersion": "3.4.4",
  "updatedAt": "2022-04-14T03:50:50.968Z",
  "networkType": "ethereum",
  "devdoc": {
    "kind": "dev",
    "methods": {},
    "version": 1
  },
  "userdoc": {
    "kind": "user",
    "methods": {},
    "version": 1
  }
}