{
  "contractName": "LoanSystem",
  "abi": [
    {
      "anonymous": false,
      "inputs": [
        {
          "indexed": false,
          "internalType": "address",
          "name": "from",
          "type": "address"
        },
        {
          "indexed": false,
          "internalType": "address",
          "name": "to",
          "type": "address"
        },
        {
          "indexed": false,
          "internalType": "uint256",
          "name": "amount",
          "type": "uint256"
        }
      ],
      "name": "CreateCashFlow",
      "type": "event"
    },
    {
      "anonymous": false,
      "inputs": [
        {
          "indexed": false,
          "internalType": "address",
          "name": "from",
          "type": "address"
        },
        {
          "indexed": false,
          "internalType": "address",
          "name": "to",
          "type": "address"
        },
        {
          "indexed": false,
          "internalType": "uint256",
          "name": "cashFlowID",
          "type": "uint256"
        },
        {
          "indexed": false,
          "internalType": "uint256",
          "name": "amount",
          "type": "uint256"
        }
      ],
      "name": "CreateTransaction",
      "type": "event"
    },
    {
      "inputs": [
        {
          "internalType": "string",
          "name": "account",
          "type": "string"
        },
        {
          "internalType": "string",
          "name": "passwd",
          "type": "string"
        },
        {
          "internalType": "string",
          "name": "name",
          "type": "string"
        }
      ],
      "name": "createLender",
      "outputs": [],
      "stateMutability": "nonpayable",
      "type": "function"
    },
    {
      "inputs": [
        {
          "internalType": "string",
          "name": "account",
          "type": "string"
        },
        {
          "internalType": "string",
          "name": "passwd",
          "type": "string"
        },
        {
          "internalType": "string",
          "name": "name",
          "type": "string"
        }
      ],
      "name": "createBorrower",
      "outputs": [],
      "stateMutability": "nonpayable",
      "type": "function"
    },
    {
      "inputs": [
        {
          "internalType": "string",
          "name": "passwd",
          "type": "string"
        }
      ],
      "name": "createManager",
      "outputs": [],
      "stateMutability": "nonpayable",
      "type": "function"
    },
    {
      "inputs": [],
      "name": "deleteLender",
      "outputs": [],
      "stateMutability": "nonpayable",
      "type": "function"
    },
    {
      "inputs": [],
      "name": "deleteBorrower",
      "outputs": [],
      "stateMutability": "nonpayable",
      "type": "function"
    },
    {
      "inputs": [],
      "name": "deleteManager",
      "outputs": [],
      "stateMutability": "nonpayable",
      "type": "function"
    },
    {
      "inputs": [],
      "name": "getLenderInfo",
      "outputs": [
        {
          "internalType": "address",
          "name": "",
          "type": "address"
        },
        {
          "internalType": "string",
          "name": "",
          "type": "string"
        },
        {
          "internalType": "string",
          "name": "",
          "type": "string"
        },
        {
          "internalType": "uint256[]",
          "name": "",
          "type": "uint256[]"
        }
      ],
      "stateMutability": "view",
      "type": "function"
    },
    {
      "inputs": [],
      "name": "getBorrowerInfo",
      "outputs": [
        {
          "internalType": "address",
          "name": "",
          "type": "address"
        },
        {
          "internalType": "string",
          "name": "",
          "type": "string"
        },
        {
          "internalType": "string",
          "name": "",
          "type": "string"
        },
        {
          "internalType": "uint256",
          "name": "",
          "type": "uint256"
        },
        {
          "internalType": "uint256",
          "name": "",
          "type": "uint256"
        },
        {
          "internalType": "uint256[]",
          "name": "",
          "type": "uint256[]"
        }
      ],
      "stateMutability": "view",
      "type": "function"
    },
    {
      "inputs": [
        {
          "internalType": "address",
          "name": "borrowerID",
          "type": "address"
        },
        {
          "internalType": "uint256",
          "name": "cashNum",
          "type": "uint256"
        }
      ],
      "name": "createCashFlow",
      "outputs": [
        {
          "internalType": "uint256",
          "name": "",
          "type": "uint256"
        }
      ],
      "stateMutability": "nonpayable",
      "type": "function"
    },
    {
      "inputs": [
        {
          "internalType": "uint256",
          "name": "cashFlowID",
          "type": "uint256"
        },
        {
          "internalType": "address",
          "name": "receiverID",
          "type": "address"
        },
        {
          "internalType": "uint256",
          "name": "cashNum",
          "type": "uint256"
        },
        {
          "internalType": "string",
          "name": "note",
          "type": "string"
        }
      ],
      "name": "createTransaction",
      "outputs": [
        {
          "internalType": "uint256",
          "name": "",
          "type": "uint256"
        }
      ],
      "stateMutability": "nonpayable",
      "type": "function"
    },
    {
      "inputs": [
        {
          "internalType": "string",
          "name": "name",
          "type": "string"
        },
        {
          "internalType": "string",
          "name": "note",
          "type": "string"
        }
      ],
      "name": "createItemFlow",
      "outputs": [
        {
          "internalType": "uint256",
          "name": "",
          "type": "uint256"
        }
      ],
      "stateMutability": "nonpayable",
      "type": "function"
    },
    {
      "inputs": [
        {
          "internalType": "uint256",
          "name": "itemID",
          "type": "uint256"
        },
        {
          "internalType": "string",
          "name": "operation",
          "type": "string"
        }
      ],
      "name": "createProcedure",
      "outputs": [],
      "stateMutability": "nonpayable",
      "type": "function"
    },
    {
      "inputs": [
        {
          "internalType": "uint256",
          "name": "cashflowID",
          "type": "uint256"
        }
      ],
      "name": "checkCashFlow",
      "outputs": [
        {
          "internalType": "uint256",
          "name": "",
          "type": "uint256"
        },
        {
          "internalType": "uint256",
          "name": "",
          "type": "uint256"
        },
        {
          "internalType": "uint256[]",
          "name": "",
          "type": "uint256[]"
        }
      ],
      "stateMutability": "view",
      "type": "function"
    },
    {
      "inputs": [
        {
          "internalType": "uint256",
          "name": "transactionID",
          "type": "uint256"
        }
      ],
      "name": "checkTransaction",
      "outputs": [
        {
          "internalType": "uint256",
          "name": "",
          "type": "uint256"
        },
        {
          "internalType": "address",
          "name": "",
          "type": "address"
        },
        {
          "internalType": "address",
          "name": "",
          "type": "address"
        },
        {
          "internalType": "uint256",
          "name": "",
          "type": "uint256"
        },
        {
          "internalType": "uint256",
          "name": "",
          "type": "uint256"
        },
        {
          "internalType": "uint256",
          "name": "",
          "type": "uint256"
        },
        {
          "internalType": "string",
          "name": "",
          "type": "string"
        },
        {
          "internalType": "uint256",
          "name": "",
          "type": "uint256"
        }
      ],
      "stateMutability": "view",
      "type": "function"
    },
    {
      "inputs": [
        {
          "internalType": "uint256",
          "name": "itemID",
          "type": "uint256"
        }
      ],
      "name": "checkItemFlow",
      "outputs": [
        {
          "internalType": "string",
          "name": "",
          "type": "string"
        },
        {
          "internalType": "address",
          "name": "",
          "type": "address"
        },
        {
          "internalType": "string",
          "name": "",
          "type": "string"
        },
        {
          "internalType": "uint256[]",
          "name": "",
          "type": "uint256[]"
        }
      ],
      "stateMutability": "view",
      "type": "function"
    },
    {
      "inputs": [
        {
          "internalType": "uint256",
          "name": "procedureID",
          "type": "uint256"
        }
      ],
      "name": "checkProcedure",
      "outputs": [
        {
          "internalType": "uint256",
          "name": "",
          "type": "uint256"
        },
        {
          "internalType": "address",
          "name": "",
          "type": "address"
        },
        {
          "internalType": "string",
          "name": "",
          "type": "string"
        },
        {
          "internalType": "uint256",
          "name": "",
          "type": "uint256"
        }
      ],
      "stateMutability": "view",
      "type": "function"
    }
  ],
  "bytecode": "0x60806040526000600755600060085560006009556000600a5534801561002457600080fd5b50613d0b806100346000396000f3fe60806040523480156200001157600080fd5b5060043610620001185760003560e01c80637dda5bc811620000a5578063a6314342116200006f578063a63143421462000325578063a6c1f4c81462000331578063bb70bdaa1462000351578063fa5972bc146200035d5762000118565b80637dda5bc8146200026e578063867498d214620002a45780638ce18a9f14620002dc578063959cf48514620003195762000118565b8063571347fb11620000e7578063571347fb14620001e25780635b14cea41462000209578063757febdb146200022957806377c4d9dd14620002495762000118565b80630e7dce82146200011d578063320a9eb814620001535780634f4fa5e61462000173578063524dcbc114620001ac575b600080fd5b6200013b600480360381019062000135919062001bf0565b62000396565b6040516200014a919062001c92565b60405180910390f35b6200017160048036038101906200016b919062001caf565b620008ae565b005b6200019160048036038101906200018b919062001d68565b62000941565b604051620001a3949392919062001f0c565b60405180910390f35b620001ca6004803603810190620001c4919062001f6e565b62000a0f565b604051620001d9919062001c92565b60405180910390f35b620001ec62000ad4565b604051620002009695949392919062001ff3565b60405180910390f35b62000227600480360381019062000221919062002075565b62000b75565b005b620002476004803603810190620002419190620020db565b62000ce8565b005b6200025362000d75565b6040516200026594939291906200212c565b60405180910390f35b6200028c60048036038101906200028691906200218e565b62000e0d565b6040516200029b919062001c92565b60405180910390f35b620002c26004803603810190620002bc919062001d68565b62001515565b604051620002d393929190620021d5565b60405180910390f35b620002fa6004803603810190620002f4919062001d68565b620015df565b6040516200031098979695949392919062002219565b60405180910390f35b62000323620016bf565b005b6200032f62001749565b005b6200034f600480360381019062000349919062001caf565b620017d3565b005b6200035b62001866565b005b6200037b600480360381019062000375919062001d68565b620018f0565b6040516200038d9493929190620022ae565b60405180910390f35b60008060038681548110620003b057620003af62002302565b5b9060005260206000200160009054906101000a900473ffffffffffffffffffffffffffffffffffffffff1673ffffffffffffffffffffffffffffffffffffffff16631dfe52db6040518163ffffffff1660e01b8152600401602060405180830381865afa15801562000426573d6000803e3d6000fd5b505050506040513d601f19601f820116820180604052508101906200044c919062002348565b90506003868154811062000465576200046462002302565b5b9060005260206000200160009054906101000a900473ffffffffffffffffffffffffffffffffffffffff1673ffffffffffffffffffffffffffffffffffffffff16632e1a7d4d856040518263ffffffff1660e01b8152600401620004ca919062001c92565b6020604051808303816000875af1158015620004ea573d6000803e3d6000fd5b505050506040513d601f19601f82011682018060405250810190620005109190620023b7565b15620008815760006008548733888560038c8154811062000536576200053562002302565b5b9060005260206000200160009054906101000a900473ffffffffffffffffffffffffffffffffffffffff1673ffffffffffffffffffffffffffffffffffffffff16631dfe52db6040518163ffffffff1660e01b8152600401602060405180830381865afa158015620005ac573d6000803e3d6000fd5b505050506040513d601f19601f82011682018060405250810190620005d2919062002348565b8a8a604051620005e290620019be565b620005f5989796959493929190620023e9565b604051809103906000f08015801562000612573d6000803e3d6000fd5b5090506004819080600181540180825580915050600190039060005260206000200160009091909190916101000a81548173ffffffffffffffffffffffffffffffffffffffff021916908373ffffffffffffffffffffffffffffffffffffffff160217905550600860008154809291906200068d90620024ad565b919050555060038781548110620006a957620006a862002302565b5b9060005260206000200160009054906101000a900473ffffffffffffffffffffffffffffffffffffffff1673ffffffffffffffffffffffffffffffffffffffff16637d839d2f8273ffffffffffffffffffffffffffffffffffffffff1663af640d0f6040518163ffffffff1660e01b8152600401602060405180830381865afa1580156200073b573d6000803e3d6000fd5b505050506040513d601f19601f8201168201806040525081019062000761919062002348565b6040518263ffffffff1660e01b81526004016200077f919062001c92565b6020604051808303816000875af11580156200079f573d6000803e3d6000fd5b505050506040513d601f19601f82011682018060405250810190620007c59190620023b7565b507f3d0fdeefab19154dfab2b1e4db1f5b4dbbca0e524c6fe0611f314ca3d49d56cc33878988604051620007fd9493929190620024fa565b60405180910390a18073ffffffffffffffffffffffffffffffffffffffff1663af640d0f6040518163ffffffff1660e01b8152600401602060405180830381865afa15801562000851573d6000803e3d6000fd5b505050506040513d601f19601f8201168201806040525081019062000877919062002348565b92505050620008a6565b7fffffffffffffffffffffffffffffffffffffffffffffffffffffffffffffffff9150505b949350505050565b73__SysFunc_______________________________63e707bc9d60008585856040518563ffffffff1660e01b8152600401620008ee9493929190620025a0565b602060405180830381865af41580156200090c573d6000803e3d6000fd5b505050506040513d601f19601f82011682018060405250810190620009329190620023b7565b6200093c57600080fd5b505050565b60606000606080600585815481106200095f576200095e62002302565b5b9060005260206000200160009054906101000a900473ffffffffffffffffffffffffffffffffffffffff1673ffffffffffffffffffffffffffffffffffffffff166332b5190f6040518163ffffffff1660e01b8152600401600060405180830381865afa158015620009d5573d6000803e3d6000fd5b505050506040513d6000823e3d601f19601f8201168201806040525081019062000a00919062002772565b93509350935093509193509193565b600073__SysFunc_______________________________636fef0506848460095460056040518563ffffffff1660e01b815260040162000a53949392919062002859565b602060405180830381865af415801562000a71573d6000803e3d6000fd5b505050506040513d601f19601f8201168201806040525081019062000a979190620023b7565b62000aa157600080fd5b6009600081548092919062000ab690620024ad565b9190505550600160095462000acc9190620028b4565b905092915050565b6000606080600080606073__SysFunc_______________________________638176f94a60016040518263ffffffff1660e01b815260040162000b189190620028f6565b600060405180830381865af415801562000b36573d6000803e3d6000fd5b505050506040513d6000823e3d601f19601f8201168201806040525081019062000b61919062002913565b955095509550955095509550909192939495565b73__SysFunc_______________________________63b69346f28383600a5460066040518563ffffffff1660e01b815260040162000bb7949392919062002a13565b602060405180830381865af415801562000bd5573d6000803e3d6000fd5b505050506040513d601f19601f8201168201806040525081019062000bfb9190620023b7565b62000c0557600080fd5b6005828154811062000c1c5762000c1b62002302565b5b9060005260206000200160009054906101000a900473ffffffffffffffffffffffffffffffffffffffff1673ffffffffffffffffffffffffffffffffffffffff166332f53032600a546040518263ffffffff1660e01b815260040162000c83919062001c92565b6020604051808303816000875af115801562000ca3573d6000803e3d6000fd5b505050506040513d601f19601f8201168201806040525081019062000cc99190620023b7565b50600a600081548092919062000cdf90620024ad565b91905055505050565b73__SysFunc_______________________________6371a54b726002836040518363ffffffff1660e01b815260040162000d2492919062002a6e565b602060405180830381865af415801562000d42573d6000803e3d6000fd5b505050506040513d601f19601f8201168201806040525081019062000d689190620023b7565b62000d7257600080fd5b50565b6000606080606073__SysFunc_______________________________631efa2e5260006040518263ffffffff1660e01b815260040162000db6919062002aa2565b600060405180830381865af415801562000dd4573d6000803e3d6000fd5b505050506040513d6000823e3d601f19601f8201168201806040525081019062000dff919062002abf565b935093509350935090919293565b6000806007548360405162000e2290620019cc565b62000e2f92919062002b8e565b604051809103906000f08015801562000e4c573d6000803e3d6000fd5b5090506003819080600181540180825580915050600190039060005260206000200160009091909190916101000a81548173ffffffffffffffffffffffffffffffffffffffff021916908373ffffffffffffffffffffffffffffffffffffffff16021790555060005b600080549050811015620011b1573373ffffffffffffffffffffffffffffffffffffffff166000828154811062000ef15762000ef062002302565b5b9060005260206000200160009054906101000a900473ffffffffffffffffffffffffffffffffffffffff1673ffffffffffffffffffffffffffffffffffffffff1663af640d0f6040518163ffffffff1660e01b8152600401602060405180830381865afa15801562000f67573d6000803e3d6000fd5b505050506040513d601f19601f8201168201806040525081019062000f8d919062002bbb565b73ffffffffffffffffffffffffffffffffffffffff161480156200106057506000818154811062000fc35762000fc262002302565b5b9060005260206000200160009054906101000a900473ffffffffffffffffffffffffffffffffffffffff1673ffffffffffffffffffffffffffffffffffffffff1663c19912196040518163ffffffff1660e01b8152600401602060405180830381865afa15801562001039573d6000803e3d6000fd5b505050506040513d601f19601f820116820180604052508101906200105f9190620023b7565b5b156200119b57600081815481106200107d576200107c62002302565b5b9060005260206000200160009054906101000a900473ffffffffffffffffffffffffffffffffffffffff1673ffffffffffffffffffffffffffffffffffffffff1663bb4397b98373ffffffffffffffffffffffffffffffffffffffff1663af640d0f6040518163ffffffff1660e01b8152600401602060405180830381865afa1580156200110f573d6000803e3d6000fd5b505050506040513d601f19601f8201168201806040525081019062001135919062002348565b6040518263ffffffff1660e01b815260040162001153919062001c92565b6020604051808303816000875af115801562001173573d6000803e3d6000fd5b505050506040513d601f19601f82011682018060405250810190620011999190620023b7565b505b8080620011a890620024ad565b91505062000eb5565b5060005b60018054905081101562001442578473ffffffffffffffffffffffffffffffffffffffff1660018281548110620011f157620011f062002302565b5b9060005260206000200160009054906101000a900473ffffffffffffffffffffffffffffffffffffffff1673ffffffffffffffffffffffffffffffffffffffff1663af640d0f6040518163ffffffff1660e01b8152600401602060405180830381865afa15801562001267573d6000803e3d6000fd5b505050506040513d601f19601f820116820180604052508101906200128d919062002bbb565b73ffffffffffffffffffffffffffffffffffffffff1614801562001360575060018181548110620012c357620012c262002302565b5b9060005260206000200160009054906101000a900473ffffffffffffffffffffffffffffffffffffffff1673ffffffffffffffffffffffffffffffffffffffff1663c19912196040518163ffffffff1660e01b8152600401602060405180830381865afa15801562001339573d6000803e3d6000fd5b505050506040513d601f19601f820116820180604052508101906200135f9190620023b7565b5b156200142c57600181815481106200137d576200137c62002302565b5b9060005260206000200160009054906101000a900473ffffffffffffffffffffffffffffffffffffffff1673ffffffffffffffffffffffffffffffffffffffff1663bb4397b96007546040518263ffffffff1660e01b8152600401620013e4919062001c92565b6020604051808303816000875af115801562001404573d6000803e3d6000fd5b505050506040513d601f19601f820116820180604052508101906200142a9190620023b7565b505b80806200143990620024ad565b915050620011b5565b507fcffe861485f9518c73c9172491c2060d969154290328b03c7c91c4902e821bb3338585604051620014789392919062002bed565b60405180910390a1600760008154809291906200149590620024ad565b91905055508073ffffffffffffffffffffffffffffffffffffffff1663af640d0f6040518163ffffffff1660e01b8152600401602060405180830381865afa158015620014e6573d6000803e3d6000fd5b505050506040513d601f19601f820116820180604052508101906200150c919062002348565b91505092915050565b60008060606003848154811062001531576200153062002302565b5b9060005260206000200160009054906101000a900473ffffffffffffffffffffffffffffffffffffffff1673ffffffffffffffffffffffffffffffffffffffff16637ec493956040518163ffffffff1660e01b8152600401600060405180830381865afa158015620015a7573d6000803e3d6000fd5b505050506040513d6000823e3d601f19601f82011682018060405250810190620015d2919062002c2a565b9250925092509193909250565b600080600080600080606060006004898154811062001603576200160262002302565b5b9060005260206000200160009054906101000a900473ffffffffffffffffffffffffffffffffffffffff1673ffffffffffffffffffffffffffffffffffffffff166331b71c936040518163ffffffff1660e01b8152600401600060405180830381865afa15801562001679573d6000803e3d6000fd5b505050506040513d6000823e3d601f19601f82011682018060405250810190620016a4919062002ca5565b97509750975097509750975097509750919395975091939597565b73__SysFunc_______________________________637b5cbaff60016040518263ffffffff1660e01b8152600401620016f99190620028f6565b602060405180830381865af415801562001717573d6000803e3d6000fd5b505050506040513d601f19601f820116820180604052508101906200173d9190620023b7565b6200174757600080fd5b565b73__SysFunc_______________________________635a262c7860026040518263ffffffff1660e01b815260040162001783919062002d8d565b602060405180830381865af4158015620017a1573d6000803e3d6000fd5b505050506040513d601f19601f82011682018060405250810190620017c79190620023b7565b620017d157600080fd5b565b73__SysFunc_______________________________63f70205e160018585856040518563ffffffff1660e01b815260040162001813949392919062002daa565b602060405180830381865af415801562001831573d6000803e3d6000fd5b505050506040513d601f19601f82011682018060405250810190620018579190620023b7565b6200186157600080fd5b505050565b73__SysFunc_______________________________638849b46f60006040518263ffffffff1660e01b8152600401620018a0919062002aa2565b602060405180830381865af4158015620018be573d6000803e3d6000fd5b505050506040513d601f19601f82011682018060405250810190620018e49190620023b7565b620018ee57600080fd5b565b60008060606000600685815481106200190e576200190d62002302565b5b9060005260206000200160009054906101000a900473ffffffffffffffffffffffffffffffffffffffff1673ffffffffffffffffffffffffffffffffffffffff1663c791b35c6040518163ffffffff1660e01b8152600401600060405180830381865afa15801562001984573d6000803e3d6000fd5b505050506040513d6000823e3d601f19601f82011682018060405250810190620019af919062002e0c565b93509350935093509193509193565b61090a8062002e9e83390190565b61052e80620037a883390190565b6000604051905090565b600080fd5b600080fd5b6000819050919050565b62001a0381620019ee565b811462001a0f57600080fd5b50565b60008135905062001a2381620019f8565b92915050565b600073ffffffffffffffffffffffffffffffffffffffff82169050919050565b600062001a568262001a29565b9050919050565b62001a688162001a49565b811462001a7457600080fd5b50565b60008135905062001a888162001a5d565b92915050565b600080fd5b600080fd5b6000601f19601f8301169050919050565b7f4e487b7100000000000000000000000000000000000000000000000000000000600052604160045260246000fd5b62001ae38262001a98565b810181811067ffffffffffffffff8211171562001b055762001b0462001aa9565b5b80604052505050565b600062001b1a620019da565b905062001b28828262001ad8565b919050565b600067ffffffffffffffff82111562001b4b5762001b4a62001aa9565b5b62001b568262001a98565b9050602081019050919050565b82818337600083830152505050565b600062001b8962001b838462001b2d565b62001b0e565b90508281526020810184848401111562001ba85762001ba762001a93565b5b62001bb584828562001b63565b509392505050565b600082601f83011262001bd55762001bd462001a8e565b5b813562001be784826020860162001b72565b91505092915050565b6000806000806080858703121562001c0d5762001c0c620019e4565b5b600062001c1d8782880162001a12565b945050602062001c308782880162001a77565b935050604062001c438782880162001a12565b925050606085013567ffffffffffffffff81111562001c675762001c66620019e9565b5b62001c758782880162001bbd565b91505092959194509250565b62001c8c81620019ee565b82525050565b600060208201905062001ca9600083018462001c81565b92915050565b60008060006060848603121562001ccb5762001cca620019e4565b5b600084013567ffffffffffffffff81111562001cec5762001ceb620019e9565b5b62001cfa8682870162001bbd565b935050602084013567ffffffffffffffff81111562001d1e5762001d1d620019e9565b5b62001d2c8682870162001bbd565b925050604084013567ffffffffffffffff81111562001d505762001d4f620019e9565b5b62001d5e8682870162001bbd565b9150509250925092565b60006020828403121562001d815762001d80620019e4565b5b600062001d918482850162001a12565b91505092915050565b600081519050919050565b600082825260208201905092915050565b60005b8381101562001dd657808201518184015260208101905062001db9565b8381111562001de6576000848401525b50505050565b600062001df98262001d9a565b62001e05818562001da5565b935062001e1781856020860162001db6565b62001e228162001a98565b840191505092915050565b62001e388162001a49565b82525050565b600081519050919050565b600082825260208201905092915050565b6000819050602082019050919050565b62001e7581620019ee565b82525050565b600062001e89838362001e6a565b60208301905092915050565b6000602082019050919050565b600062001eaf8262001e3e565b62001ebb818562001e49565b935062001ec88362001e5a565b8060005b8381101562001eff57815162001ee3888262001e7b565b975062001ef08362001e95565b92505060018101905062001ecc565b5085935050505092915050565b6000608082019050818103600083015262001f28818762001dec565b905062001f39602083018662001e2d565b818103604083015262001f4d818562001dec565b9050818103606083015262001f63818462001ea2565b905095945050505050565b6000806040838503121562001f885762001f87620019e4565b5b600083013567ffffffffffffffff81111562001fa95762001fa8620019e9565b5b62001fb78582860162001bbd565b925050602083013567ffffffffffffffff81111562001fdb5762001fda620019e9565b5b62001fe98582860162001bbd565b9150509250929050565b600060c0820190506200200a600083018962001e2d565b81810360208301526200201e818862001dec565b9050818103604083015262002034818762001dec565b905062002045606083018662001c81565b62002054608083018562001c81565b81810360a083015262002068818462001ea2565b9050979650505050505050565b600080604083850312156200208f576200208e620019e4565b5b60006200209f8582860162001a12565b925050602083013567ffffffffffffffff811115620020c357620020c2620019e9565b5b620020d18582860162001bbd565b9150509250929050565b600060208284031215620020f457620020f3620019e4565b5b600082013567ffffffffffffffff811115620021155762002114620019e9565b5b620021238482850162001bbd565b91505092915050565b600060808201905062002143600083018762001e2d565b818103602083015262002157818662001dec565b905081810360408301526200216d818562001dec565b9050818103606083015262002183818462001ea2565b905095945050505050565b60008060408385031215620021a857620021a7620019e4565b5b6000620021b88582860162001a77565b9250506020620021cb8582860162001a12565b9150509250929050565b6000606082019050620021ec600083018662001c81565b620021fb602083018562001c81565b81810360408301526200220f818462001ea2565b9050949350505050565b60006101008201905062002231600083018b62001c81565b62002240602083018a62001e2d565b6200224f604083018962001e2d565b6200225e606083018862001c81565b6200226d608083018762001c81565b6200227c60a083018662001c81565b81810360c083015262002290818562001dec565b9050620022a160e083018462001c81565b9998505050505050505050565b6000608082019050620022c5600083018762001c81565b620022d4602083018662001e2d565b8181036040830152620022e8818562001dec565b9050620022f9606083018462001c81565b95945050505050565b7f4e487b7100000000000000000000000000000000000000000000000000000000600052603260045260246000fd5b6000815190506200234281620019f8565b92915050565b600060208284031215620023615762002360620019e4565b5b6000620023718482850162002331565b91505092915050565b60008115159050919050565b62002391816200237a565b81146200239d57600080fd5b50565b600081519050620023b18162002386565b92915050565b600060208284031215620023d057620023cf620019e4565b5b6000620023e084828501620023a0565b91505092915050565b60006101008201905062002401600083018b62001c81565b62002410602083018a62001c81565b6200241f604083018962001e2d565b6200242e606083018862001e2d565b6200243d608083018762001c81565b6200244c60a083018662001c81565b6200245b60c083018562001c81565b81810360e08301526200246f818462001dec565b90509998505050505050505050565b7f4e487b7100000000000000000000000000000000000000000000000000000000600052601160045260246000fd5b6000620024ba82620019ee565b91507fffffffffffffffffffffffffffffffffffffffffffffffffffffffffffffffff8203620024ef57620024ee6200247e565b5b600182019050919050565b600060808201905062002511600083018762001e2d565b62002520602083018662001e2d565b6200252f604083018562001c81565b6200253e606083018462001c81565b95945050505050565b8082525050565b600082825260208201905092915050565b60006200256c8262001d9a565b6200257881856200254e565b93506200258a81856020860162001db6565b620025958162001a98565b840191505092915050565b6000608082019050620025b7600083018762002547565b8181036020830152620025cb81866200255f565b90508181036040830152620025e181856200255f565b90508181036060830152620025f781846200255f565b905095945050505050565b600062002619620026138462001b2d565b62001b0e565b90508281526020810184848401111562002638576200263762001a93565b5b6200264584828562001db6565b509392505050565b600082601f83011262002665576200266462001a8e565b5b81516200267784826020860162002602565b91505092915050565b600081519050620026918162001a5d565b92915050565b600067ffffffffffffffff821115620026b557620026b462001aa9565b5b602082029050602081019050919050565b600080fd5b6000620026e2620026dc8462002697565b62001b0e565b90508083825260208201905060208402830185811115620027085762002707620026c6565b5b835b8181101562002735578062002720888262002331565b8452602084019350506020810190506200270a565b5050509392505050565b600082601f83011262002757576200275662001a8e565b5b815162002769848260208601620026cb565b91505092915050565b600080600080608085870312156200278f576200278e620019e4565b5b600085015167ffffffffffffffff811115620027b057620027af620019e9565b5b620027be878288016200264d565b9450506020620027d18782880162002680565b935050604085015167ffffffffffffffff811115620027f557620027f4620019e9565b5b62002803878288016200264d565b925050606085015167ffffffffffffffff811115620028275762002826620019e9565b5b62002835878288016200273f565b91505092959194509250565b6200284c81620019ee565b82525050565b8082525050565b600060808201905081810360008301526200287581876200255f565b905081810360208301526200288b81866200255f565b90506200289c604083018562002841565b620028ab606083018462002852565b95945050505050565b6000620028c182620019ee565b9150620028ce83620019ee565b925082821015620028e457620028e36200247e565b5b828203905092915050565b8082525050565b60006020820190506200290d6000830184620028ef565b92915050565b60008060008060008060c08789031215620029335762002932620019e4565b5b60006200294389828a0162002680565b965050602087015167ffffffffffffffff811115620029675762002966620019e9565b5b6200297589828a016200264d565b955050604087015167ffffffffffffffff811115620029995762002998620019e9565b5b620029a789828a016200264d565b9450506060620029ba89828a0162002331565b9350506080620029cd89828a0162002331565b92505060a087015167ffffffffffffffff811115620029f157620029f0620019e9565b5b620029ff89828a016200273f565b9150509295509295509295565b8082525050565b600060808201905062002a2a600083018762002841565b818103602083015262002a3e81866200255f565b905062002a4f604083018562002841565b62002a5e606083018462002a0c565b95945050505050565b8082525050565b600060408201905062002a85600083018562002a67565b818103602083015262002a9981846200255f565b90509392505050565b600060208201905062002ab9600083018462002547565b92915050565b6000806000806080858703121562002adc5762002adb620019e4565b5b600062002aec8782880162002680565b945050602085015167ffffffffffffffff81111562002b105762002b0f620019e9565b5b62002b1e878288016200264d565b935050604085015167ffffffffffffffff81111562002b425762002b41620019e9565b5b62002b50878288016200264d565b925050606085015167ffffffffffffffff81111562002b745762002b73620019e9565b5b62002b82878288016200273f565b91505092959194509250565b600060408201905062002ba5600083018562001c81565b62002bb4602083018462001c81565b9392505050565b60006020828403121562002bd45762002bd3620019e4565b5b600062002be48482850162002680565b91505092915050565b600060608201905062002c04600083018662001e2d565b62002c13602083018562001e2d565b62002c22604083018462001c81565b949350505050565b60008060006060848603121562002c465762002c45620019e4565b5b600062002c568682870162002331565b935050602062002c698682870162002331565b925050604084015167ffffffffffffffff81111562002c8d5762002c8c620019e9565b5b62002c9b868287016200273f565b9150509250925092565b600080600080600080600080610100898b03121562002cc95762002cc8620019e4565b5b600062002cd98b828c0162002331565b985050602062002cec8b828c0162002680565b975050604062002cff8b828c0162002680565b965050606062002d128b828c0162002331565b955050608062002d258b828c0162002331565b94505060a062002d388b828c0162002331565b93505060c089015167ffffffffffffffff81111562002d5c5762002d5b620019e9565b5b62002d6a8b828c016200264d565b92505060e062002d7d8b828c0162002331565b9150509295985092959890939650565b600060208201905062002da4600083018462002a67565b92915050565b600060808201905062002dc16000830187620028ef565b818103602083015262002dd581866200255f565b9050818103604083015262002deb81856200255f565b9050818103606083015262002e0181846200255f565b905095945050505050565b6000806000806080858703121562002e295762002e28620019e4565b5b600062002e398782880162002331565b945050602062002e4c8782880162002680565b935050604085015167ffffffffffffffff81111562002e705762002e6f620019e9565b5b62002e7e878288016200264d565b925050606062002e918782880162002331565b9150509295919450925056fe60806040523480156200001157600080fd5b506040516200090a3803806200090a8339818101604052810190620000379190620003f7565b876000819055508660018190555085600260006101000a81548173ffffffffffffffffffffffffffffffffffffffff021916908373ffffffffffffffffffffffffffffffffffffffff16021790555084600360006101000a81548173ffffffffffffffffffffffffffffffffffffffff021916908373ffffffffffffffffffffffffffffffffffffffff1602179055508360048190555082600581905550816006819055508060079080519060200190620000f49291906200010a565b5042600881905550505050505050505062000543565b82805462000118906200050e565b90600052602060002090601f0160209004810192826200013c576000855562000188565b82601f106200015757805160ff191683800117855562000188565b8280016001018555821562000188579182015b82811115620001875782518255916020019190600101906200016a565b5b5090506200019791906200019b565b5090565b5b80821115620001b65760008160009055506001016200019c565b5090565b6000604051905090565b600080fd5b600080fd5b6000819050919050565b620001e381620001ce565b8114620001ef57600080fd5b50565b6000815190506200020381620001d8565b92915050565b600073ffffffffffffffffffffffffffffffffffffffff82169050919050565b6000620002368262000209565b9050919050565b620002488162000229565b81146200025457600080fd5b50565b60008151905062000268816200023d565b92915050565b600080fd5b600080fd5b6000601f19601f8301169050919050565b7f4e487b7100000000000000000000000000000000000000000000000000000000600052604160045260246000fd5b620002c38262000278565b810181811067ffffffffffffffff82111715620002e557620002e462000289565b5b80604052505050565b6000620002fa620001ba565b9050620003088282620002b8565b919050565b600067ffffffffffffffff8211156200032b576200032a62000289565b5b620003368262000278565b9050602081019050919050565b60005b838110156200036357808201518184015260208101905062000346565b8381111562000373576000848401525b50505050565b6000620003906200038a846200030d565b620002ee565b905082815260208101848484011115620003af57620003ae62000273565b5b620003bc84828562000343565b509392505050565b600082601f830112620003dc57620003db6200026e565b5b8151620003ee84826020860162000379565b91505092915050565b600080600080600080600080610100898b0312156200041b576200041a620001c4565b5b60006200042b8b828c01620001f2565b98505060206200043e8b828c01620001f2565b9750506040620004518b828c0162000257565b9650506060620004648b828c0162000257565b9550506080620004778b828c01620001f2565b94505060a06200048a8b828c01620001f2565b93505060c06200049d8b828c01620001f2565b92505060e089015167ffffffffffffffff811115620004c157620004c0620001c9565b5b620004cf8b828c01620003c4565b9150509295985092959890939650565b7f4e487b7100000000000000000000000000000000000000000000000000000000600052602260045260246000fd5b600060028204905060018216806200052757607f821691505b6020821081036200053d576200053c620004df565b5b50919050565b6103b780620005536000396000f3fe608060405234801561001057600080fd5b50600436106100365760003560e01c806331b71c931461003b578063af640d0f14610060575b600080fd5b61004361007e565b604051610057989796959493929190610281565b60405180910390f35b610068610188565b6040516100759190610306565b60405180910390f35b60008060008060008060606000600154600260009054906101000a900473ffffffffffffffffffffffffffffffffffffffff16600360009054906101000a900473ffffffffffffffffffffffffffffffffffffffff1660045460055460065460076008548180546100ee90610350565b80601f016020809104026020016040519081016040528092919081815260200182805461011a90610350565b80156101675780601f1061013c57610100808354040283529160200191610167565b820191906000526020600020905b81548152906001019060200180831161014a57829003601f168201915b50505050509150975097509750975097509750975097509091929394959697565b60005481565b6000819050919050565b6101a18161018e565b82525050565b600073ffffffffffffffffffffffffffffffffffffffff82169050919050565b60006101d2826101a7565b9050919050565b6101e2816101c7565b82525050565b600081519050919050565b600082825260208201905092915050565b60005b83811015610222578082015181840152602081019050610207565b83811115610231576000848401525b50505050565b6000601f19601f8301169050919050565b6000610253826101e8565b61025d81856101f3565b935061026d818560208601610204565b61027681610237565b840191505092915050565b600061010082019050610297600083018b610198565b6102a4602083018a6101d9565b6102b160408301896101d9565b6102be6060830188610198565b6102cb6080830187610198565b6102d860a0830186610198565b81810360c08301526102ea8185610248565b90506102f960e0830184610198565b9998505050505050505050565b600060208201905061031b6000830184610198565b92915050565b7f4e487b7100000000000000000000000000000000000000000000000000000000600052602260045260246000fd5b6000600282049050600182168061036857607f821691505b60208210810361037b5761037a610321565b5b5091905056fea26469706673582212204354d1382110baf73b07761e1b9dfe0dce04fb632af4335d9dddb6e71af0481464736f6c634300080d0033608060405234801561001057600080fd5b5060405161052e38038061052e83398181016040528101906100329190610089565b81600081905550806001819055508060028190555050506100c9565b600080fd5b6000819050919050565b61006681610053565b811461007157600080fd5b50565b6000815190506100838161005d565b92915050565b600080604083850312156100a05761009f61004e565b5b60006100ae85828601610074565b92505060206100bf85828601610074565b9150509250929050565b610456806100d86000396000f3fe608060405234801561001057600080fd5b50600436106100575760003560e01c80631dfe52db1461005c5780632e1a7d4d1461007a5780637d839d2f146100aa5780637ec49395146100da578063af640d0f146100fa575b600080fd5b610064610118565b6040516100719190610212565b60405180910390f35b610094600480360381019061008f919061025e565b61011e565b6040516100a191906102a6565b60405180910390f35b6100c460048036038101906100bf919061025e565b610155565b6040516100d191906102a6565b60405180910390f35b6100e2610189565b6040516100f19392919061037f565b60405180910390f35b6101026101f3565b60405161010f9190610212565b60405180910390f35b60025481565b6000816002541061014b57816002600082825461013b91906103ec565b9250508190555060019050610150565b600090505b919050565b6000600382908060018154018082558091505060019003906000526020600020016000909190919091505560019050919050565b60008060606001546002546003808054806020026020016040519081016040528092919081815260200182805480156101e157602002820191906000526020600020905b8154815260200190600101908083116101cd575b50505050509050925092509250909192565b60005481565b6000819050919050565b61020c816101f9565b82525050565b60006020820190506102276000830184610203565b92915050565b600080fd5b61023b816101f9565b811461024657600080fd5b50565b60008135905061025881610232565b92915050565b6000602082840312156102745761027361022d565b5b600061028284828501610249565b91505092915050565b60008115159050919050565b6102a08161028b565b82525050565b60006020820190506102bb6000830184610297565b92915050565b600081519050919050565b600082825260208201905092915050565b6000819050602082019050919050565b6102f6816101f9565b82525050565b600061030883836102ed565b60208301905092915050565b6000602082019050919050565b600061032c826102c1565b61033681856102cc565b9350610341836102dd565b8060005b8381101561037257815161035988826102fc565b975061036483610314565b925050600181019050610345565b5085935050505092915050565b60006060820190506103946000830186610203565b6103a16020830185610203565b81810360408301526103b38184610321565b9050949350505050565b7f4e487b7100000000000000000000000000000000000000000000000000000000600052601160045260246000fd5b60006103f7826101f9565b9150610402836101f9565b925082821015610415576104146103bd565b5b82820390509291505056fea26469706673582212200cd2f955d31b2b130f45d3b451c360cfdc422ff2cd847efe1320f261db24e1f664736f6c634300080d0033a2646970667358221220b13728cc535b22ad3aa7d00e172ce5914d5ddb2b11ca4dfe4ed9b7aa7b0d76b664736f6c634300080d0033",
  "immutableReferences": {},
  "source": "// SPDX-License-Identifier: SimPL-2.0\r\npragma solidity ^0.8.7;\r\n\r\nimport \"./Lender.sol\";\r\nimport \"./Borrower.sol\";\r\nimport \"./Manager.sol\";\r\nimport \"./CashFlow.sol\";\r\nimport \"./Transaction.sol\";\r\nimport \"./ItemFlow.sol\";\r\nimport \"./Procedure.sol\";\r\nimport \"./SysFunc.sol\";\r\n\r\ncontract LoanSystem {\r\n    //\r\n\r\n    event CreateCashFlow(address from, address to, uint256 amount);\r\n    event CreateTransaction(\r\n        address from,\r\n        address to,\r\n        uint256 cashFlowID,\r\n        uint256 amount\r\n    );\r\n\r\n    Lender[] lenders;\r\n    Borrower[] borrowers;\r\n    Manager[] managers;\r\n    CashFlow[] cashFlows;\r\n    Transaction[] transactions;\r\n    ItemFlow[] itemflows;\r\n    Procedure[] procedures;\r\n\r\n    uint256 cashFlowCount = 0; //ID\r\n    uint256 TransactionCount = 0; //ID\r\n    uint256 itemFlowCount = 0; //ID\r\n    uint256 procedureCount = 0; //ID\r\n\r\n    function createLender(\r\n        string memory account,\r\n        string memory passwd,\r\n        string memory name\r\n    ) public {\r\n        //\r\n        require(SysFunc.createLender(lenders, account, passwd, name));\r\n    }\r\n\r\n    function createBorrower(\r\n        string memory account,\r\n        string memory passwd,\r\n        string memory name\r\n    ) public {\r\n        //\r\n        require(SysFunc.createBorrower(borrowers, account, passwd, name));\r\n    }\r\n\r\n    function createManager(string memory passwd) public {\r\n        //\r\n        require(SysFunc.createManager(managers, passwd));\r\n    }\r\n\r\n    function deleteLender() public {\r\n        //\r\n        require(SysFunc.deleteLender(lenders));\r\n    }\r\n\r\n    function deleteBorrower() public {\r\n        //\r\n        require(SysFunc.deleteBorrower(borrowers));\r\n    }\r\n\r\n    function deleteManager() public {\r\n        //\r\n        require(SysFunc.deleteManager(managers));\r\n    }\r\n\r\n    function getLenderInfo()\r\n        public\r\n        view\r\n        returns (\r\n            address,\r\n            string memory,\r\n            string memory,\r\n            uint256[] memory\r\n        )\r\n    {\r\n        //()\r\n        return SysFunc.getLenderInfo(lenders);\r\n    }\r\n\r\n    function getBorrowerInfo()\r\n        public\r\n        view\r\n        returns (\r\n            address,\r\n            string memory,\r\n            string memory,\r\n            uint256,\r\n            uint256,\r\n            uint256[] memory\r\n        )\r\n    {\r\n        //()\r\n        return SysFunc.getBorrowerInfo(borrowers);\r\n    }\r\n\r\n    function createCashFlow(address borrowerID, uint256 cashNum)\r\n        public\r\n        returns (uint256)\r\n    {\r\n        //\r\n        CashFlow cashflow = new CashFlow(cashFlowCount, cashNum);\r\n        cashFlows.push(cashflow);\r\n        for (uint256 i = 0; i < lenders.length; i++) {\r\n            if (lenders[i].id() == msg.sender && lenders[i].valid())\r\n                lenders[i].attachCashFlow(cashflow.id());\r\n        }\r\n        for (uint256 i = 0; i < borrowers.length; i++) {\r\n            if (borrowers[i].id() == borrowerID && borrowers[i].valid())\r\n                borrowers[i].attachCashFlow(cashFlowCount);\r\n        }\r\n        emit CreateCashFlow(msg.sender, borrowerID, cashNum);\r\n        cashFlowCount++;\r\n        return cashflow.id();\r\n    }\r\n\r\n    function createTransaction(\r\n        uint256 cashFlowID,\r\n        address receiverID,\r\n        uint256 cashNum,\r\n        string memory note\r\n    ) public returns (uint256) {\r\n        //\r\n        uint256 prevCash = cashFlows[cashFlowID].currBalance();\r\n        if (cashFlows[cashFlowID].withdraw(cashNum)) {\r\n            Transaction transaction = new Transaction(\r\n                TransactionCount,\r\n                cashFlowID,\r\n                msg.sender,\r\n                receiverID,\r\n                prevCash,\r\n                cashFlows[cashFlowID].currBalance(),\r\n                cashNum,\r\n                note\r\n            );\r\n            transactions.push(transaction);\r\n            TransactionCount++;\r\n            cashFlows[cashFlowID].attachTransaction(transaction.id());\r\n            emit CreateTransaction(msg.sender, receiverID, cashFlowID, cashNum);\r\n            return transaction.id();\r\n        } else return type(uint256).max;\r\n    }\r\n\r\n    function createItemFlow(string memory name, string memory note)\r\n        public\r\n        returns (uint256)\r\n    {\r\n        //\r\n        require(SysFunc.createItemFlow(name, note, itemFlowCount, itemflows));\r\n        itemFlowCount++;\r\n        return itemFlowCount - 1;\r\n    }\r\n\r\n    function createProcedure(uint256 itemID, string memory operation) public {\r\n        //\r\n        require(\r\n            SysFunc.createProcedure(\r\n                itemID,\r\n                operation,\r\n                procedureCount,\r\n                procedures\r\n            )\r\n        );\r\n        itemflows[itemID].attachProcedure(procedureCount);\r\n        procedureCount++;\r\n    }\r\n\r\n    function checkCashFlow(uint256 cashflowID)\r\n        public\r\n        view\r\n        returns (\r\n            uint256,\r\n            uint256,\r\n            uint256[] memory\r\n        )\r\n    {\r\n        //\r\n        return cashFlows[cashflowID].checkCashFlow();\r\n    }\r\n\r\n    function checkTransaction(uint256 transactionID)\r\n        public\r\n        view\r\n        returns (\r\n            uint256,\r\n            address,\r\n            address,\r\n            uint256,\r\n            uint256,\r\n            uint256,\r\n            string memory,\r\n            uint256\r\n        )\r\n    {\r\n        //\r\n        return transactions[transactionID].checkTransaction();\r\n    }\r\n\r\n    function checkItemFlow(uint256 itemID)\r\n        public\r\n        view\r\n        returns (\r\n            string memory,\r\n            address,\r\n            string memory,\r\n            uint256[] memory\r\n        )\r\n    {\r\n        return itemflows[itemID].checkItemFlow();\r\n    }\r\n\r\n    function checkProcedure(uint256 procedureID)\r\n        public\r\n        view\r\n        returns (\r\n            uint256,\r\n            address,\r\n            string memory,\r\n            uint256\r\n        )\r\n    {\r\n        return procedures[procedureID].checkProcedure();\r\n    }\r\n}\r\n",
  "sourcePath": "/home/syj/Desktop/LoanSystem/contracts/LoanSystem.sol",
  "compiler": {
    "name": "solc",
    "version": "0.8.13+commit.abaa5c0e.Emscripten.clang"
  },
  "schemaVersion": "3.4.4",
  "updatedAt": "2022-04-25T08:14:58.272Z",
  "devdoc": {
    "kind": "dev",
    "methods": {},
    "version": 1
  },
  "userdoc": {
    "kind": "user",
    "methods": {},
    "version": 1
  }
}