{
  "contractName": "LoanSystem",
  "abi": [
    {
      "anonymous": false,
      "inputs": [
        {
          "indexed": false,
          "internalType": "address",
          "name": "from",
          "type": "address"
        },
        {
          "indexed": false,
          "internalType": "address",
          "name": "to",
          "type": "address"
        },
        {
          "indexed": false,
          "internalType": "uint256",
          "name": "amount",
          "type": "uint256"
        }
      ],
      "name": "CreateCashFlow",
      "type": "event"
    },
    {
      "anonymous": false,
      "inputs": [
        {
          "indexed": false,
          "internalType": "address",
          "name": "from",
          "type": "address"
        },
        {
          "indexed": false,
          "internalType": "address",
          "name": "to",
          "type": "address"
        },
        {
          "indexed": false,
          "internalType": "uint256",
          "name": "cashFlowID",
          "type": "uint256"
        },
        {
          "indexed": false,
          "internalType": "uint256",
          "name": "amount",
          "type": "uint256"
        }
      ],
      "name": "CreateTransaction",
      "type": "event"
    },
    {
      "inputs": [
        {
          "internalType": "string",
          "name": "account",
          "type": "string"
        },
        {
          "internalType": "string",
          "name": "passwd",
          "type": "string"
        },
        {
          "internalType": "string",
          "name": "name",
          "type": "string"
        }
      ],
      "name": "createLender",
      "outputs": [],
      "stateMutability": "nonpayable",
      "type": "function"
    },
    {
      "inputs": [
        {
          "internalType": "string",
          "name": "account",
          "type": "string"
        },
        {
          "internalType": "string",
          "name": "passwd",
          "type": "string"
        },
        {
          "internalType": "string",
          "name": "name",
          "type": "string"
        }
      ],
      "name": "createBorrower",
      "outputs": [],
      "stateMutability": "nonpayable",
      "type": "function"
    },
    {
      "inputs": [
        {
          "internalType": "string",
          "name": "passwd",
          "type": "string"
        }
      ],
      "name": "createManager",
      "outputs": [],
      "stateMutability": "nonpayable",
      "type": "function"
    },
    {
      "inputs": [],
      "name": "deleteLender",
      "outputs": [],
      "stateMutability": "nonpayable",
      "type": "function"
    },
    {
      "inputs": [],
      "name": "deleteBorrower",
      "outputs": [],
      "stateMutability": "nonpayable",
      "type": "function"
    },
    {
      "inputs": [],
      "name": "deleteManager",
      "outputs": [],
      "stateMutability": "nonpayable",
      "type": "function"
    },
    {
      "inputs": [],
      "name": "getLenderInfo",
      "outputs": [
        {
          "internalType": "address",
          "name": "",
          "type": "address"
        },
        {
          "internalType": "string",
          "name": "",
          "type": "string"
        },
        {
          "internalType": "string",
          "name": "",
          "type": "string"
        },
        {
          "internalType": "uint256[]",
          "name": "",
          "type": "uint256[]"
        }
      ],
      "stateMutability": "view",
      "type": "function",
      "constant": true
    },
    {
      "inputs": [],
      "name": "getBorrowerInfo",
      "outputs": [
        {
          "internalType": "address",
          "name": "",
          "type": "address"
        },
        {
          "internalType": "string",
          "name": "",
          "type": "string"
        },
        {
          "internalType": "string",
          "name": "",
          "type": "string"
        },
        {
          "internalType": "uint256",
          "name": "",
          "type": "uint256"
        },
        {
          "internalType": "uint256",
          "name": "",
          "type": "uint256"
        },
        {
          "internalType": "uint256[]",
          "name": "",
          "type": "uint256[]"
        }
      ],
      "stateMutability": "view",
      "type": "function",
      "constant": true
    },
    {
      "inputs": [
        {
          "internalType": "address",
          "name": "borrowerID",
          "type": "address"
        },
        {
          "internalType": "uint256",
          "name": "cashNum",
          "type": "uint256"
        }
      ],
      "name": "createCashFlow",
      "outputs": [
        {
          "internalType": "uint256",
          "name": "",
          "type": "uint256"
        }
      ],
      "stateMutability": "nonpayable",
      "type": "function"
    },
    {
      "inputs": [
        {
          "internalType": "uint256",
          "name": "cashFlowID",
          "type": "uint256"
        },
        {
          "internalType": "address",
          "name": "receiverID",
          "type": "address"
        },
        {
          "internalType": "uint256",
          "name": "cashNum",
          "type": "uint256"
        },
        {
          "internalType": "string",
          "name": "note",
          "type": "string"
        }
      ],
      "name": "createTransaction",
      "outputs": [
        {
          "internalType": "uint256",
          "name": "",
          "type": "uint256"
        }
      ],
      "stateMutability": "nonpayable",
      "type": "function"
    },
    {
      "inputs": [
        {
          "internalType": "uint256",
          "name": "cashflowID",
          "type": "uint256"
        }
      ],
      "name": "checkCashFlow",
      "outputs": [
        {
          "internalType": "uint256",
          "name": "",
          "type": "uint256"
        },
        {
          "internalType": "uint256",
          "name": "",
          "type": "uint256"
        },
        {
          "internalType": "uint256[]",
          "name": "",
          "type": "uint256[]"
        }
      ],
      "stateMutability": "view",
      "type": "function",
      "constant": true
    },
    {
      "inputs": [
        {
          "internalType": "uint256",
          "name": "transactionID",
          "type": "uint256"
        }
      ],
      "name": "checkTransaction",
      "outputs": [
        {
          "internalType": "uint256",
          "name": "",
          "type": "uint256"
        },
        {
          "internalType": "address",
          "name": "",
          "type": "address"
        },
        {
          "internalType": "address",
          "name": "",
          "type": "address"
        },
        {
          "internalType": "uint256",
          "name": "",
          "type": "uint256"
        },
        {
          "internalType": "uint256",
          "name": "",
          "type": "uint256"
        },
        {
          "internalType": "uint256",
          "name": "",
          "type": "uint256"
        },
        {
          "internalType": "string",
          "name": "",
          "type": "string"
        },
        {
          "internalType": "uint256",
          "name": "",
          "type": "uint256"
        }
      ],
      "stateMutability": "view",
      "type": "function",
      "constant": true
    }
  ],
  "bytecode": "0x60806040526000600555600060065534801561001a57600080fd5b506134118061002a6000396000f3fe60806040523480156200001157600080fd5b5060043610620000c45760003560e01c8063867498d2116200007b578063867498d214620001c15780638ce18a9f14620001f9578063959cf4851462000236578063a63143421462000242578063a6c1f4c8146200024e578063bb70bdaa146200026e57620000c4565b80630e7dce8214620000c9578063320a9eb814620000ff578063571347fb146200011f578063757febdb146200014657806377c4d9dd14620001665780637dda5bc8146200018b575b600080fd5b620000e76004803603810190620000e1919062001700565b6200027a565b604051620000f69190620017a2565b60405180910390f35b6200011d6004803603810190620001179190620017bf565b62000792565b005b6200012962000825565b6040516200013d96959493929190620019ea565b60405180910390f35b6200016460048036038101906200015e919062001a6c565b620008c6565b005b6200017062000953565b60405162000182949392919062001abd565b60405180910390f35b620001a96004803603810190620001a3919062001b1f565b620009eb565b604051620001b89190620017a2565b60405180910390f35b620001df6004803603810190620001d9919062001b66565b620010f3565b604051620001f09392919062001b98565b60405180910390f35b62000217600480360381019062000211919062001b66565b620011bd565b6040516200022d98979695949392919062001bdc565b60405180910390f35b620002406200129d565b005b6200024c62001327565b005b6200026c6004803603810190620002669190620017bf565b620013b1565b005b6200027862001444565b005b6000806003868154811062000294576200029362001c71565b5b9060005260206000200160009054906101000a900473ffffffffffffffffffffffffffffffffffffffff1673ffffffffffffffffffffffffffffffffffffffff16631dfe52db6040518163ffffffff1660e01b8152600401602060405180830381865afa1580156200030a573d6000803e3d6000fd5b505050506040513d601f19601f8201168201806040525081019062000330919062001cb7565b90506003868154811062000349576200034862001c71565b5b9060005260206000200160009054906101000a900473ffffffffffffffffffffffffffffffffffffffff1673ffffffffffffffffffffffffffffffffffffffff16632e1a7d4d856040518263ffffffff1660e01b8152600401620003ae9190620017a2565b6020604051808303816000875af1158015620003ce573d6000803e3d6000fd5b505050506040513d601f19601f82011682018060405250810190620003f4919062001d26565b15620007655760006006548733888560038c815481106200041a576200041962001c71565b5b9060005260206000200160009054906101000a900473ffffffffffffffffffffffffffffffffffffffff1673ffffffffffffffffffffffffffffffffffffffff16631dfe52db6040518163ffffffff1660e01b8152600401602060405180830381865afa15801562000490573d6000803e3d6000fd5b505050506040513d601f19601f82011682018060405250810190620004b6919062001cb7565b8a8a604051620004c690620014ce565b620004d998979695949392919062001d58565b604051809103906000f080158015620004f6573d6000803e3d6000fd5b5090506004819080600181540180825580915050600190039060005260206000200160009091909190916101000a81548173ffffffffffffffffffffffffffffffffffffffff021916908373ffffffffffffffffffffffffffffffffffffffff16021790555060066000815480929190620005719062001e1c565b9190505550600387815481106200058d576200058c62001c71565b5b9060005260206000200160009054906101000a900473ffffffffffffffffffffffffffffffffffffffff1673ffffffffffffffffffffffffffffffffffffffff16637d839d2f8273ffffffffffffffffffffffffffffffffffffffff1663af640d0f6040518163ffffffff1660e01b8152600401602060405180830381865afa1580156200061f573d6000803e3d6000fd5b505050506040513d601f19601f8201168201806040525081019062000645919062001cb7565b6040518263ffffffff1660e01b8152600401620006639190620017a2565b6020604051808303816000875af115801562000683573d6000803e3d6000fd5b505050506040513d601f19601f82011682018060405250810190620006a9919062001d26565b507f3d0fdeefab19154dfab2b1e4db1f5b4dbbca0e524c6fe0611f314ca3d49d56cc33878988604051620006e1949392919062001e69565b60405180910390a18073ffffffffffffffffffffffffffffffffffffffff1663af640d0f6040518163ffffffff1660e01b8152600401602060405180830381865afa15801562000735573d6000803e3d6000fd5b505050506040513d601f19601f820116820180604052508101906200075b919062001cb7565b925050506200078a565b7fffffffffffffffffffffffffffffffffffffffffffffffffffffffffffffffff9150505b949350505050565b73__SysFunc_______________________________63e707bc9d60008585856040518563ffffffff1660e01b8152600401620007d2949392919062001f0f565b602060405180830381865af4158015620007f0573d6000803e3d6000fd5b505050506040513d601f19601f8201168201806040525081019062000816919062001d26565b6200082057600080fd5b505050565b6000606080600080606073__SysFunc_______________________________638176f94a60016040518263ffffffff1660e01b815260040162000869919062001f78565b600060405180830381865af415801562000887573d6000803e3d6000fd5b505050506040513d6000823e3d601f19601f82011682018060405250810190620008b2919062002105565b955095509550955095509550909192939495565b73__SysFunc_______________________________6371a54b726002836040518363ffffffff1660e01b81526004016200090292919062002205565b602060405180830381865af415801562000920573d6000803e3d6000fd5b505050506040513d601f19601f8201168201806040525081019062000946919062001d26565b6200095057600080fd5b50565b6000606080606073__SysFunc_______________________________631efa2e5260006040518263ffffffff1660e01b815260040162000994919062002239565b600060405180830381865af4158015620009b2573d6000803e3d6000fd5b505050506040513d6000823e3d601f19601f82011682018060405250810190620009dd919062002256565b935093509350935090919293565b6000806005548360405162000a0090620014dc565b62000a0d92919062002325565b604051809103906000f08015801562000a2a573d6000803e3d6000fd5b5090506003819080600181540180825580915050600190039060005260206000200160009091909190916101000a81548173ffffffffffffffffffffffffffffffffffffffff021916908373ffffffffffffffffffffffffffffffffffffffff16021790555060005b60008054905081101562000d8f573373ffffffffffffffffffffffffffffffffffffffff166000828154811062000acf5762000ace62001c71565b5b9060005260206000200160009054906101000a900473ffffffffffffffffffffffffffffffffffffffff1673ffffffffffffffffffffffffffffffffffffffff1663af640d0f6040518163ffffffff1660e01b8152600401602060405180830381865afa15801562000b45573d6000803e3d6000fd5b505050506040513d601f19601f8201168201806040525081019062000b6b919062002352565b73ffffffffffffffffffffffffffffffffffffffff1614801562000c3e57506000818154811062000ba15762000ba062001c71565b5b9060005260206000200160009054906101000a900473ffffffffffffffffffffffffffffffffffffffff1673ffffffffffffffffffffffffffffffffffffffff1663c19912196040518163ffffffff1660e01b8152600401602060405180830381865afa15801562000c17573d6000803e3d6000fd5b505050506040513d601f19601f8201168201806040525081019062000c3d919062001d26565b5b1562000d79576000818154811062000c5b5762000c5a62001c71565b5b9060005260206000200160009054906101000a900473ffffffffffffffffffffffffffffffffffffffff1673ffffffffffffffffffffffffffffffffffffffff1663bb4397b98373ffffffffffffffffffffffffffffffffffffffff1663af640d0f6040518163ffffffff1660e01b8152600401602060405180830381865afa15801562000ced573d6000803e3d6000fd5b505050506040513d601f19601f8201168201806040525081019062000d13919062001cb7565b6040518263ffffffff1660e01b815260040162000d319190620017a2565b6020604051808303816000875af115801562000d51573d6000803e3d6000fd5b505050506040513d601f19601f8201168201806040525081019062000d77919062001d26565b505b808062000d869062001e1c565b91505062000a93565b5060005b60018054905081101562001020578473ffffffffffffffffffffffffffffffffffffffff166001828154811062000dcf5762000dce62001c71565b5b9060005260206000200160009054906101000a900473ffffffffffffffffffffffffffffffffffffffff1673ffffffffffffffffffffffffffffffffffffffff1663af640d0f6040518163ffffffff1660e01b8152600401602060405180830381865afa15801562000e45573d6000803e3d6000fd5b505050506040513d601f19601f8201168201806040525081019062000e6b919062002352565b73ffffffffffffffffffffffffffffffffffffffff1614801562000f3e57506001818154811062000ea15762000ea062001c71565b5b9060005260206000200160009054906101000a900473ffffffffffffffffffffffffffffffffffffffff1673ffffffffffffffffffffffffffffffffffffffff1663c19912196040518163ffffffff1660e01b8152600401602060405180830381865afa15801562000f17573d6000803e3d6000fd5b505050506040513d601f19601f8201168201806040525081019062000f3d919062001d26565b5b156200100a576001818154811062000f5b5762000f5a62001c71565b5b9060005260206000200160009054906101000a900473ffffffffffffffffffffffffffffffffffffffff1673ffffffffffffffffffffffffffffffffffffffff1663bb4397b96005546040518263ffffffff1660e01b815260040162000fc29190620017a2565b6020604051808303816000875af115801562000fe2573d6000803e3d6000fd5b505050506040513d601f19601f8201168201806040525081019062001008919062001d26565b505b8080620010179062001e1c565b91505062000d93565b507fcffe861485f9518c73c9172491c2060d969154290328b03c7c91c4902e821bb3338585604051620010569392919062002384565b60405180910390a160056000815480929190620010739062001e1c565b91905055508073ffffffffffffffffffffffffffffffffffffffff1663af640d0f6040518163ffffffff1660e01b8152600401602060405180830381865afa158015620010c4573d6000803e3d6000fd5b505050506040513d601f19601f82011682018060405250810190620010ea919062001cb7565b91505092915050565b6000806060600384815481106200110f576200110e62001c71565b5b9060005260206000200160009054906101000a900473ffffffffffffffffffffffffffffffffffffffff1673ffffffffffffffffffffffffffffffffffffffff16637ec493956040518163ffffffff1660e01b8152600401600060405180830381865afa15801562001185573d6000803e3d6000fd5b505050506040513d6000823e3d601f19601f82011682018060405250810190620011b09190620023c1565b9250925092509193909250565b6000806000806000806060600060048981548110620011e157620011e062001c71565b5b9060005260206000200160009054906101000a900473ffffffffffffffffffffffffffffffffffffffff1673ffffffffffffffffffffffffffffffffffffffff166331b71c936040518163ffffffff1660e01b8152600401600060405180830381865afa15801562001257573d6000803e3d6000fd5b505050506040513d6000823e3d601f19601f820116820180604052508101906200128291906200243c565b97509750975097509750975097509750919395975091939597565b73__SysFunc_______________________________637b5cbaff60016040518263ffffffff1660e01b8152600401620012d7919062001f78565b602060405180830381865af4158015620012f5573d6000803e3d6000fd5b505050506040513d601f19601f820116820180604052508101906200131b919062001d26565b6200132557600080fd5b565b73__SysFunc_______________________________635a262c7860026040518263ffffffff1660e01b815260040162001361919062002524565b602060405180830381865af41580156200137f573d6000803e3d6000fd5b505050506040513d601f19601f82011682018060405250810190620013a5919062001d26565b620013af57600080fd5b565b73__SysFunc_______________________________63f70205e160018585856040518563ffffffff1660e01b8152600401620013f1949392919062002541565b602060405180830381865af41580156200140f573d6000803e3d6000fd5b505050506040513d601f19601f8201168201806040525081019062001435919062001d26565b6200143f57600080fd5b505050565b73__SysFunc_______________________________638849b46f60006040518263ffffffff1660e01b81526004016200147e919062002239565b602060405180830381865af41580156200149c573d6000803e3d6000fd5b505050506040513d601f19601f82011682018060405250810190620014c2919062001d26565b620014cc57600080fd5b565b61090a80620025a483390190565b61052e8062002eae83390190565b6000604051905090565b600080fd5b600080fd5b6000819050919050565b6200151381620014fe565b81146200151f57600080fd5b50565b600081359050620015338162001508565b92915050565b600073ffffffffffffffffffffffffffffffffffffffff82169050919050565b6000620015668262001539565b9050919050565b620015788162001559565b81146200158457600080fd5b50565b60008135905062001598816200156d565b92915050565b600080fd5b600080fd5b6000601f19601f8301169050919050565b7f4e487b7100000000000000000000000000000000000000000000000000000000600052604160045260246000fd5b620015f382620015a8565b810181811067ffffffffffffffff82111715620016155762001614620015b9565b5b80604052505050565b60006200162a620014ea565b9050620016388282620015e8565b919050565b600067ffffffffffffffff8211156200165b576200165a620015b9565b5b6200166682620015a8565b9050602081019050919050565b82818337600083830152505050565b60006200169962001693846200163d565b6200161e565b905082815260208101848484011115620016b857620016b7620015a3565b5b620016c584828562001673565b509392505050565b600082601f830112620016e557620016e46200159e565b5b8135620016f784826020860162001682565b91505092915050565b600080600080608085870312156200171d576200171c620014f4565b5b60006200172d8782880162001522565b9450506020620017408782880162001587565b9350506040620017538782880162001522565b925050606085013567ffffffffffffffff811115620017775762001776620014f9565b5b6200178587828801620016cd565b91505092959194509250565b6200179c81620014fe565b82525050565b6000602082019050620017b9600083018462001791565b92915050565b600080600060608486031215620017db57620017da620014f4565b5b600084013567ffffffffffffffff811115620017fc57620017fb620014f9565b5b6200180a86828701620016cd565b935050602084013567ffffffffffffffff8111156200182e576200182d620014f9565b5b6200183c86828701620016cd565b925050604084013567ffffffffffffffff81111562001860576200185f620014f9565b5b6200186e86828701620016cd565b9150509250925092565b620018838162001559565b82525050565b600081519050919050565b600082825260208201905092915050565b60005b83811015620018c5578082015181840152602081019050620018a8565b83811115620018d5576000848401525b50505050565b6000620018e88262001889565b620018f4818562001894565b935062001906818560208601620018a5565b6200191181620015a8565b840191505092915050565b600081519050919050565b600082825260208201905092915050565b6000819050602082019050919050565b6200195381620014fe565b82525050565b600062001967838362001948565b60208301905092915050565b6000602082019050919050565b60006200198d826200191c565b62001999818562001927565b9350620019a68362001938565b8060005b83811015620019dd578151620019c1888262001959565b9750620019ce8362001973565b925050600181019050620019aa565b5085935050505092915050565b600060c08201905062001a01600083018962001878565b818103602083015262001a158188620018db565b9050818103604083015262001a2b8187620018db565b905062001a3c606083018662001791565b62001a4b608083018562001791565b81810360a083015262001a5f818462001980565b9050979650505050505050565b60006020828403121562001a855762001a84620014f4565b5b600082013567ffffffffffffffff81111562001aa65762001aa5620014f9565b5b62001ab484828501620016cd565b91505092915050565b600060808201905062001ad4600083018762001878565b818103602083015262001ae88186620018db565b9050818103604083015262001afe8185620018db565b9050818103606083015262001b14818462001980565b905095945050505050565b6000806040838503121562001b395762001b38620014f4565b5b600062001b498582860162001587565b925050602062001b5c8582860162001522565b9150509250929050565b60006020828403121562001b7f5762001b7e620014f4565b5b600062001b8f8482850162001522565b91505092915050565b600060608201905062001baf600083018662001791565b62001bbe602083018562001791565b818103604083015262001bd2818462001980565b9050949350505050565b60006101008201905062001bf4600083018b62001791565b62001c03602083018a62001878565b62001c12604083018962001878565b62001c21606083018862001791565b62001c30608083018762001791565b62001c3f60a083018662001791565b81810360c083015262001c538185620018db565b905062001c6460e083018462001791565b9998505050505050505050565b7f4e487b7100000000000000000000000000000000000000000000000000000000600052603260045260246000fd5b60008151905062001cb18162001508565b92915050565b60006020828403121562001cd05762001ccf620014f4565b5b600062001ce08482850162001ca0565b91505092915050565b60008115159050919050565b62001d008162001ce9565b811462001d0c57600080fd5b50565b60008151905062001d208162001cf5565b92915050565b60006020828403121562001d3f5762001d3e620014f4565b5b600062001d4f8482850162001d0f565b91505092915050565b60006101008201905062001d70600083018b62001791565b62001d7f602083018a62001791565b62001d8e604083018962001878565b62001d9d606083018862001878565b62001dac608083018762001791565b62001dbb60a083018662001791565b62001dca60c083018562001791565b81810360e083015262001dde8184620018db565b90509998505050505050505050565b7f4e487b7100000000000000000000000000000000000000000000000000000000600052601160045260246000fd5b600062001e2982620014fe565b91507fffffffffffffffffffffffffffffffffffffffffffffffffffffffffffffffff820362001e5e5762001e5d62001ded565b5b600182019050919050565b600060808201905062001e80600083018762001878565b62001e8f602083018662001878565b62001e9e604083018562001791565b62001ead606083018462001791565b95945050505050565b8082525050565b600082825260208201905092915050565b600062001edb8262001889565b62001ee7818562001ebd565b935062001ef9818560208601620018a5565b62001f0481620015a8565b840191505092915050565b600060808201905062001f26600083018762001eb6565b818103602083015262001f3a818662001ece565b9050818103604083015262001f50818562001ece565b9050818103606083015262001f66818462001ece565b905095945050505050565b8082525050565b600060208201905062001f8f600083018462001f71565b92915050565b60008151905062001fa6816200156d565b92915050565b600062001fc362001fbd846200163d565b6200161e565b90508281526020810184848401111562001fe25762001fe1620015a3565b5b62001fef848285620018a5565b509392505050565b600082601f8301126200200f576200200e6200159e565b5b81516200202184826020860162001fac565b91505092915050565b600067ffffffffffffffff821115620020485762002047620015b9565b5b602082029050602081019050919050565b600080fd5b6000620020756200206f846200202a565b6200161e565b905080838252602082019050602084028301858111156200209b576200209a62002059565b5b835b81811015620020c85780620020b3888262001ca0565b8452602084019350506020810190506200209d565b5050509392505050565b600082601f830112620020ea57620020e96200159e565b5b8151620020fc8482602086016200205e565b91505092915050565b60008060008060008060c08789031215620021255762002124620014f4565b5b60006200213589828a0162001f95565b965050602087015167ffffffffffffffff811115620021595762002158620014f9565b5b6200216789828a0162001ff7565b955050604087015167ffffffffffffffff8111156200218b576200218a620014f9565b5b6200219989828a0162001ff7565b9450506060620021ac89828a0162001ca0565b9350506080620021bf89828a0162001ca0565b92505060a087015167ffffffffffffffff811115620021e357620021e2620014f9565b5b620021f189828a01620020d2565b9150509295509295509295565b8082525050565b60006040820190506200221c6000830185620021fe565b818103602083015262002230818462001ece565b90509392505050565b600060208201905062002250600083018462001eb6565b92915050565b60008060008060808587031215620022735762002272620014f4565b5b6000620022838782880162001f95565b945050602085015167ffffffffffffffff811115620022a757620022a6620014f9565b5b620022b58782880162001ff7565b935050604085015167ffffffffffffffff811115620022d957620022d8620014f9565b5b620022e78782880162001ff7565b925050606085015167ffffffffffffffff8111156200230b576200230a620014f9565b5b6200231987828801620020d2565b91505092959194509250565b60006040820190506200233c600083018562001791565b6200234b602083018462001791565b9392505050565b6000602082840312156200236b576200236a620014f4565b5b60006200237b8482850162001f95565b91505092915050565b60006060820190506200239b600083018662001878565b620023aa602083018562001878565b620023b9604083018462001791565b949350505050565b600080600060608486031215620023dd57620023dc620014f4565b5b6000620023ed8682870162001ca0565b9350506020620024008682870162001ca0565b925050604084015167ffffffffffffffff811115620024245762002423620014f9565b5b6200243286828701620020d2565b9150509250925092565b600080600080600080600080610100898b03121562002460576200245f620014f4565b5b6000620024708b828c0162001ca0565b9850506020620024838b828c0162001f95565b9750506040620024968b828c0162001f95565b9650506060620024a98b828c0162001ca0565b9550506080620024bc8b828c0162001ca0565b94505060a0620024cf8b828c0162001ca0565b93505060c089015167ffffffffffffffff811115620024f357620024f2620014f9565b5b620025018b828c0162001ff7565b92505060e0620025148b828c0162001ca0565b9150509295985092959890939650565b60006020820190506200253b6000830184620021fe565b92915050565b600060808201905062002558600083018762001f71565b81810360208301526200256c818662001ece565b9050818103604083015262002582818562001ece565b9050818103606083015262002598818462001ece565b90509594505050505056fe60806040523480156200001157600080fd5b506040516200090a3803806200090a8339818101604052810190620000379190620003f7565b876000819055508660018190555085600260006101000a81548173ffffffffffffffffffffffffffffffffffffffff021916908373ffffffffffffffffffffffffffffffffffffffff16021790555084600360006101000a81548173ffffffffffffffffffffffffffffffffffffffff021916908373ffffffffffffffffffffffffffffffffffffffff1602179055508360048190555082600581905550816006819055508060079080519060200190620000f49291906200010a565b5042600881905550505050505050505062000543565b82805462000118906200050e565b90600052602060002090601f0160209004810192826200013c576000855562000188565b82601f106200015757805160ff191683800117855562000188565b8280016001018555821562000188579182015b82811115620001875782518255916020019190600101906200016a565b5b5090506200019791906200019b565b5090565b5b80821115620001b65760008160009055506001016200019c565b5090565b6000604051905090565b600080fd5b600080fd5b6000819050919050565b620001e381620001ce565b8114620001ef57600080fd5b50565b6000815190506200020381620001d8565b92915050565b600073ffffffffffffffffffffffffffffffffffffffff82169050919050565b6000620002368262000209565b9050919050565b620002488162000229565b81146200025457600080fd5b50565b60008151905062000268816200023d565b92915050565b600080fd5b600080fd5b6000601f19601f8301169050919050565b7f4e487b7100000000000000000000000000000000000000000000000000000000600052604160045260246000fd5b620002c38262000278565b810181811067ffffffffffffffff82111715620002e557620002e462000289565b5b80604052505050565b6000620002fa620001ba565b9050620003088282620002b8565b919050565b600067ffffffffffffffff8211156200032b576200032a62000289565b5b620003368262000278565b9050602081019050919050565b60005b838110156200036357808201518184015260208101905062000346565b8381111562000373576000848401525b50505050565b6000620003906200038a846200030d565b620002ee565b905082815260208101848484011115620003af57620003ae62000273565b5b620003bc84828562000343565b509392505050565b600082601f830112620003dc57620003db6200026e565b5b8151620003ee84826020860162000379565b91505092915050565b600080600080600080600080610100898b0312156200041b576200041a620001c4565b5b60006200042b8b828c01620001f2565b98505060206200043e8b828c01620001f2565b9750506040620004518b828c0162000257565b9650506060620004648b828c0162000257565b9550506080620004778b828c01620001f2565b94505060a06200048a8b828c01620001f2565b93505060c06200049d8b828c01620001f2565b92505060e089015167ffffffffffffffff811115620004c157620004c0620001c9565b5b620004cf8b828c01620003c4565b9150509295985092959890939650565b7f4e487b7100000000000000000000000000000000000000000000000000000000600052602260045260246000fd5b600060028204905060018216806200052757607f821691505b6020821081036200053d576200053c620004df565b5b50919050565b6103b780620005536000396000f3fe608060405234801561001057600080fd5b50600436106100365760003560e01c806331b71c931461003b578063af640d0f14610060575b600080fd5b61004361007e565b604051610057989796959493929190610281565b60405180910390f35b610068610188565b6040516100759190610306565b60405180910390f35b60008060008060008060606000600154600260009054906101000a900473ffffffffffffffffffffffffffffffffffffffff16600360009054906101000a900473ffffffffffffffffffffffffffffffffffffffff1660045460055460065460076008548180546100ee90610350565b80601f016020809104026020016040519081016040528092919081815260200182805461011a90610350565b80156101675780601f1061013c57610100808354040283529160200191610167565b820191906000526020600020905b81548152906001019060200180831161014a57829003601f168201915b50505050509150975097509750975097509750975097509091929394959697565b60005481565b6000819050919050565b6101a18161018e565b82525050565b600073ffffffffffffffffffffffffffffffffffffffff82169050919050565b60006101d2826101a7565b9050919050565b6101e2816101c7565b82525050565b600081519050919050565b600082825260208201905092915050565b60005b83811015610222578082015181840152602081019050610207565b83811115610231576000848401525b50505050565b6000601f19601f8301169050919050565b6000610253826101e8565b61025d81856101f3565b935061026d818560208601610204565b61027681610237565b840191505092915050565b600061010082019050610297600083018b610198565b6102a4602083018a6101d9565b6102b160408301896101d9565b6102be6060830188610198565b6102cb6080830187610198565b6102d860a0830186610198565b81810360c08301526102ea8185610248565b90506102f960e0830184610198565b9998505050505050505050565b600060208201905061031b6000830184610198565b92915050565b7f4e487b7100000000000000000000000000000000000000000000000000000000600052602260045260246000fd5b6000600282049050600182168061036857607f821691505b60208210810361037b5761037a610321565b5b5091905056fea26469706673582212204354d1382110baf73b07761e1b9dfe0dce04fb632af4335d9dddb6e71af0481464736f6c634300080d0033608060405234801561001057600080fd5b5060405161052e38038061052e83398181016040528101906100329190610089565b81600081905550806001819055508060028190555050506100c9565b600080fd5b6000819050919050565b61006681610053565b811461007157600080fd5b50565b6000815190506100838161005d565b92915050565b600080604083850312156100a05761009f61004e565b5b60006100ae85828601610074565b92505060206100bf85828601610074565b9150509250929050565b610456806100d86000396000f3fe608060405234801561001057600080fd5b50600436106100575760003560e01c80631dfe52db1461005c5780632e1a7d4d1461007a5780637d839d2f146100aa5780637ec49395146100da578063af640d0f146100fa575b600080fd5b610064610118565b6040516100719190610212565b60405180910390f35b610094600480360381019061008f919061025e565b61011e565b6040516100a191906102a6565b60405180910390f35b6100c460048036038101906100bf919061025e565b610155565b6040516100d191906102a6565b60405180910390f35b6100e2610189565b6040516100f19392919061037f565b60405180910390f35b6101026101f3565b60405161010f9190610212565b60405180910390f35b60025481565b6000816002541061014b57816002600082825461013b91906103ec565b9250508190555060019050610150565b600090505b919050565b6000600382908060018154018082558091505060019003906000526020600020016000909190919091505560019050919050565b60008060606001546002546003808054806020026020016040519081016040528092919081815260200182805480156101e157602002820191906000526020600020905b8154815260200190600101908083116101cd575b50505050509050925092509250909192565b60005481565b6000819050919050565b61020c816101f9565b82525050565b60006020820190506102276000830184610203565b92915050565b600080fd5b61023b816101f9565b811461024657600080fd5b50565b60008135905061025881610232565b92915050565b6000602082840312156102745761027361022d565b5b600061028284828501610249565b91505092915050565b60008115159050919050565b6102a08161028b565b82525050565b60006020820190506102bb6000830184610297565b92915050565b600081519050919050565b600082825260208201905092915050565b6000819050602082019050919050565b6102f6816101f9565b82525050565b600061030883836102ed565b60208301905092915050565b6000602082019050919050565b600061032c826102c1565b61033681856102cc565b9350610341836102dd565b8060005b8381101561037257815161035988826102fc565b975061036483610314565b925050600181019050610345565b5085935050505092915050565b60006060820190506103946000830186610203565b6103a16020830185610203565b81810360408301526103b38184610321565b9050949350505050565b7f4e487b7100000000000000000000000000000000000000000000000000000000600052601160045260246000fd5b60006103f7826101f9565b9150610402836101f9565b925082821015610415576104146103bd565b5b82820390509291505056fea26469706673582212200cd2f955d31b2b130f45d3b451c360cfdc422ff2cd847efe1320f261db24e1f664736f6c634300080d0033a2646970667358221220853bc597614b2a5ab79540b68facdd5ef0e2a99115531ee7bcb8fb9bb0d229a864736f6c634300080d0033",
  "immutableReferences": {},
  "source": "// SPDX-License-Identifier: SimPL-2.0\r\npragma solidity ^0.8.7;\r\n\r\nimport \"./Lender.sol\";\r\nimport \"./Borrower.sol\";\r\nimport \"./Manager.sol\";\r\nimport \"./CashFlow.sol\";\r\nimport \"./Transaction.sol\";\r\nimport \"./SysFunc.sol\";\r\n\r\ncontract LoanSystem {\r\n    //\r\n\r\n    event CreateCashFlow(address from, address to, uint256 amount);\r\n    event CreateTransaction(\r\n        address from,\r\n        address to,\r\n        uint256 cashFlowID,\r\n        uint256 amount\r\n    );\r\n\r\n    Lender[] lenders;\r\n    Borrower[] borrowers;\r\n    Manager[] managers;\r\n    CashFlow[] cashFlows;\r\n    Transaction[] transactions;\r\n\r\n    uint256 cashFlowCount = 0; //ID\r\n    uint256 TransactionCount = 0; //ID\r\n\r\n    function createLender(\r\n        string memory account,\r\n        string memory passwd,\r\n        string memory name\r\n    ) public {\r\n        //\r\n        require(SysFunc.createLender(lenders, account, passwd, name));\r\n    }\r\n\r\n    function createBorrower(\r\n        string memory account,\r\n        string memory passwd,\r\n        string memory name\r\n    ) public {\r\n        //\r\n        require(SysFunc.createBorrower(borrowers, account, passwd, name));\r\n    }\r\n\r\n    function createManager(string memory passwd) public {\r\n        //\r\n        require(SysFunc.createManager(managers, passwd));\r\n    }\r\n\r\n    function deleteLender() public {\r\n        //\r\n        require(SysFunc.deleteLender(lenders));\r\n    }\r\n\r\n    function deleteBorrower() public {\r\n        //\r\n        require(SysFunc.deleteBorrower(borrowers));\r\n    }\r\n\r\n    function deleteManager() public {\r\n        //\r\n        require(SysFunc.deleteManager(managers));\r\n    }\r\n\r\n    function getLenderInfo()\r\n        public\r\n        view\r\n        returns (\r\n            address,\r\n            string memory,\r\n            string memory,\r\n            uint256[] memory\r\n        )\r\n    {\r\n        //()\r\n        return SysFunc.getLenderInfo(lenders);\r\n    }\r\n\r\n    function getBorrowerInfo()\r\n        public\r\n        view\r\n        returns (\r\n            address,\r\n            string memory,\r\n            string memory,\r\n            uint256,\r\n            uint256,\r\n            uint256[] memory\r\n        )\r\n    {\r\n        //()\r\n        return SysFunc.getBorrowerInfo(borrowers);\r\n    }\r\n\r\n    function createCashFlow(address borrowerID, uint256 cashNum)\r\n        public\r\n        returns (uint256)\r\n    {\r\n        //\r\n        CashFlow cashflow = new CashFlow(cashFlowCount, cashNum);\r\n        cashFlows.push(cashflow);\r\n        for (uint256 i = 0; i < lenders.length; i++) {\r\n            if (lenders[i].id() == msg.sender && lenders[i].valid())\r\n                lenders[i].attachCashFlow(cashflow.id());\r\n        }\r\n        for (uint256 i = 0; i < borrowers.length; i++) {\r\n            if (borrowers[i].id() == borrowerID && borrowers[i].valid())\r\n                borrowers[i].attachCashFlow(cashFlowCount);\r\n        }\r\n        emit CreateCashFlow(msg.sender, borrowerID, cashNum);\r\n        cashFlowCount++;\r\n        return cashflow.id();\r\n    }\r\n\r\n    function createTransaction(\r\n        uint256 cashFlowID,\r\n        address receiverID,\r\n        uint256 cashNum,\r\n        string memory note\r\n    ) public returns (uint256) {\r\n        //\r\n        uint256 prevCash = cashFlows[cashFlowID].currBalance();\r\n        if (cashFlows[cashFlowID].withdraw(cashNum)) {\r\n            Transaction transaction = new Transaction(\r\n                TransactionCount,\r\n                cashFlowID,\r\n                msg.sender,\r\n                receiverID,\r\n                prevCash,\r\n                cashFlows[cashFlowID].currBalance(),\r\n                cashNum,\r\n                note\r\n            );\r\n            transactions.push(transaction);\r\n            TransactionCount++;\r\n            cashFlows[cashFlowID].attachTransaction(transaction.id());\r\n            emit CreateTransaction(msg.sender, receiverID, cashFlowID, cashNum);\r\n            return transaction.id();\r\n        } else return type(uint256).max;\r\n    }\r\n\r\n    function checkCashFlow(uint256 cashflowID)\r\n        public\r\n        view\r\n        returns (\r\n            uint256,\r\n            uint256,\r\n            uint256[] memory\r\n        )\r\n    {\r\n        //\r\n        return cashFlows[cashflowID].checkCashFlow();\r\n    }\r\n\r\n    function checkTransaction(uint256 transactionID)\r\n        public\r\n        view\r\n        returns (\r\n            uint256,\r\n            address,\r\n            address,\r\n            uint256,\r\n            uint256,\r\n            uint256,\r\n            string memory,\r\n            uint256\r\n        )\r\n    {\r\n        //\r\n        return transactions[transactionID].checkTransaction();\r\n    }\r\n}\r\n",
  "sourcePath": "/home/syj/Desktop/LoanSystem/contracts/LoanSystem.sol",
  "compiler": {
    "name": "solc",
    "version": "0.8.13+commit.abaa5c0e.Emscripten.clang"
  },
  "schemaVersion": "3.4.4",
  "updatedAt": "2022-04-16T03:34:36.732Z",
  "networkType": "ethereum",
  "devdoc": {
    "kind": "dev",
    "methods": {},
    "version": 1
  },
  "userdoc": {
    "kind": "user",
    "methods": {},
    "version": 1
  }
}