{
  "contractName": "Manager",
  "abi": [
    {
      "inputs": [
        {
          "internalType": "string",
          "name": "_id",
          "type": "string"
        },
        {
          "internalType": "string",
          "name": "_passwd",
          "type": "string"
        }
      ],
      "stateMutability": "nonpayable",
      "type": "constructor"
    },
    {
      "inputs": [],
      "name": "id",
      "outputs": [
        {
          "internalType": "string",
          "name": "",
          "type": "string"
        }
      ],
      "stateMutability": "view",
      "type": "function"
    },
    {
      "inputs": [],
      "name": "valid",
      "outputs": [
        {
          "internalType": "bool",
          "name": "",
          "type": "bool"
        }
      ],
      "stateMutability": "view",
      "type": "function"
    },
    {
      "inputs": [],
      "name": "deleteManager",
      "outputs": [
        {
          "internalType": "bool",
          "name": "",
          "type": "bool"
        }
      ],
      "stateMutability": "nonpayable",
      "type": "function"
    },
    {
      "inputs": [
        {
          "internalType": "string",
          "name": "_passwd",
          "type": "string"
        }
      ],
      "name": "ManagerLogin",
      "outputs": [
        {
          "internalType": "bool",
          "name": "",
          "type": "bool"
        }
      ],
      "stateMutability": "view",
      "type": "function"
    }
  ],
  "bytecode": "0x60806040526001600260006101000a81548160ff0219169083151502179055503480156200002c57600080fd5b50604051620009a2380380620009a28339818101604052810190620000529190620002d9565b81600090805190602001906200006a9291906200008c565b508060019080519060200190620000839291906200008c565b505050620003c3565b8280546200009a906200038d565b90600052602060002090601f016020900481019282620000be57600085556200010a565b82601f10620000d957805160ff19168380011785556200010a565b828001600101855582156200010a579182015b8281111562000109578251825591602001919060010190620000ec565b5b5090506200011991906200011d565b5090565b5b80821115620001385760008160009055506001016200011e565b5090565b6000604051905090565b600080fd5b600080fd5b600080fd5b600080fd5b6000601f19601f8301169050919050565b7f4e487b7100000000000000000000000000000000000000000000000000000000600052604160045260246000fd5b620001a5826200015a565b810181811067ffffffffffffffff82111715620001c757620001c66200016b565b5b80604052505050565b6000620001dc6200013c565b9050620001ea82826200019a565b919050565b600067ffffffffffffffff8211156200020d576200020c6200016b565b5b62000218826200015a565b9050602081019050919050565b60005b838110156200024557808201518184015260208101905062000228565b8381111562000255576000848401525b50505050565b6000620002726200026c84620001ef565b620001d0565b90508281526020810184848401111562000291576200029062000155565b5b6200029e84828562000225565b509392505050565b600082601f830112620002be57620002bd62000150565b5b8151620002d08482602086016200025b565b91505092915050565b60008060408385031215620002f357620002f262000146565b5b600083015167ffffffffffffffff8111156200031457620003136200014b565b5b6200032285828601620002a6565b925050602083015167ffffffffffffffff8111156200034657620003456200014b565b5b6200035485828601620002a6565b9150509250929050565b7f4e487b7100000000000000000000000000000000000000000000000000000000600052602260045260246000fd5b60006002820490506001821680620003a657607f821691505b60208210811415620003bd57620003bc6200035e565b5b50919050565b6105cf80620003d36000396000f3fe608060405234801561001057600080fd5b506004361061004c5760003560e01c8063a631434214610051578063af640d0f1461006f578063c19912191461008d578063fa8ec201146100ab575b600080fd5b6100596100db565b604051610066919061021a565b60405180910390f35b610077610124565b60405161008491906102ce565b60405180910390f35b6100956101b2565b6040516100a2919061021a565b60405180910390f35b6100c560048036038101906100c09190610439565b6101c5565b6040516100d2919061021a565b60405180910390f35b600080600260006101000a81548160ff02191690831515021790555060001515600260009054906101000a900460ff161515141561011c5760019050610121565b600090505b90565b60008054610131906104b1565b80601f016020809104026020016040519081016040528092919081815260200182805461015d906104b1565b80156101aa5780601f1061017f576101008083540402835291602001916101aa565b820191906000526020600020905b81548152906001019060200180831161018d57829003601f168201915b505050505081565b600260009054906101000a900460ff1681565b600060016040516101d69190610582565b6040518091039020828051906020012014156101f557600190506101fa565b600090505b919050565b60008115159050919050565b610214816101ff565b82525050565b600060208201905061022f600083018461020b565b92915050565b600081519050919050565b600082825260208201905092915050565b60005b8381101561026f578082015181840152602081019050610254565b8381111561027e576000848401525b50505050565b6000601f19601f8301169050919050565b60006102a082610235565b6102aa8185610240565b93506102ba818560208601610251565b6102c381610284565b840191505092915050565b600060208201905081810360008301526102e88184610295565b905092915050565b6000604051905090565b600080fd5b600080fd5b600080fd5b600080fd5b7f4e487b7100000000000000000000000000000000000000000000000000000000600052604160045260246000fd5b61034682610284565b810181811067ffffffffffffffff821117156103655761036461030e565b5b80604052505050565b60006103786102f0565b9050610384828261033d565b919050565b600067ffffffffffffffff8211156103a4576103a361030e565b5b6103ad82610284565b9050602081019050919050565b82818337600083830152505050565b60006103dc6103d784610389565b61036e565b9050828152602081018484840111156103f8576103f7610309565b5b6104038482856103ba565b509392505050565b600082601f8301126104205761041f610304565b5b81356104308482602086016103c9565b91505092915050565b60006020828403121561044f5761044e6102fa565b5b600082013567ffffffffffffffff81111561046d5761046c6102ff565b5b6104798482850161040b565b91505092915050565b7f4e487b7100000000000000000000000000000000000000000000000000000000600052602260045260246000fd5b600060028204905060018216806104c957607f821691505b602082108114156104dd576104dc610482565b5b50919050565b600081905092915050565b60008190508160005260206000209050919050565b60008154610510816104b1565b61051a81866104e3565b94506001821660008114610535576001811461054657610579565b60ff19831686528186019350610579565b61054f856104ee565b60005b8381101561057157815481890152600182019150602081019050610552565b838801955050505b50505092915050565b600061058e8284610503565b91508190509291505056fea2646970667358221220082cc2820e788dfe3f44de390d71e3ed22aeb9d0009c1e074b650d1ba1c9f96664736f6c634300080b0033",
  "immutableReferences": {},
  "source": "// SPDX-License-Identifier: SimPL-2.0\r\npragma solidity ^0.8.7;\r\n\r\ncontract Manager {\r\n    string public id;\r\n    string passwd;\r\n    bool public valid = true;\r\n\r\n    constructor(string memory _id, string memory _passwd) {\r\n        id = _id;\r\n        passwd = _passwd;\r\n    }\r\n\r\n    function deleteManager() public returns (bool) {\r\n        valid = false;\r\n        if (valid == false) return true;\r\n        else return false;\r\n    }\r\n\r\n    function ManagerLogin(string memory _passwd) public view returns (bool) {\r\n        if (keccak256(bytes(_passwd)) == keccak256(bytes(passwd))) return true;\r\n        else return false;\r\n    }\r\n}\r\n",
  "sourcePath": "/home/syj/Desktop/LoanSystem/contracts/Manager.sol",
  "compiler": {
    "name": "solc",
    "version": "0.8.11+commit.d7f03943.Emscripten.clang"
  },
  "schemaVersion": "3.4.4",
  "updatedAt": "2022-04-14T03:50:50.940Z",
  "networkType": "ethereum",
  "devdoc": {
    "kind": "dev",
    "methods": {},
    "version": 1
  },
  "userdoc": {
    "kind": "user",
    "methods": {},
    "version": 1
  }
}