{
  "contractName": "Manager",
  "abi": [
    {
      "inputs": [
        {
          "internalType": "address",
          "name": "_id",
          "type": "address"
        },
        {
          "internalType": "string",
          "name": "_passwd",
          "type": "string"
        }
      ],
      "stateMutability": "nonpayable",
      "type": "constructor"
    },
    {
      "inputs": [],
      "name": "id",
      "outputs": [
        {
          "internalType": "address",
          "name": "",
          "type": "address"
        }
      ],
      "stateMutability": "view",
      "type": "function"
    },
    {
      "inputs": [],
      "name": "valid",
      "outputs": [
        {
          "internalType": "bool",
          "name": "",
          "type": "bool"
        }
      ],
      "stateMutability": "view",
      "type": "function"
    },
    {
      "inputs": [],
      "name": "deleteManager",
      "outputs": [
        {
          "internalType": "bool",
          "name": "",
          "type": "bool"
        }
      ],
      "stateMutability": "nonpayable",
      "type": "function"
    },
    {
      "inputs": [
        {
          "internalType": "string",
          "name": "_passwd",
          "type": "string"
        }
      ],
      "name": "ManagerLogin",
      "outputs": [
        {
          "internalType": "bool",
          "name": "",
          "type": "bool"
        }
      ],
      "stateMutability": "view",
      "type": "function"
    }
  ],
  "bytecode": "0x60806040526001600260006101000a81548160ff0219169083151502179055503480156200002c57600080fd5b506040516200095338038062000953833981810160405281019062000052919062000365565b816000806101000a81548173ffffffffffffffffffffffffffffffffffffffff021916908373ffffffffffffffffffffffffffffffffffffffff1602179055508060019080519060200190620000aa929190620000b3565b5050506200042f565b828054620000c190620003fa565b90600052602060002090601f016020900481019282620000e5576000855562000131565b82601f106200010057805160ff191683800117855562000131565b8280016001018555821562000131579182015b828111156200013057825182559160200191906001019062000113565b5b50905062000140919062000144565b5090565b5b808211156200015f57600081600090555060010162000145565b5090565b6000604051905090565b600080fd5b600080fd5b600073ffffffffffffffffffffffffffffffffffffffff82169050919050565b6000620001a48262000177565b9050919050565b620001b68162000197565b8114620001c257600080fd5b50565b600081519050620001d681620001ab565b92915050565b600080fd5b600080fd5b6000601f19601f8301169050919050565b7f4e487b7100000000000000000000000000000000000000000000000000000000600052604160045260246000fd5b6200023182620001e6565b810181811067ffffffffffffffff82111715620002535762000252620001f7565b5b80604052505050565b60006200026862000163565b905062000276828262000226565b919050565b600067ffffffffffffffff821115620002995762000298620001f7565b5b620002a482620001e6565b9050602081019050919050565b60005b83811015620002d1578082015181840152602081019050620002b4565b83811115620002e1576000848401525b50505050565b6000620002fe620002f8846200027b565b6200025c565b9050828152602081018484840111156200031d576200031c620001e1565b5b6200032a848285620002b1565b509392505050565b600082601f8301126200034a5762000349620001dc565b5b81516200035c848260208601620002e7565b91505092915050565b600080604083850312156200037f576200037e6200016d565b5b60006200038f85828601620001c5565b925050602083015167ffffffffffffffff811115620003b357620003b262000172565b5b620003c18582860162000332565b9150509250929050565b7f4e487b7100000000000000000000000000000000000000000000000000000000600052602260045260246000fd5b600060028204905060018216806200041357607f821691505b602082108103620004295762000428620003cb565b5b50919050565b610514806200043f6000396000f3fe608060405234801561001057600080fd5b506004361061004c5760003560e01c8063a631434214610051578063af640d0f1461006f578063c19912191461008d578063fa8ec201146100ab575b600080fd5b6100596100db565b60405161006691906101ae565b60405180910390f35b610077610123565b604051610084919061020a565b60405180910390f35b610095610147565b6040516100a291906101ae565b60405180910390f35b6100c560048036038101906100c0919061037f565b61015a565b6040516100d291906101ae565b60405180910390f35b600080600260006101000a81548160ff02191690831515021790555060001515600260009054906101000a900460ff1615150361011b5760019050610120565b600090505b90565b60008054906101000a900473ffffffffffffffffffffffffffffffffffffffff1681565b600260009054906101000a900460ff1681565b6000600160405161016b91906104c7565b6040518091039020828051906020012003610189576001905061018e565b600090505b919050565b60008115159050919050565b6101a881610193565b82525050565b60006020820190506101c3600083018461019f565b92915050565b600073ffffffffffffffffffffffffffffffffffffffff82169050919050565b60006101f4826101c9565b9050919050565b610204816101e9565b82525050565b600060208201905061021f60008301846101fb565b92915050565b6000604051905090565b600080fd5b600080fd5b600080fd5b600080fd5b6000601f19601f8301169050919050565b7f4e487b7100000000000000000000000000000000000000000000000000000000600052604160045260246000fd5b61028c82610243565b810181811067ffffffffffffffff821117156102ab576102aa610254565b5b80604052505050565b60006102be610225565b90506102ca8282610283565b919050565b600067ffffffffffffffff8211156102ea576102e9610254565b5b6102f382610243565b9050602081019050919050565b82818337600083830152505050565b600061032261031d846102cf565b6102b4565b90508281526020810184848401111561033e5761033d61023e565b5b610349848285610300565b509392505050565b600082601f83011261036657610365610239565b5b813561037684826020860161030f565b91505092915050565b6000602082840312156103955761039461022f565b5b600082013567ffffffffffffffff8111156103b3576103b2610234565b5b6103bf84828501610351565b91505092915050565b7f4e487b7100000000000000000000000000000000000000000000000000000000600052602260045260246000fd5b6000600282049050600182168061040f57607f821691505b602082108103610422576104216103c8565b5b50919050565b600081905092915050565b60008190508160005260206000209050919050565b60008154610455816103f7565b61045f8186610428565b9450600182166000811461047a576001811461048b576104be565b60ff198316865281860193506104be565b61049485610433565b60005b838110156104b657815481890152600182019150602081019050610497565b838801955050505b50505092915050565b60006104d38284610448565b91508190509291505056fea264697066735822122045cb81e7ac4213a74d1fcc0eb1fa0b637014c5a0b7644fba7c413a43cfe32cbe64736f6c634300080d0033",
  "immutableReferences": {},
  "source": "contract Manager {\r\n    address public id;\r\n    string passwd;\r\n    bool public valid = true;\r\n\r\n    constructor(address _id, string memory _passwd) {\r\n        id = _id;\r\n        passwd = _passwd;\r\n    }\r\n\r\n    function deleteManager() public returns (bool) {\r\n        valid = false;\r\n        if (valid == false) return true;\r\n        else return false;\r\n    }\r\n\r\n    function ManagerLogin(string memory _passwd) public view returns (bool) {\r\n        if (keccak256(bytes(_passwd)) == keccak256(bytes(passwd))) return true;\r\n        else return false;\r\n    }\r\n\r\n    //     function deleteLender(address id) public returns (bool) {\r\n    //     //\r\n    //     for (uint256 i = 0; i < lenders.length; i++) {\r\n    //         if (lenders[i].id() == id) {\r\n    //             bool result = lenders[i].deleteLender();\r\n    //             emit DeleteLender(id, result);\r\n    //             return result;\r\n    //         }\r\n    //     }\r\n    // }\r\n\r\n    // function deleteBorrower(address id) public returns (bool) {\r\n    //     //\r\n    //     for (uint256 i = 0; i < borrowers.length; i++) {\r\n    //         if (borrowers[i].id() == id) {\r\n    //             bool result = borrowers[i].deleteBorrower();\r\n    //             emit DeleteBorrower(id, result);\r\n    //             return result;\r\n    //         }\r\n    //     }\r\n    // }\r\n\r\n    // function deleteManager(address id) public returns (bool) {\r\n    //     //\r\n    //     for (uint256 i = 0; i < lenders.length; i++) {\r\n    //         if (managers[i].id() == id) {\r\n    //             bool result = managers[i].deleteManager();\r\n    //             emit DeleteManager(id, result);\r\n    //             return result;\r\n    //         }\r\n    //     }\r\n    // }\r\n}\r\n",
  "sourcePath": "/home/syj/Desktop/LoanSystem/contracts/Manager.sol",
  "compiler": {
    "name": "solc",
    "version": "0.8.13+commit.abaa5c0e.Emscripten.clang"
  },
  "schemaVersion": "3.4.4",
  "updatedAt": "2022-04-25T08:14:58.319Z",
  "devdoc": {
    "kind": "dev",
    "methods": {},
    "version": 1
  },
  "userdoc": {
    "kind": "user",
    "methods": {},
    "version": 1
  }
}