{
  "contractName": "Procedure",
  "abi": [
    {
      "inputs": [
        {
          "internalType": "uint256",
          "name": "_id",
          "type": "uint256"
        },
        {
          "internalType": "uint256",
          "name": "_itemID",
          "type": "uint256"
        },
        {
          "internalType": "address",
          "name": "_master",
          "type": "address"
        },
        {
          "internalType": "string",
          "name": "_operation",
          "type": "string"
        }
      ],
      "stateMutability": "nonpayable",
      "type": "constructor"
    },
    {
      "inputs": [],
      "name": "id",
      "outputs": [
        {
          "internalType": "uint256",
          "name": "",
          "type": "uint256"
        }
      ],
      "stateMutability": "view",
      "type": "function"
    },
    {
      "inputs": [],
      "name": "checkProcedure",
      "outputs": [
        {
          "internalType": "uint256",
          "name": "",
          "type": "uint256"
        },
        {
          "internalType": "address",
          "name": "",
          "type": "address"
        },
        {
          "internalType": "string",
          "name": "",
          "type": "string"
        },
        {
          "internalType": "uint256",
          "name": "",
          "type": "uint256"
        }
      ],
      "stateMutability": "view",
      "type": "function"
    }
  ],
  "bytecode": "0x608060405234801561001057600080fd5b5060405161078b38038061078b8339818101604052810190610032919061035d565b836000819055508260018190555081600260006101000a81548173ffffffffffffffffffffffffffffffffffffffff021916908373ffffffffffffffffffffffffffffffffffffffff16021790555080600390805190602001906100979291906100a8565b504260048190555050505050610440565b8280546100b49061040f565b90600052602060002090601f0160209004810192826100d6576000855561011d565b82601f106100ef57805160ff191683800117855561011d565b8280016001018555821561011d579182015b8281111561011c578251825591602001919060010190610101565b5b50905061012a919061012e565b5090565b5b8082111561014757600081600090555060010161012f565b5090565b6000604051905090565b600080fd5b600080fd5b6000819050919050565b6101728161015f565b811461017d57600080fd5b50565b60008151905061018f81610169565b92915050565b600073ffffffffffffffffffffffffffffffffffffffff82169050919050565b60006101c082610195565b9050919050565b6101d0816101b5565b81146101db57600080fd5b50565b6000815190506101ed816101c7565b92915050565b600080fd5b600080fd5b6000601f19601f8301169050919050565b7f4e487b7100000000000000000000000000000000000000000000000000000000600052604160045260246000fd5b610246826101fd565b810181811067ffffffffffffffff821117156102655761026461020e565b5b80604052505050565b600061027861014b565b9050610284828261023d565b919050565b600067ffffffffffffffff8211156102a4576102a361020e565b5b6102ad826101fd565b9050602081019050919050565b60005b838110156102d85780820151818401526020810190506102bd565b838111156102e7576000848401525b50505050565b60006103006102fb84610289565b61026e565b90508281526020810184848401111561031c5761031b6101f8565b5b6103278482856102ba565b509392505050565b600082601f830112610344576103436101f3565b5b81516103548482602086016102ed565b91505092915050565b6000806000806080858703121561037757610376610155565b5b600061038587828801610180565b945050602061039687828801610180565b93505060406103a7878288016101de565b925050606085015167ffffffffffffffff8111156103c8576103c761015a565b5b6103d48782880161032f565b91505092959194509250565b7f4e487b7100000000000000000000000000000000000000000000000000000000600052602260045260246000fd5b6000600282049050600182168061042757607f821691505b60208210810361043a576104396103e0565b5b50919050565b61033c8061044f6000396000f3fe608060405234801561001057600080fd5b50600436106100365760003560e01c8063af640d0f1461003b578063c791b35c14610059575b600080fd5b61004361007a565b6040516100509190610165565b60405180910390f35b610061610080565b604051610071949392919061025a565b60405180910390f35b60005481565b60008060606000600154600260009054906101000a900473ffffffffffffffffffffffffffffffffffffffff1660036004548180546100be906102d5565b80601f01602080910402602001604051908101604052809291908181526020018280546100ea906102d5565b80156101375780601f1061010c57610100808354040283529160200191610137565b820191906000526020600020905b81548152906001019060200180831161011a57829003601f168201915b50505050509150935093509350935090919293565b6000819050919050565b61015f8161014c565b82525050565b600060208201905061017a6000830184610156565b92915050565b600073ffffffffffffffffffffffffffffffffffffffff82169050919050565b60006101ab82610180565b9050919050565b6101bb816101a0565b82525050565b600081519050919050565b600082825260208201905092915050565b60005b838110156101fb5780820151818401526020810190506101e0565b8381111561020a576000848401525b50505050565b6000601f19601f8301169050919050565b600061022c826101c1565b61023681856101cc565b93506102468185602086016101dd565b61024f81610210565b840191505092915050565b600060808201905061026f6000830187610156565b61027c60208301866101b2565b818103604083015261028e8185610221565b905061029d6060830184610156565b95945050505050565b7f4e487b7100000000000000000000000000000000000000000000000000000000600052602260045260246000fd5b600060028204905060018216806102ed57607f821691505b602082108103610300576102ff6102a6565b5b5091905056fea264697066735822122055ebfcce89bac208939c7152491d2a5a244791e6cbc5459931a5c8edcc2690e564736f6c634300080d0033",
  "immutableReferences": {},
  "source": "contract Procedure {\r\n    //\r\n    uint256 public id;\r\n    uint256 itemID;\r\n    address master;\r\n    string operation;\r\n    uint256 timestamp;\r\n\r\n    constructor(\r\n        uint256 _id,\r\n        uint256 _itemID,\r\n        address _master,\r\n        string memory _operation\r\n    ) {\r\n        id = _id;\r\n        itemID = _itemID;\r\n        master = _master;\r\n        operation = _operation;\r\n        timestamp = block.timestamp;\r\n    }\r\n\r\n    function checkProcedure()\r\n        public\r\n        view\r\n        returns (\r\n            uint256,\r\n            address,\r\n            string memory,\r\n            uint256\r\n        )\r\n    {\r\n        return (itemID, master, operation, timestamp);\r\n    }\r\n}\r\n",
  "sourcePath": "/home/syj/Desktop/LoanSystem/contracts/Procedure.sol",
  "compiler": {
    "name": "solc",
    "version": "0.8.13+commit.abaa5c0e.Emscripten.clang"
  },
  "schemaVersion": "3.4.4",
  "updatedAt": "2022-04-25T08:14:58.329Z",
  "devdoc": {
    "kind": "dev",
    "methods": {},
    "version": 1
  },
  "userdoc": {
    "kind": "user",
    "methods": {},
    "version": 1
  }
}