{
  "contractName": "SysFunc",
  "abi": [
    {
      "inputs": [
        {
          "internalType": "string",
          "name": "_a",
          "type": "string"
        },
        {
          "internalType": "string",
          "name": "_b",
          "type": "string"
        }
      ],
      "name": "strConcat",
      "outputs": [
        {
          "internalType": "string",
          "name": "",
          "type": "string"
        }
      ],
      "stateMutability": "pure",
      "type": "function"
    },
    {
      "inputs": [
        {
          "internalType": "uint8",
          "name": "t",
          "type": "uint8"
        }
      ],
      "name": "generateID",
      "outputs": [
        {
          "internalType": "string",
          "name": "",
          "type": "string"
        }
      ],
      "stateMutability": "nonpayable",
      "type": "function"
    }
  ],
  "bytecode": "0x60806040526040518060600160405280600060ff168152602001600060ff168152602001600060ff16815250600090600361003b92919061004e565b5034801561004857600080fd5b506100bd565b82805482825590600052602060002090810192821561008f579160200282015b8281111561008e578251829060ff1690559160200191906001019061006e565b5b50905061009c91906100a0565b5090565b5b808211156100b95760008160009055506001016100a1565b5090565b610a69806100cc6000396000f3fe608060405234801561001057600080fd5b50600436106100365760003560e01c80630bd78a6c1461003b578063ff74927b1461006b575b600080fd5b61005560048036038101906100509190610548565b61009b565b604051610062919061060e565b60405180910390f35b61008560048036038101906100809190610765565b610365565b604051610092919061060e565b60405180910390f35b606060008260ff16815481106100b4576100b36107dd565b5b9060005260206000200160008154809291906100cf90610845565b91905055506000600160008460ff16815481106100ef576100ee6107dd565b5b9060005260206000200154610104919061088e565b90506060600082141561014e576040518060400160405280600181526020017f30000000000000000000000000000000000000000000000000000000000000008152509050610283565b600082905060005b6000821461018057808061016990610845565b915050600a8261017991906108f1565b9150610156565b60008167ffffffffffffffff81111561019c5761019b61063a565b5b6040519080825280601f01601f1916602001820160405280156101ce5781602001600182028036833780820191505090505b5090505b6000851461027c5781806101e590610922565b9250506000600a80876101f891906108f1565b610202919061094c565b8661020d919061088e565b603061021991906109a6565b905060008160f81b905080838581518110610237576102366107dd565b5b60200101907effffffffffffffffffffffffffffffffffffffffffffffffffffffffffffff1916908160001a905350600a8761027391906108f1565b965050506101d2565b8093505050505b606060008560ff1614156102ce576040518060400160405280600181526020017f30000000000000000000000000000000000000000000000000000000000000008152509050610351565b60018560ff161415610317576040518060400160405280600181526020017f31000000000000000000000000000000000000000000000000000000000000008152509050610350565b6040518060400160405280600181526020017f320000000000000000000000000000000000000000000000000000000000000081525090505b5b61035b8183610365565b9350505050919050565b60606000839050600083905060008151835161038191906109dd565b67ffffffffffffffff81111561039a5761039961063a565b5b6040519080825280601f01601f1916602001820160405280156103cc5781602001600182028036833780820191505090505b50905060008190506000805b8551811015610460578581815181106103f4576103f36107dd565b5b602001015160f81c60f81b83838061040b90610845565b94508151811061041e5761041d6107dd565b5b60200101907effffffffffffffffffffffffffffffffffffffffffffffffffffffffffffff1916908160001a905350808061045890610845565b9150506103d8565b5060005b84518110156104ec578481815181106104805761047f6107dd565b5b602001015160f81c60f81b83838061049790610845565b9450815181106104aa576104a96107dd565b5b60200101907effffffffffffffffffffffffffffffffffffffffffffffffffffffffffffff1916908160001a90535080806104e490610845565b915050610464565b50829550505050505092915050565b6000604051905090565b600080fd5b600080fd5b600060ff82169050919050565b6105258161050f565b811461053057600080fd5b50565b6000813590506105428161051c565b92915050565b60006020828403121561055e5761055d610505565b5b600061056c84828501610533565b91505092915050565b600081519050919050565b600082825260208201905092915050565b60005b838110156105af578082015181840152602081019050610594565b838111156105be576000848401525b50505050565b6000601f19601f8301169050919050565b60006105e082610575565b6105ea8185610580565b93506105fa818560208601610591565b610603816105c4565b840191505092915050565b6000602082019050818103600083015261062881846105d5565b905092915050565b600080fd5b600080fd5b7f4e487b7100000000000000000000000000000000000000000000000000000000600052604160045260246000fd5b610672826105c4565b810181811067ffffffffffffffff821117156106915761069061063a565b5b80604052505050565b60006106a46104fb565b90506106b08282610669565b919050565b600067ffffffffffffffff8211156106d0576106cf61063a565b5b6106d9826105c4565b9050602081019050919050565b82818337600083830152505050565b6000610708610703846106b5565b61069a565b90508281526020810184848401111561072457610723610635565b5b61072f8482856106e6565b509392505050565b600082601f83011261074c5761074b610630565b5b813561075c8482602086016106f5565b91505092915050565b6000806040838503121561077c5761077b610505565b5b600083013567ffffffffffffffff81111561079a5761079961050a565b5b6107a685828601610737565b925050602083013567ffffffffffffffff8111156107c7576107c661050a565b5b6107d385828601610737565b9150509250929050565b7f4e487b7100000000000000000000000000000000000000000000000000000000600052603260045260246000fd5b7f4e487b7100000000000000000000000000000000000000000000000000000000600052601160045260246000fd5b6000819050919050565b60006108508261083b565b91507fffffffffffffffffffffffffffffffffffffffffffffffffffffffffffffffff8214156108835761088261080c565b5b600182019050919050565b60006108998261083b565b91506108a48361083b565b9250828210156108b7576108b661080c565b5b828203905092915050565b7f4e487b7100000000000000000000000000000000000000000000000000000000600052601260045260246000fd5b60006108fc8261083b565b91506109078361083b565b925082610917576109166108c2565b5b828204905092915050565b600061092d8261083b565b915060008214156109415761094061080c565b5b600182039050919050565b60006109578261083b565b91506109628361083b565b9250817fffffffffffffffffffffffffffffffffffffffffffffffffffffffffffffffff048311821515161561099b5761099a61080c565b5b828202905092915050565b60006109b18261050f565b91506109bc8361050f565b92508260ff038211156109d2576109d161080c565b5b828201905092915050565b60006109e88261083b565b91506109f38361083b565b9250827fffffffffffffffffffffffffffffffffffffffffffffffffffffffffffffffff03821115610a2857610a2761080c565b5b82820190509291505056fea26469706673582212206f396dddfcdb63b3e725633ae4a80b301bce3693a4bd4981d49e3276721de0b264736f6c634300080b0033",
  "immutableReferences": {},
  "source": "//\r\n\r\ncontract SysFunc {\r\n    //\r\n    uint256[] IDarr = [0, 0, 0]; //id\r\n\r\n    function strConcat(string memory _a, string memory _b)\r\n        public\r\n        pure\r\n        returns (string memory)\r\n    {\r\n        //\r\n        bytes memory _ba = bytes(_a);\r\n        bytes memory _bb = bytes(_b);\r\n        string memory ret = new string(_ba.length + _bb.length);\r\n        bytes memory bret = bytes(ret);\r\n        uint256 k = 0;\r\n        for (uint256 i = 0; i < _ba.length; i++) bret[k++] = _ba[i];\r\n        for (uint256 i = 0; i < _bb.length; i++) bret[k++] = _bb[i];\r\n        return string(ret);\r\n    }\r\n\r\n    function generateID(uint8 t) public returns (string memory) {\r\n        //id \r\n        IDarr[t]++;\r\n        uint256 rawID = IDarr[t] - 1;\r\n        string memory strID;\r\n        if (rawID == 0) strID = \"0\";\r\n        else {\r\n            uint256 cp = rawID;\r\n            uint256 len = 0;\r\n            while (cp != 0) {\r\n                len++;\r\n                cp /= 10;\r\n            }\r\n            bytes memory bstr = new bytes(len);\r\n            while (rawID != 0) {\r\n                len--;\r\n                uint8 temp = (48 + uint8(rawID - (rawID / 10) * 10));\r\n                bytes1 b1 = bytes1(temp);\r\n                bstr[len] = b1;\r\n                rawID /= 10;\r\n            }\r\n            strID = string(bstr);\r\n        }\r\n        string memory prefix;\r\n        if (t == 0) prefix = \"0\";\r\n        else if (t == 1) prefix = \"1\";\r\n        else prefix = \"2\";\r\n        return strConcat(prefix, strID);\r\n    }\r\n}\r\n",
  "sourcePath": "/home/syj/Desktop/LoanSystem/contracts/SysFunc.sol",
  "compiler": {
    "name": "solc",
    "version": "0.8.11+commit.d7f03943.Emscripten.clang"
  },
  "schemaVersion": "3.4.4",
  "updatedAt": "2022-04-14T02:14:27.282Z",
  "devdoc": {
    "kind": "dev",
    "methods": {},
    "version": 1
  },
  "userdoc": {
    "kind": "user",
    "methods": {},
    "version": 1
  }
}