{
  "contractName": "Transaction",
  "abi": [
    {
      "inputs": [
        {
          "internalType": "uint256",
          "name": "_id",
          "type": "uint256"
        },
        {
          "internalType": "uint256",
          "name": "_cashFlowID",
          "type": "uint256"
        },
        {
          "internalType": "string",
          "name": "_senderID",
          "type": "string"
        },
        {
          "internalType": "string",
          "name": "_receiverID",
          "type": "string"
        },
        {
          "internalType": "uint256",
          "name": "_beforeTrans",
          "type": "uint256"
        },
        {
          "internalType": "uint256",
          "name": "_afterTrans",
          "type": "uint256"
        },
        {
          "internalType": "uint256",
          "name": "_cashNum",
          "type": "uint256"
        },
        {
          "internalType": "string",
          "name": "_note",
          "type": "string"
        }
      ],
      "stateMutability": "nonpayable",
      "type": "constructor"
    },
    {
      "inputs": [],
      "name": "id",
      "outputs": [
        {
          "internalType": "uint256",
          "name": "",
          "type": "uint256"
        }
      ],
      "stateMutability": "view",
      "type": "function"
    },
    {
      "inputs": [],
      "name": "checkTransaction",
      "outputs": [
        {
          "internalType": "uint256",
          "name": "",
          "type": "uint256"
        },
        {
          "internalType": "string",
          "name": "",
          "type": "string"
        },
        {
          "internalType": "string",
          "name": "",
          "type": "string"
        },
        {
          "internalType": "uint256",
          "name": "",
          "type": "uint256"
        },
        {
          "internalType": "uint256",
          "name": "",
          "type": "uint256"
        },
        {
          "internalType": "uint256",
          "name": "",
          "type": "uint256"
        },
        {
          "internalType": "string",
          "name": "",
          "type": "string"
        },
        {
          "internalType": "uint256",
          "name": "",
          "type": "uint256"
        }
      ],
      "stateMutability": "view",
      "type": "function"
    }
  ],
  "bytecode": "0x60806040523480156200001157600080fd5b506040516200093938038062000939833981810160405281019062000037919062000342565b876000819055508660018190555085600290805190602001906200005d929190620000ba565b50846003908051906020019062000076929190620000ba565b508360048190555082600581905550816006819055508060079080519060200190620000a4929190620000ba565b50426008819055505050505050505050620004cd565b828054620000c89062000497565b90600052602060002090601f016020900481019282620000ec576000855562000138565b82601f106200010757805160ff191683800117855562000138565b8280016001018555821562000138579182015b82811115620001375782518255916020019190600101906200011a565b5b5090506200014791906200014b565b5090565b5b80821115620001665760008160009055506001016200014c565b5090565b6000604051905090565b600080fd5b600080fd5b6000819050919050565b62000193816200017e565b81146200019f57600080fd5b50565b600081519050620001b38162000188565b92915050565b600080fd5b600080fd5b6000601f19601f8301169050919050565b7f4e487b7100000000000000000000000000000000000000000000000000000000600052604160045260246000fd5b6200020e82620001c3565b810181811067ffffffffffffffff8211171562000230576200022f620001d4565b5b80604052505050565b6000620002456200016a565b905062000253828262000203565b919050565b600067ffffffffffffffff821115620002765762000275620001d4565b5b6200028182620001c3565b9050602081019050919050565b60005b83811015620002ae57808201518184015260208101905062000291565b83811115620002be576000848401525b50505050565b6000620002db620002d58462000258565b62000239565b905082815260208101848484011115620002fa57620002f9620001be565b5b620003078482856200028e565b509392505050565b600082601f830112620003275762000326620001b9565b5b815162000339848260208601620002c4565b91505092915050565b600080600080600080600080610100898b03121562000366576200036562000174565b5b6000620003768b828c01620001a2565b9850506020620003898b828c01620001a2565b975050604089015167ffffffffffffffff811115620003ad57620003ac62000179565b5b620003bb8b828c016200030f565b965050606089015167ffffffffffffffff811115620003df57620003de62000179565b5b620003ed8b828c016200030f565b9550506080620004008b828c01620001a2565b94505060a0620004138b828c01620001a2565b93505060c0620004268b828c01620001a2565b92505060e089015167ffffffffffffffff8111156200044a576200044962000179565b5b620004588b828c016200030f565b9150509295985092959890939650565b7f4e487b7100000000000000000000000000000000000000000000000000000000600052602260045260246000fd5b60006002820490506001821680620004b057607f821691505b60208210811415620004c757620004c662000468565b5b50919050565b61045c80620004dd6000396000f3fe608060405234801561001057600080fd5b50600436106100365760003560e01c806331b71c931461003b578063af640d0f14610060575b600080fd5b61004361007e565b604051610057989796959493929190610317565b60405180910390f35b61006861025f565b60405161007591906103aa565b60405180910390f35b60006060806000806000606060006001546002600360045460055460065460076008548680546100ad906103f4565b80601f01602080910402602001604051908101604052809291908181526020018280546100d9906103f4565b80156101265780601f106100fb57610100808354040283529160200191610126565b820191906000526020600020905b81548152906001019060200180831161010957829003601f168201915b50505050509650858054610139906103f4565b80601f0160208091040260200160405190810160405280929190818152602001828054610165906103f4565b80156101b25780601f10610187576101008083540402835291602001916101b2565b820191906000526020600020905b81548152906001019060200180831161019557829003601f168201915b505050505095508180546101c5906103f4565b80601f01602080910402602001604051908101604052809291908181526020018280546101f1906103f4565b801561023e5780601f106102135761010080835404028352916020019161023e565b820191906000526020600020905b81548152906001019060200180831161022157829003601f168201915b50505050509150975097509750975097509750975097509091929394959697565b60005481565b6000819050919050565b61027881610265565b82525050565b600081519050919050565b600082825260208201905092915050565b60005b838110156102b857808201518184015260208101905061029d565b838111156102c7576000848401525b50505050565b6000601f19601f8301169050919050565b60006102e98261027e565b6102f38185610289565b935061030381856020860161029a565b61030c816102cd565b840191505092915050565b60006101008201905061032d600083018b61026f565b818103602083015261033f818a6102de565b9050818103604083015261035381896102de565b9050610362606083018861026f565b61036f608083018761026f565b61037c60a083018661026f565b81810360c083015261038e81856102de565b905061039d60e083018461026f565b9998505050505050505050565b60006020820190506103bf600083018461026f565b92915050565b7f4e487b7100000000000000000000000000000000000000000000000000000000600052602260045260246000fd5b6000600282049050600182168061040c57607f821691505b602082108114156104205761041f6103c5565b5b5091905056fea26469706673582212209b7c67814736bd62b2f8f668c1f80f7b73817a2dc78412b5dcbd2cc3af7ec15d64736f6c634300080b0033",
  "immutableReferences": {},
  "source": "contract Transaction {\r\n    //\r\n    uint256 public id;\r\n    uint256 cashFlowID;\r\n    string senderID;\r\n    string receiverID;\r\n    uint256 beforeTrans;\r\n    uint256 afterTrans;\r\n    uint256 cashNum;\r\n    string note;\r\n    uint256 timestamp;\r\n\r\n    constructor(\r\n        uint256 _id,\r\n        uint256 _cashFlowID,\r\n        string memory _senderID,\r\n        string memory _receiverID,\r\n        uint256 _beforeTrans,\r\n        uint256 _afterTrans,\r\n        uint256 _cashNum,\r\n        string memory _note\r\n    ) {\r\n        id = _id;\r\n        cashFlowID = _cashFlowID;\r\n        senderID = _senderID;\r\n        receiverID = _receiverID;\r\n        beforeTrans = _beforeTrans;\r\n        afterTrans = _afterTrans;\r\n        cashNum = _cashNum;\r\n        note = _note;\r\n        timestamp = block.timestamp;\r\n    }\r\n\r\n    function checkTransaction()\r\n        public\r\n        view\r\n        returns (\r\n            uint256,\r\n            string memory,\r\n            string memory,\r\n            uint256,\r\n            uint256,\r\n            uint256,\r\n            string memory,\r\n            uint256\r\n        )\r\n    {\r\n        return (\r\n            cashFlowID,\r\n            senderID,\r\n            receiverID,\r\n            beforeTrans,\r\n            afterTrans,\r\n            cashNum,\r\n            note,\r\n            timestamp\r\n        );\r\n    }\r\n}\r\n",
  "sourcePath": "/home/syj/Desktop/LoanSystem/contracts/Transaction.sol",
  "compiler": {
    "name": "solc",
    "version": "0.8.11+commit.d7f03943.Emscripten.clang"
  },
  "schemaVersion": "3.4.4",
  "updatedAt": "2022-04-14T03:50:50.947Z",
  "networkType": "ethereum",
  "devdoc": {
    "kind": "dev",
    "methods": {},
    "version": 1
  },
  "userdoc": {
    "kind": "user",
    "methods": {},
    "version": 1
  }
}