{
  "contractName": "ItemFlow",
  "abi": [
    {
      "inputs": [
        {
          "internalType": "uint256",
          "name": "_id",
          "type": "uint256"
        },
        {
          "internalType": "string",
          "name": "_name",
          "type": "string"
        },
        {
          "internalType": "address",
          "name": "_master",
          "type": "address"
        },
        {
          "internalType": "string",
          "name": "_note",
          "type": "string"
        }
      ],
      "stateMutability": "nonpayable",
      "type": "constructor"
    },
    {
      "inputs": [],
      "name": "id",
      "outputs": [
        {
          "internalType": "uint256",
          "name": "",
          "type": "uint256"
        }
      ],
      "stateMutability": "view",
      "type": "function"
    },
    {
      "inputs": [
        {
          "internalType": "uint256",
          "name": "procedureID",
          "type": "uint256"
        }
      ],
      "name": "attachProcedure",
      "outputs": [
        {
          "internalType": "bool",
          "name": "",
          "type": "bool"
        }
      ],
      "stateMutability": "nonpayable",
      "type": "function"
    },
    {
      "inputs": [],
      "name": "checkItemFlow",
      "outputs": [
        {
          "internalType": "string",
          "name": "",
          "type": "string"
        },
        {
          "internalType": "address",
          "name": "",
          "type": "address"
        },
        {
          "internalType": "string",
          "name": "",
          "type": "string"
        },
        {
          "internalType": "uint256[]",
          "name": "",
          "type": "uint256[]"
        }
      ],
      "stateMutability": "view",
      "type": "function"
    }
  ],
  "bytecode": "0x60806040523480156200001157600080fd5b5060405162000ab338038062000ab38339818101604052810190620000379190620003a8565b83600081905550826001908051906020019062000056929190620000bb565b5081600260006101000a81548173ffffffffffffffffffffffffffffffffffffffff021916908373ffffffffffffffffffffffffffffffffffffffff1602179055508060039080519060200190620000b0929190620000bb565b5050505050620004bc565b828054620000c99062000487565b90600052602060002090601f016020900481019282620000ed576000855562000139565b82601f106200010857805160ff191683800117855562000139565b8280016001018555821562000139579182015b82811115620001385782518255916020019190600101906200011b565b5b5090506200014891906200014c565b5090565b5b80821115620001675760008160009055506001016200014d565b5090565b6000604051905090565b600080fd5b600080fd5b6000819050919050565b62000194816200017f565b8114620001a057600080fd5b50565b600081519050620001b48162000189565b92915050565b600080fd5b600080fd5b6000601f19601f8301169050919050565b7f4e487b7100000000000000000000000000000000000000000000000000000000600052604160045260246000fd5b6200020f82620001c4565b810181811067ffffffffffffffff82111715620002315762000230620001d5565b5b80604052505050565b6000620002466200016b565b905062000254828262000204565b919050565b600067ffffffffffffffff821115620002775762000276620001d5565b5b6200028282620001c4565b9050602081019050919050565b60005b83811015620002af57808201518184015260208101905062000292565b83811115620002bf576000848401525b50505050565b6000620002dc620002d68462000259565b6200023a565b905082815260208101848484011115620002fb57620002fa620001bf565b5b620003088482856200028f565b509392505050565b600082601f830112620003285762000327620001ba565b5b81516200033a848260208601620002c5565b91505092915050565b600073ffffffffffffffffffffffffffffffffffffffff82169050919050565b6000620003708262000343565b9050919050565b620003828162000363565b81146200038e57600080fd5b50565b600081519050620003a28162000377565b92915050565b60008060008060808587031215620003c557620003c462000175565b5b6000620003d587828801620001a3565b945050602085015167ffffffffffffffff811115620003f957620003f86200017a565b5b620004078782880162000310565b93505060406200041a8782880162000391565b925050606085015167ffffffffffffffff8111156200043e576200043d6200017a565b5b6200044c8782880162000310565b91505092959194509250565b7f4e487b7100000000000000000000000000000000000000000000000000000000600052602260045260246000fd5b60006002820490506001821680620004a057607f821691505b602082108103620004b657620004b562000458565b5b50919050565b6105e780620004cc6000396000f3fe608060405234801561001057600080fd5b50600436106100415760003560e01c806332b5190f1461004657806332f5303214610067578063af640d0f14610097575b600080fd5b61004e6100b5565b60405161005e9493929190610439565b60405180910390f35b610081600480360381019061007c91906104c4565b61025d565b60405161008e919061050c565b60405180910390f35b61009f610291565b6040516100ac9190610536565b60405180910390f35b606060006060806001600260009054906101000a900473ffffffffffffffffffffffffffffffffffffffff16600360048380546100f190610580565b80601f016020809104026020016040519081016040528092919081815260200182805461011d90610580565b801561016a5780601f1061013f5761010080835404028352916020019161016a565b820191906000526020600020905b81548152906001019060200180831161014d57829003601f168201915b5050505050935081805461017d90610580565b80601f01602080910402602001604051908101604052809291908181526020018280546101a990610580565b80156101f65780601f106101cb576101008083540402835291602001916101f6565b820191906000526020600020905b8154815290600101906020018083116101d957829003601f168201915b505050505091508080548060200260200160405190810160405280929190818152602001828054801561024857602002820191906000526020600020905b815481526020019060010190808311610234575b50505050509050935093509350935090919293565b6000600482908060018154018082558091505060019003906000526020600020016000909190919091505560019050919050565b60005481565b600081519050919050565b600082825260208201905092915050565b60005b838110156102d15780820151818401526020810190506102b6565b838111156102e0576000848401525b50505050565b6000601f19601f8301169050919050565b600061030282610297565b61030c81856102a2565b935061031c8185602086016102b3565b610325816102e6565b840191505092915050565b600073ffffffffffffffffffffffffffffffffffffffff82169050919050565b600061035b82610330565b9050919050565b61036b81610350565b82525050565b600081519050919050565b600082825260208201905092915050565b6000819050602082019050919050565b6000819050919050565b6103b08161039d565b82525050565b60006103c283836103a7565b60208301905092915050565b6000602082019050919050565b60006103e682610371565b6103f0818561037c565b93506103fb8361038d565b8060005b8381101561042c57815161041388826103b6565b975061041e836103ce565b9250506001810190506103ff565b5085935050505092915050565b6000608082019050818103600083015261045381876102f7565b90506104626020830186610362565b818103604083015261047481856102f7565b9050818103606083015261048881846103db565b905095945050505050565b600080fd5b6104a18161039d565b81146104ac57600080fd5b50565b6000813590506104be81610498565b92915050565b6000602082840312156104da576104d9610493565b5b60006104e8848285016104af565b91505092915050565b60008115159050919050565b610506816104f1565b82525050565b600060208201905061052160008301846104fd565b92915050565b6105308161039d565b82525050565b600060208201905061054b6000830184610527565b92915050565b7f4e487b7100000000000000000000000000000000000000000000000000000000600052602260045260246000fd5b6000600282049050600182168061059857607f821691505b6020821081036105ab576105aa610551565b5b5091905056fea264697066735822122004ee38b181c67cdbcf94b8438d10dd3d07c4cbb625ff9d194fd63df2d5f4a73764736f6c634300080d0033",
  "immutableReferences": {},
  "source": "contract ItemFlow {\r\n    //\r\n    uint256 public id;\r\n    string name;\r\n    address master;\r\n    string note;\r\n    uint256[] procedures;\r\n\r\n    constructor(\r\n        uint256 _id,\r\n        string memory _name,\r\n        address _master,\r\n        string memory _note\r\n    ) {\r\n        id = _id;\r\n        name = _name;\r\n        master = _master;\r\n        note = _note;\r\n    }\r\n\r\n    function attachProcedure(uint256 procedureID) public returns (bool) {\r\n        procedures.push(procedureID);\r\n        return true;\r\n    }\r\n\r\n    function checkItemFlow()\r\n        public\r\n        view\r\n        returns (\r\n            string memory,\r\n            address,\r\n            string memory,\r\n            uint256[] memory\r\n        )\r\n    {\r\n        return (name, master, note, procedures);\r\n    }\r\n}\r\n",
  "sourcePath": "/home/syj/Desktop/TraceabilitySystem/contracts/ItemFlow.sol",
  "compiler": {
    "name": "solc",
    "version": "0.8.13+commit.abaa5c0e.Emscripten.clang"
  },
  "schemaVersion": "3.4.4",
  "updatedAt": "2022-05-12T02:45:55.235Z",
  "devdoc": {
    "kind": "dev",
    "methods": {},
    "version": 1
  },
  "userdoc": {
    "kind": "user",
    "methods": {},
    "version": 1
  }
}