{
  "contractName": "Lender",
  "abi": [
    {
      "inputs": [
        {
          "internalType": "address",
          "name": "_id",
          "type": "address"
        },
        {
          "internalType": "string",
          "name": "_account",
          "type": "string"
        },
        {
          "internalType": "string",
          "name": "_passwd",
          "type": "string"
        },
        {
          "internalType": "string",
          "name": "_name",
          "type": "string"
        }
      ],
      "stateMutability": "nonpayable",
      "type": "constructor"
    },
    {
      "inputs": [],
      "name": "id",
      "outputs": [
        {
          "internalType": "address",
          "name": "",
          "type": "address"
        }
      ],
      "stateMutability": "view",
      "type": "function"
    },
    {
      "inputs": [],
      "name": "valid",
      "outputs": [
        {
          "internalType": "bool",
          "name": "",
          "type": "bool"
        }
      ],
      "stateMutability": "view",
      "type": "function"
    },
    {
      "inputs": [
        {
          "internalType": "uint256",
          "name": "cashFlowID",
          "type": "uint256"
        }
      ],
      "name": "attachCashFlow",
      "outputs": [
        {
          "internalType": "bool",
          "name": "",
          "type": "bool"
        }
      ],
      "stateMutability": "nonpayable",
      "type": "function"
    },
    {
      "inputs": [],
      "name": "getLenderInfo",
      "outputs": [
        {
          "internalType": "address",
          "name": "",
          "type": "address"
        },
        {
          "internalType": "string",
          "name": "",
          "type": "string"
        },
        {
          "internalType": "string",
          "name": "",
          "type": "string"
        },
        {
          "internalType": "uint256[]",
          "name": "",
          "type": "uint256[]"
        }
      ],
      "stateMutability": "view",
      "type": "function"
    },
    {
      "inputs": [],
      "name": "deleteLender",
      "outputs": [
        {
          "internalType": "bool",
          "name": "",
          "type": "bool"
        }
      ],
      "stateMutability": "nonpayable",
      "type": "function"
    }
  ],
  "bytecode": "0x60806040526001600460006101000a81548160ff0219169083151502179055503480156200002c57600080fd5b5060405162000b7d38038062000b7d833981810160405281019062000052919062000399565b836000806101000a81548173ffffffffffffffffffffffffffffffffffffffff021916908373ffffffffffffffffffffffffffffffffffffffff1602179055508260019080519060200190620000aa929190620000e7565b508160029080519060200190620000c3929190620000e7565b508060039080519060200190620000dc929190620000e7565b5050505050620004cc565b828054620000f59062000497565b90600052602060002090601f01602090048101928262000119576000855562000165565b82601f106200013457805160ff191683800117855562000165565b8280016001018555821562000165579182015b828111156200016457825182559160200191906001019062000147565b5b50905062000174919062000178565b5090565b5b808211156200019357600081600090555060010162000179565b5090565b6000604051905090565b600080fd5b600080fd5b600073ffffffffffffffffffffffffffffffffffffffff82169050919050565b6000620001d882620001ab565b9050919050565b620001ea81620001cb565b8114620001f657600080fd5b50565b6000815190506200020a81620001df565b92915050565b600080fd5b600080fd5b6000601f19601f8301169050919050565b7f4e487b7100000000000000000000000000000000000000000000000000000000600052604160045260246000fd5b62000265826200021a565b810181811067ffffffffffffffff821117156200028757620002866200022b565b5b80604052505050565b60006200029c62000197565b9050620002aa82826200025a565b919050565b600067ffffffffffffffff821115620002cd57620002cc6200022b565b5b620002d8826200021a565b9050602081019050919050565b60005b8381101562000305578082015181840152602081019050620002e8565b8381111562000315576000848401525b50505050565b6000620003326200032c84620002af565b62000290565b90508281526020810184848401111562000351576200035062000215565b5b6200035e848285620002e5565b509392505050565b600082601f8301126200037e576200037d62000210565b5b8151620003908482602086016200031b565b91505092915050565b60008060008060808587031215620003b657620003b5620001a1565b5b6000620003c687828801620001f9565b945050602085015167ffffffffffffffff811115620003ea57620003e9620001a6565b5b620003f88782880162000366565b935050604085015167ffffffffffffffff8111156200041c576200041b620001a6565b5b6200042a8782880162000366565b925050606085015167ffffffffffffffff8111156200044e576200044d620001a6565b5b6200045c8782880162000366565b91505092959194509250565b7f4e487b7100000000000000000000000000000000000000000000000000000000600052602260045260246000fd5b60006002820490506001821680620004b057607f821691505b602082108103620004c657620004c562000468565b5b50919050565b6106a180620004dc6000396000f3fe608060405234801561001057600080fd5b50600436106100575760003560e01c806377c4d9dd1461005c578063af640d0f1461007d578063bb4397b91461009b578063bb70bdaa146100cb578063c1991219146100e9575b600080fd5b610064610107565b6040516100749493929190610502565b60405180910390f35b6100856102ad565b604051610092919061055c565b60405180910390f35b6100b560048036038101906100b091906105a8565b6102d1565b6040516100c291906105f0565b60405180910390f35b6100d3610305565b6040516100e091906105f0565b60405180910390f35b6100f161034d565b6040516100fe91906105f0565b60405180910390f35b6000606080606060008054906101000a900473ffffffffffffffffffffffffffffffffffffffff166001600360058280546101419061063a565b80601f016020809104026020016040519081016040528092919081815260200182805461016d9061063a565b80156101ba5780601f1061018f576101008083540402835291602001916101ba565b820191906000526020600020905b81548152906001019060200180831161019d57829003601f168201915b505050505092508180546101cd9061063a565b80601f01602080910402602001604051908101604052809291908181526020018280546101f99061063a565b80156102465780601f1061021b57610100808354040283529160200191610246565b820191906000526020600020905b81548152906001019060200180831161022957829003601f168201915b505050505091508080548060200260200160405190810160405280929190818152602001828054801561029857602002820191906000526020600020905b815481526020019060010190808311610284575b50505050509050935093509350935090919293565b60008054906101000a900473ffffffffffffffffffffffffffffffffffffffff1681565b6000600582908060018154018082558091505060019003906000526020600020016000909190919091505560019050919050565b600080600460006101000a81548160ff02191690831515021790555060001515600460009054906101000a900460ff16151503610345576001905061034a565b600090505b90565b600460009054906101000a900460ff1681565b600073ffffffffffffffffffffffffffffffffffffffff82169050919050565b600061038b82610360565b9050919050565b61039b81610380565b82525050565b600081519050919050565b600082825260208201905092915050565b60005b838110156103db5780820151818401526020810190506103c0565b838111156103ea576000848401525b50505050565b6000601f19601f8301169050919050565b600061040c826103a1565b61041681856103ac565b93506104268185602086016103bd565b61042f816103f0565b840191505092915050565b600081519050919050565b600082825260208201905092915050565b6000819050602082019050919050565b6000819050919050565b61047981610466565b82525050565b600061048b8383610470565b60208301905092915050565b6000602082019050919050565b60006104af8261043a565b6104b98185610445565b93506104c483610456565b8060005b838110156104f55781516104dc888261047f565b97506104e783610497565b9250506001810190506104c8565b5085935050505092915050565b60006080820190506105176000830187610392565b81810360208301526105298186610401565b9050818103604083015261053d8185610401565b9050818103606083015261055181846104a4565b905095945050505050565b60006020820190506105716000830184610392565b92915050565b600080fd5b61058581610466565b811461059057600080fd5b50565b6000813590506105a28161057c565b92915050565b6000602082840312156105be576105bd610577565b5b60006105cc84828501610593565b91505092915050565b60008115159050919050565b6105ea816105d5565b82525050565b600060208201905061060560008301846105e1565b92915050565b7f4e487b7100000000000000000000000000000000000000000000000000000000600052602260045260246000fd5b6000600282049050600182168061065257607f821691505b6020821081036106655761066461060b565b5b5091905056fea264697066735822122064805670f2f32cc58acc25d1174678f94b562e90b9c135b3c3364ccb80c7307a64736f6c634300080d0033",
  "immutableReferences": {},
  "source": "contract Lender {\r\n    //\r\n    address public id;\r\n    string account;\r\n    string passwd;\r\n    string name;\r\n    bool public valid = true;\r\n    uint256[] cashFlows;\r\n\r\n    constructor(\r\n        address _id,\r\n        string memory _account,\r\n        string memory _passwd,\r\n        string memory _name\r\n    ) public {\r\n        id = _id;\r\n        account = _account;\r\n        passwd = _passwd;\r\n        name = _name;\r\n    }\r\n\r\n    function attachCashFlow(uint256 cashFlowID) public returns (bool) {\r\n        cashFlows.push(cashFlowID);\r\n        return true;\r\n    }\r\n\r\n    function getLenderInfo()\r\n        public\r\n        view\r\n        returns (\r\n            address,\r\n            string memory,\r\n            string memory,\r\n            uint256[] memory\r\n        )\r\n    {\r\n        return (id, account, name, cashFlows);\r\n    }\r\n\r\n    function deleteLender() public returns (bool) {\r\n        valid = false;\r\n        if (valid == false) return true;\r\n        else return false;\r\n    }\r\n}\r\n",
  "sourcePath": "/home/syj/Desktop/TraceabilitySystem/contracts/Lender.sol",
  "compiler": {
    "name": "solc",
    "version": "0.8.13+commit.abaa5c0e.Emscripten.clang"
  },
  "schemaVersion": "3.4.4",
  "updatedAt": "2022-05-12T02:45:55.237Z",
  "devdoc": {
    "kind": "dev",
    "methods": {},
    "version": 1
  },
  "userdoc": {
    "kind": "user",
    "methods": {},
    "version": 1
  }
}