{
  "contractName": "Manager",
  "abi": [
    {
      "inputs": [
        {
          "internalType": "address",
          "name": "_id",
          "type": "address"
        },
        {
          "internalType": "string",
          "name": "_passwd",
          "type": "string"
        }
      ],
      "stateMutability": "nonpayable",
      "type": "constructor"
    },
    {
      "inputs": [],
      "name": "id",
      "outputs": [
        {
          "internalType": "address",
          "name": "",
          "type": "address"
        }
      ],
      "stateMutability": "view",
      "type": "function"
    },
    {
      "inputs": [],
      "name": "valid",
      "outputs": [
        {
          "internalType": "bool",
          "name": "",
          "type": "bool"
        }
      ],
      "stateMutability": "view",
      "type": "function"
    },
    {
      "inputs": [],
      "name": "deleteManager",
      "outputs": [
        {
          "internalType": "bool",
          "name": "",
          "type": "bool"
        }
      ],
      "stateMutability": "nonpayable",
      "type": "function"
    }
  ],
  "bytecode": "0x60806040526001600260006101000a81548160ff02191690831515021790555034801561002b57600080fd5b506040516105dc3803806105dc833981810160405281019061004d919061032a565b816000806101000a81548173ffffffffffffffffffffffffffffffffffffffff021916908373ffffffffffffffffffffffffffffffffffffffff16021790555080600190805190602001906100a39291906100ab565b5050506103e6565b8280546100b7906103b5565b90600052602060002090601f0160209004810192826100d95760008555610120565b82601f106100f257805160ff1916838001178555610120565b82800160010185558215610120579182015b8281111561011f578251825591602001919060010190610104565b5b50905061012d9190610131565b5090565b5b8082111561014a576000816000905550600101610132565b5090565b6000604051905090565b600080fd5b600080fd5b600073ffffffffffffffffffffffffffffffffffffffff82169050919050565b600061018d82610162565b9050919050565b61019d81610182565b81146101a857600080fd5b50565b6000815190506101ba81610194565b92915050565b600080fd5b600080fd5b6000601f19601f8301169050919050565b7f4e487b7100000000000000000000000000000000000000000000000000000000600052604160045260246000fd5b610213826101ca565b810181811067ffffffffffffffff82111715610232576102316101db565b5b80604052505050565b600061024561014e565b9050610251828261020a565b919050565b600067ffffffffffffffff821115610271576102706101db565b5b61027a826101ca565b9050602081019050919050565b60005b838110156102a557808201518184015260208101905061028a565b838111156102b4576000848401525b50505050565b60006102cd6102c884610256565b61023b565b9050828152602081018484840111156102e9576102e86101c5565b5b6102f4848285610287565b509392505050565b600082601f830112610311576103106101c0565b5b81516103218482602086016102ba565b91505092915050565b6000806040838503121561034157610340610158565b5b600061034f858286016101ab565b925050602083015167ffffffffffffffff8111156103705761036f61015d565b5b61037c858286016102fc565b9150509250929050565b7f4e487b7100000000000000000000000000000000000000000000000000000000600052602260045260246000fd5b600060028204905060018216806103cd57607f821691505b6020821081036103e0576103df610386565b5b50919050565b6101e7806103f56000396000f3fe608060405234801561001057600080fd5b50600436106100415760003560e01c8063a631434214610046578063af640d0f14610064578063c199121914610082575b600080fd5b61004e6100a0565b60405161005b919061013a565b60405180910390f35b61006c6100e8565b6040516100799190610196565b60405180910390f35b61008a61010c565b604051610097919061013a565b60405180910390f35b600080600260006101000a81548160ff02191690831515021790555060001515600260009054906101000a900460ff161515036100e057600190506100e5565b600090505b90565b60008054906101000a900473ffffffffffffffffffffffffffffffffffffffff1681565b600260009054906101000a900460ff1681565b60008115159050919050565b6101348161011f565b82525050565b600060208201905061014f600083018461012b565b92915050565b600073ffffffffffffffffffffffffffffffffffffffff82169050919050565b600061018082610155565b9050919050565b61019081610175565b82525050565b60006020820190506101ab6000830184610187565b9291505056fea2646970667358221220cbe55e793b1f7d75417df28ff487eb6ff42a969e53329aa0455a5d90cd8a16cc64736f6c634300080d0033",
  "immutableReferences": {},
  "source": "contract Manager {\r\n    address public id;\r\n    string passwd;\r\n    bool public valid = true;\r\n\r\n    constructor(address _id, string memory _passwd) {\r\n        id = _id;\r\n        passwd = _passwd;\r\n    }\r\n\r\n    function deleteManager() public returns (bool) {\r\n        valid = false;\r\n        if (valid == false) return true;\r\n        else return false;\r\n    }\r\n\r\n    //     function deleteLender(address id) public returns (bool) {\r\n    //     //\r\n    //     for (uint256 i = 0; i < lenders.length; i++) {\r\n    //         if (lenders[i].id() == id) {\r\n    //             bool result = lenders[i].deleteLender();\r\n    //             emit DeleteLender(id, result);\r\n    //             return result;\r\n    //         }\r\n    //     }\r\n    // }\r\n\r\n    // function deleteBorrower(address id) public returns (bool) {\r\n    //     //\r\n    //     for (uint256 i = 0; i < borrowers.length; i++) {\r\n    //         if (borrowers[i].id() == id) {\r\n    //             bool result = borrowers[i].deleteBorrower();\r\n    //             emit DeleteBorrower(id, result);\r\n    //             return result;\r\n    //         }\r\n    //     }\r\n    // }\r\n\r\n    // function deleteManager(address id) public returns (bool) {\r\n    //     //\r\n    //     for (uint256 i = 0; i < lenders.length; i++) {\r\n    //         if (managers[i].id() == id) {\r\n    //             bool result = managers[i].deleteManager();\r\n    //             emit DeleteManager(id, result);\r\n    //             return result;\r\n    //         }\r\n    //     }\r\n    // }\r\n}\r\n",
  "sourcePath": "/home/syj/Desktop/TraceabilitySystem/contracts/Manager.sol",
  "compiler": {
    "name": "solc",
    "version": "0.8.13+commit.abaa5c0e.Emscripten.clang"
  },
  "schemaVersion": "3.4.4",
  "updatedAt": "2022-05-12T02:45:55.240Z",
  "devdoc": {
    "kind": "dev",
    "methods": {},
    "version": 1
  },
  "userdoc": {
    "kind": "user",
    "methods": {},
    "version": 1
  }
}