{
  "contractName": "PartsFlow",
  "abi": [
    {
      "inputs": [
        {
          "internalType": "uint256",
          "name": "_id",
          "type": "uint256"
        },
        {
          "internalType": "address",
          "name": "_createrID",
          "type": "address"
        },
        {
          "internalType": "string",
          "name": "_name",
          "type": "string"
        },
        {
          "internalType": "string",
          "name": "_partsType",
          "type": "string"
        },
        {
          "internalType": "string",
          "name": "_batch",
          "type": "string"
        },
        {
          "internalType": "uint256[]",
          "name": "_formerparts",
          "type": "uint256[]"
        },
        {
          "internalType": "string",
          "name": "_note",
          "type": "string"
        }
      ],
      "stateMutability": "nonpayable",
      "type": "constructor"
    },
    {
      "inputs": [],
      "name": "id",
      "outputs": [
        {
          "internalType": "uint256",
          "name": "",
          "type": "uint256"
        }
      ],
      "stateMutability": "view",
      "type": "function"
    },
    {
      "inputs": [
        {
          "internalType": "uint256",
          "name": "procedureID",
          "type": "uint256"
        }
      ],
      "name": "attachProcedure",
      "outputs": [
        {
          "internalType": "bool",
          "name": "",
          "type": "bool"
        }
      ],
      "stateMutability": "nonpayable",
      "type": "function"
    },
    {
      "inputs": [],
      "name": "checkPartsFlow",
      "outputs": [
        {
          "internalType": "address",
          "name": "",
          "type": "address"
        },
        {
          "internalType": "string",
          "name": "",
          "type": "string"
        },
        {
          "internalType": "string",
          "name": "",
          "type": "string"
        },
        {
          "internalType": "string",
          "name": "",
          "type": "string"
        },
        {
          "internalType": "string",
          "name": "",
          "type": "string"
        },
        {
          "internalType": "uint256[]",
          "name": "",
          "type": "uint256[]"
        },
        {
          "internalType": "uint256[]",
          "name": "",
          "type": "uint256[]"
        }
      ],
      "stateMutability": "view",
      "type": "function"
    }
  ],
  "bytecode": "0x60806040523480156200001157600080fd5b5060405162000e8b38038062000e8b833981810160405281019062000037919062000523565b8660008190555085600160006101000a81548173ffffffffffffffffffffffffffffffffffffffff021916908373ffffffffffffffffffffffffffffffffffffffff16021790555084600290805190602001906200009792919062000109565b508360039080519060200190620000b092919062000109565b508260049080519060200190620000c992919062000109565b508160079080519060200190620000e29291906200019a565b508060059080519060200190620000fb92919062000109565b5050505050505050620006d5565b8280546200011790620006a0565b90600052602060002090601f0160209004810192826200013b576000855562000187565b82601f106200015657805160ff191683800117855562000187565b8280016001018555821562000187579182015b828111156200018657825182559160200191906001019062000169565b5b509050620001969190620001ec565b5090565b828054828255906000526020600020908101928215620001d9579160200282015b82811115620001d8578251825591602001919060010190620001bb565b5b509050620001e89190620001ec565b5090565b5b8082111562000207576000816000905550600101620001ed565b5090565b6000604051905090565b600080fd5b600080fd5b6000819050919050565b62000234816200021f565b81146200024057600080fd5b50565b600081519050620002548162000229565b92915050565b600073ffffffffffffffffffffffffffffffffffffffff82169050919050565b600062000287826200025a565b9050919050565b62000299816200027a565b8114620002a557600080fd5b50565b600081519050620002b9816200028e565b92915050565b600080fd5b600080fd5b6000601f19601f8301169050919050565b7f4e487b7100000000000000000000000000000000000000000000000000000000600052604160045260246000fd5b6200031482620002c9565b810181811067ffffffffffffffff82111715620003365762000335620002da565b5b80604052505050565b60006200034b6200020b565b905062000359828262000309565b919050565b600067ffffffffffffffff8211156200037c576200037b620002da565b5b6200038782620002c9565b9050602081019050919050565b60005b83811015620003b457808201518184015260208101905062000397565b83811115620003c4576000848401525b50505050565b6000620003e1620003db846200035e565b6200033f565b9050828152602081018484840111156200040057620003ff620002c4565b5b6200040d84828562000394565b509392505050565b600082601f8301126200042d576200042c620002bf565b5b81516200043f848260208601620003ca565b91505092915050565b600067ffffffffffffffff821115620004665762000465620002da565b5b602082029050602081019050919050565b600080fd5b6000620004936200048d8462000448565b6200033f565b90508083825260208201905060208402830185811115620004b957620004b862000477565b5b835b81811015620004e65780620004d1888262000243565b845260208401935050602081019050620004bb565b5050509392505050565b600082601f830112620005085762000507620002bf565b5b81516200051a8482602086016200047c565b91505092915050565b600080600080600080600060e0888a03121562000545576200054462000215565b5b6000620005558a828b0162000243565b9750506020620005688a828b01620002a8565b965050604088015167ffffffffffffffff8111156200058c576200058b6200021a565b5b6200059a8a828b0162000415565b955050606088015167ffffffffffffffff811115620005be57620005bd6200021a565b5b620005cc8a828b0162000415565b945050608088015167ffffffffffffffff811115620005f057620005ef6200021a565b5b620005fe8a828b0162000415565b93505060a088015167ffffffffffffffff8111156200062257620006216200021a565b5b620006308a828b01620004f0565b92505060c088015167ffffffffffffffff8111156200065457620006536200021a565b5b620006628a828b0162000415565b91505092959891949750929550565b7f4e487b7100000000000000000000000000000000000000000000000000000000600052602260045260246000fd5b60006002820490506001821680620006b957607f821691505b602082108103620006cf57620006ce62000671565b5b50919050565b6107a680620006e56000396000f3fe608060405234801561001057600080fd5b50600436106100415760003560e01c806332f5303214610046578063af640d0f14610076578063e347468814610094575b600080fd5b610060600480360381019061005b9190610452565b6100b8565b60405161006d919061049a565b60405180910390f35b61007e6100ec565b60405161008b91906104c4565b60405180910390f35b61009c6100f2565b6040516100af9796959493929190610677565b60405180910390f35b6000600682908060018154018082558091505060019003906000526020600020016000909190919091505560019050919050565b60005481565b6000606080606080606080600160009054906101000a900473ffffffffffffffffffffffffffffffffffffffff166002600360046005600660078580546101389061073f565b80601f01602080910402602001604051908101604052809291908181526020018280546101649061073f565b80156101b15780601f10610186576101008083540402835291602001916101b1565b820191906000526020600020905b81548152906001019060200180831161019457829003601f168201915b505050505095508480546101c49061073f565b80601f01602080910402602001604051908101604052809291908181526020018280546101f09061073f565b801561023d5780601f106102125761010080835404028352916020019161023d565b820191906000526020600020905b81548152906001019060200180831161022057829003601f168201915b505050505094508380546102509061073f565b80601f016020809104026020016040519081016040528092919081815260200182805461027c9061073f565b80156102c95780601f1061029e576101008083540402835291602001916102c9565b820191906000526020600020905b8154815290600101906020018083116102ac57829003601f168201915b505050505093508280546102dc9061073f565b80601f01602080910402602001604051908101604052809291908181526020018280546103089061073f565b80156103555780601f1061032a57610100808354040283529160200191610355565b820191906000526020600020905b81548152906001019060200180831161033857829003601f168201915b50505050509250818054806020026020016040519081016040528092919081815260200182805480156103a757602002820191906000526020600020905b815481526020019060010190808311610393575b50505050509150808054806020026020016040519081016040528092919081815260200182805480156103f957602002820191906000526020600020905b8154815260200190600101908083116103e5575b50505050509050965096509650965096509650965090919293949596565b600080fd5b6000819050919050565b61042f8161041c565b811461043a57600080fd5b50565b60008135905061044c81610426565b92915050565b60006020828403121561046857610467610417565b5b60006104768482850161043d565b91505092915050565b60008115159050919050565b6104948161047f565b82525050565b60006020820190506104af600083018461048b565b92915050565b6104be8161041c565b82525050565b60006020820190506104d960008301846104b5565b92915050565b600073ffffffffffffffffffffffffffffffffffffffff82169050919050565b600061050a826104df565b9050919050565b61051a816104ff565b82525050565b600081519050919050565b600082825260208201905092915050565b60005b8381101561055a57808201518184015260208101905061053f565b83811115610569576000848401525b50505050565b6000601f19601f8301169050919050565b600061058b82610520565b610595818561052b565b93506105a581856020860161053c565b6105ae8161056f565b840191505092915050565b600081519050919050565b600082825260208201905092915050565b6000819050602082019050919050565b6105ee8161041c565b82525050565b600061060083836105e5565b60208301905092915050565b6000602082019050919050565b6000610624826105b9565b61062e81856105c4565b9350610639836105d5565b8060005b8381101561066a57815161065188826105f4565b975061065c8361060c565b92505060018101905061063d565b5085935050505092915050565b600060e08201905061068c600083018a610511565b818103602083015261069e8189610580565b905081810360408301526106b28188610580565b905081810360608301526106c68187610580565b905081810360808301526106da8186610580565b905081810360a08301526106ee8185610619565b905081810360c08301526107028184610619565b905098975050505050505050565b7f4e487b7100000000000000000000000000000000000000000000000000000000600052602260045260246000fd5b6000600282049050600182168061075757607f821691505b60208210810361076a57610769610710565b5b5091905056fea26469706673582212205ded2538ce4b69be32c9bee367929d9a2b0d941094851827918abaf1b0a9fb7864736f6c634300080d0033",
  "immutableReferences": {},
  "source": "contract PartsFlow {\r\n    //\r\n    uint256 public id; //ID\r\n    address createrID; //ID\r\n    string name; //\r\n    string partsType; //\r\n    string batch; //\r\n    string note; //\r\n    uint256[] procedures; //\r\n    uint256[] formerparts; //ID\r\n\r\n    constructor(\r\n        uint256 _id,\r\n        address _createrID,\r\n        string memory _name,\r\n        string memory _partsType,\r\n        string memory _batch,\r\n        uint256[] memory _formerparts,\r\n        string memory _note\r\n    ) {\r\n        id = _id;\r\n        createrID = _createrID;\r\n        name = _name;\r\n        partsType = _partsType;\r\n        batch = _batch;\r\n        formerparts = _formerparts;\r\n        note = _note;\r\n    }\r\n\r\n    function attachProcedure(uint256 procedureID) public returns (bool) {\r\n        procedures.push(procedureID);\r\n        return true;\r\n    }\r\n\r\n    function checkPartsFlow()\r\n        public\r\n        view\r\n        returns (\r\n            address,\r\n            string memory,\r\n            string memory,\r\n            string memory,\r\n            string memory,\r\n            uint256[] memory,\r\n            uint256[] memory\r\n        )\r\n    {\r\n        return (\r\n            createrID,\r\n            name,\r\n            partsType,\r\n            batch,\r\n            note,\r\n            procedures,\r\n            formerparts\r\n        );\r\n    }\r\n}\r\n",
  "sourcePath": "/home/syj/Desktop/TraceabilitySystem/contracts/PartsFlow.sol",
  "compiler": {
    "name": "solc",
    "version": "0.8.13+commit.abaa5c0e.Emscripten.clang"
  },
  "schemaVersion": "3.4.4",
  "updatedAt": "2022-05-12T02:45:55.254Z",
  "devdoc": {
    "kind": "dev",
    "methods": {},
    "version": 1
  },
  "userdoc": {
    "kind": "user",
    "methods": {},
    "version": 1
  }
}