{
  "contractName": "Procedure",
  "abi": [
    {
      "inputs": [
        {
          "internalType": "uint256",
          "name": "_id",
          "type": "uint256"
        },
        {
          "internalType": "uint256",
          "name": "_partsID",
          "type": "uint256"
        },
        {
          "internalType": "address",
          "name": "_processorID",
          "type": "address"
        },
        {
          "internalType": "enum ProcedureType",
          "name": "_procedureType",
          "type": "uint8"
        },
        {
          "internalType": "string",
          "name": "_operation",
          "type": "string"
        }
      ],
      "stateMutability": "nonpayable",
      "type": "constructor"
    },
    {
      "inputs": [],
      "name": "id",
      "outputs": [
        {
          "internalType": "uint256",
          "name": "",
          "type": "uint256"
        }
      ],
      "stateMutability": "view",
      "type": "function"
    },
    {
      "inputs": [],
      "name": "checkProcedure",
      "outputs": [
        {
          "internalType": "uint256",
          "name": "",
          "type": "uint256"
        },
        {
          "internalType": "address",
          "name": "",
          "type": "address"
        },
        {
          "internalType": "enum ProcedureType",
          "name": "",
          "type": "uint8"
        },
        {
          "internalType": "string",
          "name": "",
          "type": "string"
        },
        {
          "internalType": "uint256",
          "name": "",
          "type": "uint256"
        }
      ],
      "stateMutability": "view",
      "type": "function"
    }
  ],
  "bytecode": "0x60806040523480156200001157600080fd5b5060405162000914380380620009148339818101604052810190620000379190620003f3565b846000819055508360018190555082600260006101000a81548173ffffffffffffffffffffffffffffffffffffffff021916908373ffffffffffffffffffffffffffffffffffffffff16021790555081600260146101000a81548160ff02191690836001811115620000ae57620000ad6200049a565b5b02179055508060039080519060200190620000cb929190620000de565b504260048190555050505050506200052d565b828054620000ec90620004f8565b90600052602060002090601f0160209004810192826200011057600085556200015c565b82601f106200012b57805160ff19168380011785556200015c565b828001600101855582156200015c579182015b828111156200015b5782518255916020019190600101906200013e565b5b5090506200016b91906200016f565b5090565b5b808211156200018a57600081600090555060010162000170565b5090565b6000604051905090565b600080fd5b600080fd5b6000819050919050565b620001b781620001a2565b8114620001c357600080fd5b50565b600081519050620001d781620001ac565b92915050565b600073ffffffffffffffffffffffffffffffffffffffff82169050919050565b60006200020a82620001dd565b9050919050565b6200021c81620001fd565b81146200022857600080fd5b50565b6000815190506200023c8162000211565b92915050565b600281106200025057600080fd5b50565b600081519050620002648162000242565b92915050565b600080fd5b600080fd5b6000601f19601f8301169050919050565b7f4e487b7100000000000000000000000000000000000000000000000000000000600052604160045260246000fd5b620002bf8262000274565b810181811067ffffffffffffffff82111715620002e157620002e062000285565b5b80604052505050565b6000620002f66200018e565b9050620003048282620002b4565b919050565b600067ffffffffffffffff82111562000327576200032662000285565b5b620003328262000274565b9050602081019050919050565b60005b838110156200035f57808201518184015260208101905062000342565b838111156200036f576000848401525b50505050565b60006200038c620003868462000309565b620002ea565b905082815260208101848484011115620003ab57620003aa6200026f565b5b620003b88482856200033f565b509392505050565b600082601f830112620003d857620003d76200026a565b5b8151620003ea84826020860162000375565b91505092915050565b600080600080600060a0868803121562000412576200041162000198565b5b60006200042288828901620001c6565b95505060206200043588828901620001c6565b945050604062000448888289016200022b565b93505060606200045b8882890162000253565b925050608086015167ffffffffffffffff8111156200047f576200047e6200019d565b5b6200048d88828901620003c0565b9150509295509295909350565b7f4e487b7100000000000000000000000000000000000000000000000000000000600052602160045260246000fd5b7f4e487b7100000000000000000000000000000000000000000000000000000000600052602260045260246000fd5b600060028204905060018216806200051157607f821691505b602082108103620005275762000526620004c9565b5b50919050565b6103d7806200053d6000396000f3fe608060405234801561001057600080fd5b50600436106100365760003560e01c8063af640d0f1461003b578063c791b35c14610059575b600080fd5b61004361007b565b604051610050919061017b565b60405180910390f35b610061610081565b6040516100729594939291906102e7565b60405180910390f35b60005481565b600080600060606000600154600260009054906101000a900473ffffffffffffffffffffffffffffffffffffffff16600260149054906101000a900460ff1660036004548180546100d190610370565b80601f01602080910402602001604051908101604052809291908181526020018280546100fd90610370565b801561014a5780601f1061011f5761010080835404028352916020019161014a565b820191906000526020600020905b81548152906001019060200180831161012d57829003601f168201915b50505050509150945094509450945094509091929394565b6000819050919050565b61017581610162565b82525050565b6000602082019050610190600083018461016c565b92915050565b600073ffffffffffffffffffffffffffffffffffffffff82169050919050565b60006101c182610196565b9050919050565b6101d1816101b6565b82525050565b7f4e487b7100000000000000000000000000000000000000000000000000000000600052602160045260246000fd5b60028110610217576102166101d7565b5b50565b600081905061022882610206565b919050565b60006102388261021a565b9050919050565b6102488161022d565b82525050565b600081519050919050565b600082825260208201905092915050565b60005b8381101561028857808201518184015260208101905061026d565b83811115610297576000848401525b50505050565b6000601f19601f8301169050919050565b60006102b98261024e565b6102c38185610259565b93506102d381856020860161026a565b6102dc8161029d565b840191505092915050565b600060a0820190506102fc600083018861016c565b61030960208301876101c8565b610316604083018661023f565b818103606083015261032881856102ae565b9050610337608083018461016c565b9695505050505050565b7f4e487b7100000000000000000000000000000000000000000000000000000000600052602260045260246000fd5b6000600282049050600182168061038857607f821691505b60208210810361039b5761039a610341565b5b5091905056fea26469706673582212203675d2e79e297f6f04217421eeaddc5ae996a68102c09dfb06898d8901946d8164736f6c634300080d0033",
  "immutableReferences": {},
  "source": "enum ProcedureType {\r\n    technical,\r\n    assemble\r\n}\r\n\r\ncontract Procedure {\r\n    //\r\n    uint256 public id; //ID\r\n    uint256 partsID; //ID\r\n    address processorID; //ID\r\n    ProcedureType procedureType; //\r\n    string operation; //\r\n    uint256 timestamp; //\r\n\r\n    constructor(\r\n        uint256 _id,\r\n        uint256 _partsID,\r\n        address _processorID,\r\n        ProcedureType _procedureType,\r\n        string memory _operation\r\n    ) {\r\n        id = _id;\r\n        partsID = _partsID;\r\n        processorID = _processorID;\r\n        procedureType = _procedureType;\r\n        operation = _operation;\r\n        timestamp = block.timestamp;\r\n    }\r\n\r\n    function checkProcedure()\r\n        public\r\n        view\r\n        returns (\r\n            uint256,\r\n            address,\r\n            ProcedureType,\r\n            string memory,\r\n            uint256\r\n        )\r\n    {\r\n        return (partsID, processorID, procedureType, operation, timestamp);\r\n    }\r\n}\r\n",
  "sourcePath": "/home/syj/Desktop/TraceabilitySystem/contracts/Procedure.sol",
  "compiler": {
    "name": "solc",
    "version": "0.8.13+commit.abaa5c0e.Emscripten.clang"
  },
  "schemaVersion": "3.4.4",
  "updatedAt": "2022-05-12T02:45:55.261Z",
  "devdoc": {
    "kind": "dev",
    "methods": {},
    "version": 1
  },
  "userdoc": {
    "kind": "user",
    "methods": {},
    "version": 1
  }
}