{
  "contractName": "TraceabilitySystem",
  "abi": [
    {
      "anonymous": false,
      "inputs": [
        {
          "indexed": false,
          "internalType": "address",
          "name": "from",
          "type": "address"
        },
        {
          "indexed": false,
          "internalType": "address",
          "name": "to",
          "type": "address"
        },
        {
          "indexed": false,
          "internalType": "uint256",
          "name": "amount",
          "type": "uint256"
        }
      ],
      "name": "CreateCashFlow",
      "type": "event"
    },
    {
      "anonymous": false,
      "inputs": [
        {
          "indexed": false,
          "internalType": "address",
          "name": "from",
          "type": "address"
        },
        {
          "indexed": false,
          "internalType": "address",
          "name": "to",
          "type": "address"
        },
        {
          "indexed": false,
          "internalType": "uint256",
          "name": "cashFlowID",
          "type": "uint256"
        },
        {
          "indexed": false,
          "internalType": "uint256",
          "name": "amount",
          "type": "uint256"
        }
      ],
      "name": "CreateTransaction",
      "type": "event"
    },
    {
      "inputs": [
        {
          "internalType": "string",
          "name": "account",
          "type": "string"
        },
        {
          "internalType": "string",
          "name": "passwd",
          "type": "string"
        },
        {
          "internalType": "string",
          "name": "name",
          "type": "string"
        }
      ],
      "name": "createLender",
      "outputs": [],
      "stateMutability": "nonpayable",
      "type": "function"
    },
    {
      "inputs": [
        {
          "internalType": "string",
          "name": "account",
          "type": "string"
        },
        {
          "internalType": "string",
          "name": "passwd",
          "type": "string"
        },
        {
          "internalType": "string",
          "name": "name",
          "type": "string"
        }
      ],
      "name": "createBorrower",
      "outputs": [],
      "stateMutability": "nonpayable",
      "type": "function"
    },
    {
      "inputs": [
        {
          "internalType": "string",
          "name": "passwd",
          "type": "string"
        }
      ],
      "name": "createManager",
      "outputs": [],
      "stateMutability": "nonpayable",
      "type": "function"
    },
    {
      "inputs": [],
      "name": "deleteLender",
      "outputs": [],
      "stateMutability": "nonpayable",
      "type": "function"
    },
    {
      "inputs": [],
      "name": "deleteBorrower",
      "outputs": [],
      "stateMutability": "nonpayable",
      "type": "function"
    },
    {
      "inputs": [],
      "name": "deleteManager",
      "outputs": [],
      "stateMutability": "nonpayable",
      "type": "function"
    },
    {
      "inputs": [],
      "name": "getLenderInfo",
      "outputs": [
        {
          "internalType": "address",
          "name": "",
          "type": "address"
        },
        {
          "internalType": "string",
          "name": "",
          "type": "string"
        },
        {
          "internalType": "string",
          "name": "",
          "type": "string"
        },
        {
          "internalType": "uint256[]",
          "name": "",
          "type": "uint256[]"
        }
      ],
      "stateMutability": "view",
      "type": "function",
      "constant": true
    },
    {
      "inputs": [],
      "name": "getBorrowerInfo",
      "outputs": [
        {
          "internalType": "address",
          "name": "",
          "type": "address"
        },
        {
          "internalType": "string",
          "name": "",
          "type": "string"
        },
        {
          "internalType": "string",
          "name": "",
          "type": "string"
        },
        {
          "internalType": "uint256[]",
          "name": "",
          "type": "uint256[]"
        }
      ],
      "stateMutability": "view",
      "type": "function",
      "constant": true
    },
    {
      "inputs": [
        {
          "internalType": "address",
          "name": "borrowerID",
          "type": "address"
        },
        {
          "internalType": "uint256",
          "name": "cashNum",
          "type": "uint256"
        }
      ],
      "name": "createCashFlow",
      "outputs": [
        {
          "internalType": "uint256",
          "name": "",
          "type": "uint256"
        }
      ],
      "stateMutability": "nonpayable",
      "type": "function"
    },
    {
      "inputs": [
        {
          "internalType": "uint256",
          "name": "cashFlowID",
          "type": "uint256"
        },
        {
          "internalType": "address",
          "name": "receiverID",
          "type": "address"
        },
        {
          "internalType": "uint256",
          "name": "cashNum",
          "type": "uint256"
        },
        {
          "internalType": "string",
          "name": "note",
          "type": "string"
        }
      ],
      "name": "createTransaction",
      "outputs": [
        {
          "internalType": "uint256",
          "name": "",
          "type": "uint256"
        }
      ],
      "stateMutability": "nonpayable",
      "type": "function"
    },
    {
      "inputs": [
        {
          "internalType": "string",
          "name": "name",
          "type": "string"
        },
        {
          "internalType": "string",
          "name": "partsType",
          "type": "string"
        },
        {
          "internalType": "string",
          "name": "batch",
          "type": "string"
        },
        {
          "internalType": "string",
          "name": "note",
          "type": "string"
        },
        {
          "internalType": "uint256[]",
          "name": "formerType",
          "type": "uint256[]"
        }
      ],
      "name": "createPartsFlow",
      "outputs": [
        {
          "internalType": "uint256",
          "name": "",
          "type": "uint256"
        }
      ],
      "stateMutability": "nonpayable",
      "type": "function"
    },
    {
      "inputs": [
        {
          "internalType": "uint256",
          "name": "partsID",
          "type": "uint256"
        },
        {
          "internalType": "enum ProcedureType",
          "name": "procedureType",
          "type": "uint8"
        },
        {
          "internalType": "string",
          "name": "operation",
          "type": "string"
        }
      ],
      "name": "createProcedure",
      "outputs": [],
      "stateMutability": "nonpayable",
      "type": "function"
    },
    {
      "inputs": [
        {
          "internalType": "uint256",
          "name": "cashflowID",
          "type": "uint256"
        }
      ],
      "name": "checkCashFlow",
      "outputs": [
        {
          "internalType": "uint256",
          "name": "",
          "type": "uint256"
        },
        {
          "internalType": "uint256",
          "name": "",
          "type": "uint256"
        },
        {
          "internalType": "uint256[]",
          "name": "",
          "type": "uint256[]"
        }
      ],
      "stateMutability": "view",
      "type": "function",
      "constant": true
    },
    {
      "inputs": [
        {
          "internalType": "uint256",
          "name": "transactionID",
          "type": "uint256"
        }
      ],
      "name": "checkTransaction",
      "outputs": [
        {
          "internalType": "uint256",
          "name": "",
          "type": "uint256"
        },
        {
          "internalType": "address",
          "name": "",
          "type": "address"
        },
        {
          "internalType": "address",
          "name": "",
          "type": "address"
        },
        {
          "internalType": "uint256",
          "name": "",
          "type": "uint256"
        },
        {
          "internalType": "uint256",
          "name": "",
          "type": "uint256"
        },
        {
          "internalType": "uint256",
          "name": "",
          "type": "uint256"
        },
        {
          "internalType": "string",
          "name": "",
          "type": "string"
        },
        {
          "internalType": "uint256",
          "name": "",
          "type": "uint256"
        }
      ],
      "stateMutability": "view",
      "type": "function",
      "constant": true
    },
    {
      "inputs": [
        {
          "internalType": "uint256",
          "name": "partsID",
          "type": "uint256"
        }
      ],
      "name": "checkPartsFlow",
      "outputs": [
        {
          "internalType": "address",
          "name": "",
          "type": "address"
        },
        {
          "internalType": "string",
          "name": "",
          "type": "string"
        },
        {
          "internalType": "string",
          "name": "",
          "type": "string"
        },
        {
          "internalType": "string",
          "name": "",
          "type": "string"
        },
        {
          "internalType": "string",
          "name": "",
          "type": "string"
        },
        {
          "internalType": "uint256[]",
          "name": "",
          "type": "uint256[]"
        },
        {
          "internalType": "uint256[]",
          "name": "",
          "type": "uint256[]"
        }
      ],
      "stateMutability": "view",
      "type": "function",
      "constant": true
    },
    {
      "inputs": [
        {
          "internalType": "uint256",
          "name": "procedureID",
          "type": "uint256"
        }
      ],
      "name": "checkProcedure",
      "outputs": [
        {
          "internalType": "uint256",
          "name": "",
          "type": "uint256"
        },
        {
          "internalType": "address",
          "name": "",
          "type": "address"
        },
        {
          "internalType": "enum ProcedureType",
          "name": "",
          "type": "uint8"
        },
        {
          "internalType": "string",
          "name": "",
          "type": "string"
        },
        {
          "internalType": "uint256",
          "name": "",
          "type": "uint256"
        }
      ],
      "stateMutability": "view",
      "type": "function",
      "constant": true
    }
  ],
  "bytecode": "0x60806040526000600755600060085560006009556000600a5534801561002457600080fd5b50613fd7806100346000396000f3fe60806040523480156200001157600080fd5b5060043610620001185760003560e01c80638ce18a9f11620000a5578063a6314342116200006f578063a63143421462000326578063a6c1f4c81462000332578063bb70bdaa1462000352578063fa5972bc146200035e5762000118565b80638ce18a9f146200026b578063959cf48514620002a8578063a3910ade14620002b4578063a61df90414620002f05762000118565b8063757febdb11620000e7578063757febdb14620001b857806377c4d9dd14620001d85780637dda5bc814620001fd578063867498d214620002335762000118565b80630e7dce82146200011d578063320a9eb81462000153578063571347fb14620001735780636cd0e23a1462000198575b600080fd5b6200013b600480360381019062000135919062001c09565b62000398565b6040516200014a919062001cab565b60405180910390f35b6200017160048036038101906200016b919062001cc8565b620008b0565b005b6200017d62000943565b6040516200018f949392919062001ef3565b60405180910390f35b620001b66004803603810190620001b0919062001f7d565b620009db565b005b620001d66004803603810190620001d0919062001ff8565b62000b51565b005b620001e262000bde565b604051620001f4949392919062001ef3565b60405180910390f35b6200021b600480360381019062000215919062002049565b62000c76565b6040516200022a919062001cab565b60405180910390f35b6200025160048036038101906200024b919062002090565b6200137e565b6040516200026293929190620020c2565b60405180910390f35b62000289600480360381019062000283919062002090565b62001448565b6040516200029f98979695949392919062002106565b60405180910390f35b620002b262001528565b005b620002d26004803603810190620002cc919062002090565b620015b2565b604051620002e797969594939291906200219b565b60405180910390f35b6200030e60048036038101906200030891906200231d565b6200168e565b6040516200031d919062001cab565b60405180910390f35b620003306200175c565b005b6200035060048036038101906200034a919062001cc8565b620017e6565b005b6200035c62001879565b005b6200037c600480360381019062000376919062002090565b62001903565b6040516200038f959493929190620024c0565b60405180910390f35b60008060038681548110620003b257620003b162002524565b5b9060005260206000200160009054906101000a900473ffffffffffffffffffffffffffffffffffffffff1673ffffffffffffffffffffffffffffffffffffffff16631dfe52db6040518163ffffffff1660e01b8152600401602060405180830381865afa15801562000428573d6000803e3d6000fd5b505050506040513d601f19601f820116820180604052508101906200044e91906200256a565b90506003868154811062000467576200046662002524565b5b9060005260206000200160009054906101000a900473ffffffffffffffffffffffffffffffffffffffff1673ffffffffffffffffffffffffffffffffffffffff16632e1a7d4d856040518263ffffffff1660e01b8152600401620004cc919062001cab565b6020604051808303816000875af1158015620004ec573d6000803e3d6000fd5b505050506040513d601f19601f82011682018060405250810190620005129190620025d9565b15620008835760006008548733888560038c8154811062000538576200053762002524565b5b9060005260206000200160009054906101000a900473ffffffffffffffffffffffffffffffffffffffff1673ffffffffffffffffffffffffffffffffffffffff16631dfe52db6040518163ffffffff1660e01b8152600401602060405180830381865afa158015620005ae573d6000803e3d6000fd5b505050506040513d601f19601f82011682018060405250810190620005d491906200256a565b8a8a604051620005e490620019d7565b620005f79897969594939291906200260b565b604051809103906000f08015801562000614573d6000803e3d6000fd5b5090506004819080600181540180825580915050600190039060005260206000200160009091909190916101000a81548173ffffffffffffffffffffffffffffffffffffffff021916908373ffffffffffffffffffffffffffffffffffffffff160217905550600860008154809291906200068f90620026cf565b919050555060038781548110620006ab57620006aa62002524565b5b9060005260206000200160009054906101000a900473ffffffffffffffffffffffffffffffffffffffff1673ffffffffffffffffffffffffffffffffffffffff16637d839d2f8273ffffffffffffffffffffffffffffffffffffffff1663af640d0f6040518163ffffffff1660e01b8152600401602060405180830381865afa1580156200073d573d6000803e3d6000fd5b505050506040513d601f19601f820116820180604052508101906200076391906200256a565b6040518263ffffffff1660e01b815260040162000781919062001cab565b6020604051808303816000875af1158015620007a1573d6000803e3d6000fd5b505050506040513d601f19601f82011682018060405250810190620007c79190620025d9565b507f3d0fdeefab19154dfab2b1e4db1f5b4dbbca0e524c6fe0611f314ca3d49d56cc33878988604051620007ff94939291906200271c565b60405180910390a18073ffffffffffffffffffffffffffffffffffffffff1663af640d0f6040518163ffffffff1660e01b8152600401602060405180830381865afa15801562000853573d6000803e3d6000fd5b505050506040513d601f19601f820116820180604052508101906200087991906200256a565b92505050620008a8565b7fffffffffffffffffffffffffffffffffffffffffffffffffffffffffffffffff9150505b949350505050565b73__SysFunc_______________________________63e707bc9d60008585856040518563ffffffff1660e01b8152600401620008f09493929190620027c2565b602060405180830381865af41580156200090e573d6000803e3d6000fd5b505050506040513d601f19601f82011682018060405250810190620009349190620025d9565b6200093e57600080fd5b505050565b6000606080606073__SysFunc_______________________________638176f94a60016040518263ffffffff1660e01b81526004016200098491906200282b565b600060405180830381865af4158015620009a2573d6000803e3d6000fd5b505050506040513d6000823e3d601f19601f82011682018060405250810190620009cd919062002984565b935093509350935090919293565b73__SysFunc_______________________________6351016b38848484600a5460066040518663ffffffff1660e01b815260040162000a1f95949392919062002a7c565b602060405180830381865af415801562000a3d573d6000803e3d6000fd5b505050506040513d601f19601f8201168201806040525081019062000a639190620025d9565b62000a6d57600080fd5b6005838154811062000a845762000a8362002524565b5b9060005260206000200160009054906101000a900473ffffffffffffffffffffffffffffffffffffffff1673ffffffffffffffffffffffffffffffffffffffff166332f53032600a546040518263ffffffff1660e01b815260040162000aeb919062001cab565b6020604051808303816000875af115801562000b0b573d6000803e3d6000fd5b505050506040513d601f19601f8201168201806040525081019062000b319190620025d9565b50600a600081548092919062000b4790620026cf565b9190505550505050565b73__SysFunc_______________________________6371a54b726002836040518363ffffffff1660e01b815260040162000b8d92919062002ae7565b602060405180830381865af415801562000bab573d6000803e3d6000fd5b505050506040513d601f19601f8201168201806040525081019062000bd19190620025d9565b62000bdb57600080fd5b50565b6000606080606073__SysFunc_______________________________631efa2e5260006040518263ffffffff1660e01b815260040162000c1f919062002b1b565b600060405180830381865af415801562000c3d573d6000803e3d6000fd5b505050506040513d6000823e3d601f19601f8201168201806040525081019062000c68919062002984565b935093509350935090919293565b6000806007548360405162000c8b90620019e5565b62000c9892919062002b38565b604051809103906000f08015801562000cb5573d6000803e3d6000fd5b5090506003819080600181540180825580915050600190039060005260206000200160009091909190916101000a81548173ffffffffffffffffffffffffffffffffffffffff021916908373ffffffffffffffffffffffffffffffffffffffff16021790555060005b6000805490508110156200101a573373ffffffffffffffffffffffffffffffffffffffff166000828154811062000d5a5762000d5962002524565b5b9060005260206000200160009054906101000a900473ffffffffffffffffffffffffffffffffffffffff1673ffffffffffffffffffffffffffffffffffffffff1663af640d0f6040518163ffffffff1660e01b8152600401602060405180830381865afa15801562000dd0573d6000803e3d6000fd5b505050506040513d601f19601f8201168201806040525081019062000df6919062002b65565b73ffffffffffffffffffffffffffffffffffffffff1614801562000ec957506000818154811062000e2c5762000e2b62002524565b5b9060005260206000200160009054906101000a900473ffffffffffffffffffffffffffffffffffffffff1673ffffffffffffffffffffffffffffffffffffffff1663c19912196040518163ffffffff1660e01b8152600401602060405180830381865afa15801562000ea2573d6000803e3d6000fd5b505050506040513d601f19601f8201168201806040525081019062000ec89190620025d9565b5b1562001004576000818154811062000ee65762000ee562002524565b5b9060005260206000200160009054906101000a900473ffffffffffffffffffffffffffffffffffffffff1673ffffffffffffffffffffffffffffffffffffffff1663bb4397b98373ffffffffffffffffffffffffffffffffffffffff1663af640d0f6040518163ffffffff1660e01b8152600401602060405180830381865afa15801562000f78573d6000803e3d6000fd5b505050506040513d601f19601f8201168201806040525081019062000f9e91906200256a565b6040518263ffffffff1660e01b815260040162000fbc919062001cab565b6020604051808303816000875af115801562000fdc573d6000803e3d6000fd5b505050506040513d601f19601f82011682018060405250810190620010029190620025d9565b505b80806200101190620026cf565b91505062000d1e565b5060005b600180549050811015620012ab578473ffffffffffffffffffffffffffffffffffffffff16600182815481106200105a576200105962002524565b5b9060005260206000200160009054906101000a900473ffffffffffffffffffffffffffffffffffffffff1673ffffffffffffffffffffffffffffffffffffffff1663af640d0f6040518163ffffffff1660e01b8152600401602060405180830381865afa158015620010d0573d6000803e3d6000fd5b505050506040513d601f19601f82011682018060405250810190620010f6919062002b65565b73ffffffffffffffffffffffffffffffffffffffff16148015620011c95750600181815481106200112c576200112b62002524565b5b9060005260206000200160009054906101000a900473ffffffffffffffffffffffffffffffffffffffff1673ffffffffffffffffffffffffffffffffffffffff1663c19912196040518163ffffffff1660e01b8152600401602060405180830381865afa158015620011a2573d6000803e3d6000fd5b505050506040513d601f19601f82011682018060405250810190620011c89190620025d9565b5b15620012955760018181548110620011e657620011e562002524565b5b9060005260206000200160009054906101000a900473ffffffffffffffffffffffffffffffffffffffff1673ffffffffffffffffffffffffffffffffffffffff1663bb4397b96007546040518263ffffffff1660e01b81526004016200124d919062001cab565b6020604051808303816000875af11580156200126d573d6000803e3d6000fd5b505050506040513d601f19601f82011682018060405250810190620012939190620025d9565b505b8080620012a290620026cf565b9150506200101e565b507fcffe861485f9518c73c9172491c2060d969154290328b03c7c91c4902e821bb3338585604051620012e19392919062002b97565b60405180910390a160076000815480929190620012fe90620026cf565b91905055508073ffffffffffffffffffffffffffffffffffffffff1663af640d0f6040518163ffffffff1660e01b8152600401602060405180830381865afa1580156200134f573d6000803e3d6000fd5b505050506040513d601f19601f820116820180604052508101906200137591906200256a565b91505092915050565b6000806060600384815481106200139a576200139962002524565b5b9060005260206000200160009054906101000a900473ffffffffffffffffffffffffffffffffffffffff1673ffffffffffffffffffffffffffffffffffffffff16637ec493956040518163ffffffff1660e01b8152600401600060405180830381865afa15801562001410573d6000803e3d6000fd5b505050506040513d6000823e3d601f19601f820116820180604052508101906200143b919062002bd4565b9250925092509193909250565b60008060008060008060606000600489815481106200146c576200146b62002524565b5b9060005260206000200160009054906101000a900473ffffffffffffffffffffffffffffffffffffffff1673ffffffffffffffffffffffffffffffffffffffff166331b71c936040518163ffffffff1660e01b8152600401600060405180830381865afa158015620014e2573d6000803e3d6000fd5b505050506040513d6000823e3d601f19601f820116820180604052508101906200150d919062002c4f565b97509750975097509750975097509750919395975091939597565b73__SysFunc_______________________________637b5cbaff60016040518263ffffffff1660e01b81526004016200156291906200282b565b602060405180830381865af415801562001580573d6000803e3d6000fd5b505050506040513d601f19601f82011682018060405250810190620015a69190620025d9565b620015b057600080fd5b565b600060608060608060608060058881548110620015d457620015d362002524565b5b9060005260206000200160009054906101000a900473ffffffffffffffffffffffffffffffffffffffff1673ffffffffffffffffffffffffffffffffffffffff1663e34746886040518163ffffffff1660e01b8152600401600060405180830381865afa1580156200164a573d6000803e3d6000fd5b505050506040513d6000823e3d601f19601f8201168201806040525081019062001675919062002d37565b9650965096509650965096509650919395979092949650565b600073__SysFunc_______________________________630678a19e878787878760095460056040518863ffffffff1660e01b8152600401620016d8979695949392919062002f51565b602060405180830381865af4158015620016f6573d6000803e3d6000fd5b505050506040513d601f19601f820116820180604052508101906200171c9190620025d9565b6200172657600080fd5b600960008154809291906200173b90620026cf565b9190505550600160095462001751919062002ff1565b905095945050505050565b73__SysFunc_______________________________635a262c7860026040518263ffffffff1660e01b81526004016200179691906200302c565b602060405180830381865af4158015620017b4573d6000803e3d6000fd5b505050506040513d601f19601f82011682018060405250810190620017da9190620025d9565b620017e457600080fd5b565b73__SysFunc_______________________________63f70205e160018585856040518563ffffffff1660e01b815260040162001826949392919062003049565b602060405180830381865af415801562001844573d6000803e3d6000fd5b505050506040513d601f19601f820116820180604052508101906200186a9190620025d9565b6200187457600080fd5b505050565b73__SysFunc_______________________________638849b46f60006040518263ffffffff1660e01b8152600401620018b3919062002b1b565b602060405180830381865af4158015620018d1573d6000803e3d6000fd5b505050506040513d601f19601f82011682018060405250810190620018f79190620025d9565b6200190157600080fd5b565b6000806000606060006006868154811062001923576200192262002524565b5b9060005260206000200160009054906101000a900473ffffffffffffffffffffffffffffffffffffffff1673ffffffffffffffffffffffffffffffffffffffff1663c791b35c6040518163ffffffff1660e01b8152600401600060405180830381865afa15801562001999573d6000803e3d6000fd5b505050506040513d6000823e3d601f19601f82011682018060405250810190620019c49190620030c2565b9450945094509450945091939590929450565b61090a806200316a83390190565b61052e8062003a7483390190565b6000604051905090565b600080fd5b600080fd5b6000819050919050565b62001a1c8162001a07565b811462001a2857600080fd5b50565b60008135905062001a3c8162001a11565b92915050565b600073ffffffffffffffffffffffffffffffffffffffff82169050919050565b600062001a6f8262001a42565b9050919050565b62001a818162001a62565b811462001a8d57600080fd5b50565b60008135905062001aa18162001a76565b92915050565b600080fd5b600080fd5b6000601f19601f8301169050919050565b7f4e487b7100000000000000000000000000000000000000000000000000000000600052604160045260246000fd5b62001afc8262001ab1565b810181811067ffffffffffffffff8211171562001b1e5762001b1d62001ac2565b5b80604052505050565b600062001b33620019f3565b905062001b41828262001af1565b919050565b600067ffffffffffffffff82111562001b645762001b6362001ac2565b5b62001b6f8262001ab1565b9050602081019050919050565b82818337600083830152505050565b600062001ba262001b9c8462001b46565b62001b27565b90508281526020810184848401111562001bc15762001bc062001aac565b5b62001bce84828562001b7c565b509392505050565b600082601f83011262001bee5762001bed62001aa7565b5b813562001c0084826020860162001b8b565b91505092915050565b6000806000806080858703121562001c265762001c25620019fd565b5b600062001c368782880162001a2b565b945050602062001c498782880162001a90565b935050604062001c5c8782880162001a2b565b925050606085013567ffffffffffffffff81111562001c805762001c7f62001a02565b5b62001c8e8782880162001bd6565b91505092959194509250565b62001ca58162001a07565b82525050565b600060208201905062001cc2600083018462001c9a565b92915050565b60008060006060848603121562001ce45762001ce3620019fd565b5b600084013567ffffffffffffffff81111562001d055762001d0462001a02565b5b62001d138682870162001bd6565b935050602084013567ffffffffffffffff81111562001d375762001d3662001a02565b5b62001d458682870162001bd6565b925050604084013567ffffffffffffffff81111562001d695762001d6862001a02565b5b62001d778682870162001bd6565b9150509250925092565b62001d8c8162001a62565b82525050565b600081519050919050565b600082825260208201905092915050565b60005b8381101562001dce57808201518184015260208101905062001db1565b8381111562001dde576000848401525b50505050565b600062001df18262001d92565b62001dfd818562001d9d565b935062001e0f81856020860162001dae565b62001e1a8162001ab1565b840191505092915050565b600081519050919050565b600082825260208201905092915050565b6000819050602082019050919050565b62001e5c8162001a07565b82525050565b600062001e70838362001e51565b60208301905092915050565b6000602082019050919050565b600062001e968262001e25565b62001ea2818562001e30565b935062001eaf8362001e41565b8060005b8381101562001ee657815162001eca888262001e62565b975062001ed78362001e7c565b92505060018101905062001eb3565b5085935050505092915050565b600060808201905062001f0a600083018762001d81565b818103602083015262001f1e818662001de4565b9050818103604083015262001f34818562001de4565b9050818103606083015262001f4a818462001e89565b905095945050505050565b6002811062001f6357600080fd5b50565b60008135905062001f778162001f55565b92915050565b60008060006060848603121562001f995762001f98620019fd565b5b600062001fa98682870162001a2b565b935050602062001fbc8682870162001f66565b925050604084013567ffffffffffffffff81111562001fe05762001fdf62001a02565b5b62001fee8682870162001bd6565b9150509250925092565b600060208284031215620020115762002010620019fd565b5b600082013567ffffffffffffffff81111562002032576200203162001a02565b5b620020408482850162001bd6565b91505092915050565b60008060408385031215620020635762002062620019fd565b5b6000620020738582860162001a90565b9250506020620020868582860162001a2b565b9150509250929050565b600060208284031215620020a957620020a8620019fd565b5b6000620020b98482850162001a2b565b91505092915050565b6000606082019050620020d9600083018662001c9a565b620020e8602083018562001c9a565b8181036040830152620020fc818462001e89565b9050949350505050565b6000610100820190506200211e600083018b62001c9a565b6200212d602083018a62001d81565b6200213c604083018962001d81565b6200214b606083018862001c9a565b6200215a608083018762001c9a565b6200216960a083018662001c9a565b81810360c08301526200217d818562001de4565b90506200218e60e083018462001c9a565b9998505050505050505050565b600060e082019050620021b2600083018a62001d81565b8181036020830152620021c6818962001de4565b90508181036040830152620021dc818862001de4565b90508181036060830152620021f2818762001de4565b9050818103608083015262002208818662001de4565b905081810360a08301526200221e818562001e89565b905081810360c083015262002234818462001e89565b905098975050505050505050565b600067ffffffffffffffff82111562002260576200225f62001ac2565b5b602082029050602081019050919050565b600080fd5b60006200228d620022878462002242565b62001b27565b90508083825260208201905060208402830185811115620022b357620022b262002271565b5b835b81811015620022e05780620022cb888262001a2b565b845260208401935050602081019050620022b5565b5050509392505050565b600082601f83011262002302576200230162001aa7565b5b81356200231484826020860162002276565b91505092915050565b600080600080600060a086880312156200233c576200233b620019fd565b5b600086013567ffffffffffffffff8111156200235d576200235c62001a02565b5b6200236b8882890162001bd6565b955050602086013567ffffffffffffffff8111156200238f576200238e62001a02565b5b6200239d8882890162001bd6565b945050604086013567ffffffffffffffff811115620023c157620023c062001a02565b5b620023cf8882890162001bd6565b935050606086013567ffffffffffffffff811115620023f357620023f262001a02565b5b620024018882890162001bd6565b925050608086013567ffffffffffffffff81111562002425576200242462001a02565b5b6200243388828901620022ea565b9150509295509295909350565b7f4e487b7100000000000000000000000000000000000000000000000000000000600052602160045260246000fd5b6002811062002483576200248262002440565b5b50565b600081905062002496826200246f565b919050565b6000620024a88262002486565b9050919050565b620024ba816200249b565b82525050565b600060a082019050620024d7600083018862001c9a565b620024e6602083018762001d81565b620024f56040830186620024af565b818103606083015262002509818562001de4565b90506200251a608083018462001c9a565b9695505050505050565b7f4e487b7100000000000000000000000000000000000000000000000000000000600052603260045260246000fd5b600081519050620025648162001a11565b92915050565b600060208284031215620025835762002582620019fd565b5b6000620025938482850162002553565b91505092915050565b60008115159050919050565b620025b3816200259c565b8114620025bf57600080fd5b50565b600081519050620025d381620025a8565b92915050565b600060208284031215620025f257620025f1620019fd565b5b60006200260284828501620025c2565b91505092915050565b60006101008201905062002623600083018b62001c9a565b62002632602083018a62001c9a565b62002641604083018962001d81565b62002650606083018862001d81565b6200265f608083018762001c9a565b6200266e60a083018662001c9a565b6200267d60c083018562001c9a565b81810360e083015262002691818462001de4565b90509998505050505050505050565b7f4e487b7100000000000000000000000000000000000000000000000000000000600052601160045260246000fd5b6000620026dc8262001a07565b91507fffffffffffffffffffffffffffffffffffffffffffffffffffffffffffffffff8203620027115762002710620026a0565b5b600182019050919050565b600060808201905062002733600083018762001d81565b62002742602083018662001d81565b62002751604083018562001c9a565b62002760606083018462001c9a565b95945050505050565b8082525050565b600082825260208201905092915050565b60006200278e8262001d92565b6200279a818562002770565b9350620027ac81856020860162001dae565b620027b78162001ab1565b840191505092915050565b6000608082019050620027d9600083018762002769565b8181036020830152620027ed818662002781565b9050818103604083015262002803818562002781565b9050818103606083015262002819818462002781565b905095945050505050565b8082525050565b600060208201905062002842600083018462002824565b92915050565b600081519050620028598162001a76565b92915050565b600062002876620028708462001b46565b62001b27565b90508281526020810184848401111562002895576200289462001aac565b5b620028a284828562001dae565b509392505050565b600082601f830112620028c257620028c162001aa7565b5b8151620028d48482602086016200285f565b91505092915050565b6000620028f4620028ee8462002242565b62001b27565b905080838252602082019050602084028301858111156200291a576200291962002271565b5b835b8181101562002947578062002932888262002553565b8452602084019350506020810190506200291c565b5050509392505050565b600082601f83011262002969576200296862001aa7565b5b81516200297b848260208601620028dd565b91505092915050565b60008060008060808587031215620029a157620029a0620019fd565b5b6000620029b18782880162002848565b945050602085015167ffffffffffffffff811115620029d557620029d462001a02565b5b620029e387828801620028aa565b935050604085015167ffffffffffffffff81111562002a075762002a0662001a02565b5b62002a1587828801620028aa565b925050606085015167ffffffffffffffff81111562002a395762002a3862001a02565b5b62002a478782880162002951565b91505092959194509250565b62002a5e8162001a07565b82525050565b62002a6f816200249b565b82525050565b8082525050565b600060a08201905062002a93600083018862002a53565b62002aa2602083018762002a64565b818103604083015262002ab6818662002781565b905062002ac7606083018562002a53565b62002ad6608083018462002a75565b9695505050505050565b8082525050565b600060408201905062002afe600083018562002ae0565b818103602083015262002b12818462002781565b90509392505050565b600060208201905062002b32600083018462002769565b92915050565b600060408201905062002b4f600083018562001c9a565b62002b5e602083018462001c9a565b9392505050565b60006020828403121562002b7e5762002b7d620019fd565b5b600062002b8e8482850162002848565b91505092915050565b600060608201905062002bae600083018662001d81565b62002bbd602083018562001d81565b62002bcc604083018462001c9a565b949350505050565b60008060006060848603121562002bf05762002bef620019fd565b5b600062002c008682870162002553565b935050602062002c138682870162002553565b925050604084015167ffffffffffffffff81111562002c375762002c3662001a02565b5b62002c458682870162002951565b9150509250925092565b600080600080600080600080610100898b03121562002c735762002c72620019fd565b5b600062002c838b828c0162002553565b985050602062002c968b828c0162002848565b975050604062002ca98b828c0162002848565b965050606062002cbc8b828c0162002553565b955050608062002ccf8b828c0162002553565b94505060a062002ce28b828c0162002553565b93505060c089015167ffffffffffffffff81111562002d065762002d0562001a02565b5b62002d148b828c01620028aa565b92505060e062002d278b828c0162002553565b9150509295985092959890939650565b600080600080600080600060e0888a03121562002d595762002d58620019fd565b5b600062002d698a828b0162002848565b975050602088015167ffffffffffffffff81111562002d8d5762002d8c62001a02565b5b62002d9b8a828b01620028aa565b965050604088015167ffffffffffffffff81111562002dbf5762002dbe62001a02565b5b62002dcd8a828b01620028aa565b955050606088015167ffffffffffffffff81111562002df15762002df062001a02565b5b62002dff8a828b01620028aa565b945050608088015167ffffffffffffffff81111562002e235762002e2262001a02565b5b62002e318a828b01620028aa565b93505060a088015167ffffffffffffffff81111562002e555762002e5462001a02565b5b62002e638a828b0162002951565b92505060c088015167ffffffffffffffff81111562002e875762002e8662001a02565b5b62002e958a828b0162002951565b91505092959891949750929550565b600082825260208201905092915050565b62002ec08162001a07565b82525050565b600062002ed4838362002eb5565b60208301905092915050565b600062002eed8262001e25565b62002ef9818562002ea4565b935062002f068362001e41565b8060005b8381101562002f3d57815162002f21888262002ec6565b975062002f2e8362001e7c565b92505060018101905062002f0a565b5085935050505092915050565b8082525050565b600060e082019050818103600083015262002f6d818a62002781565b9050818103602083015262002f83818962002781565b9050818103604083015262002f99818862002781565b9050818103606083015262002faf818762002781565b9050818103608083015262002fc5818662002ee0565b905062002fd660a083018562002a53565b62002fe560c083018462002f4a565b98975050505050505050565b600062002ffe8262001a07565b91506200300b8362001a07565b925082821015620030215762003020620026a0565b5b828203905092915050565b600060208201905062003043600083018462002ae0565b92915050565b600060808201905062003060600083018762002824565b818103602083015262003074818662002781565b905081810360408301526200308a818562002781565b90508181036060830152620030a0818462002781565b905095945050505050565b600081519050620030bc8162001f55565b92915050565b600080600080600060a08688031215620030e157620030e0620019fd565b5b6000620030f18882890162002553565b9550506020620031048882890162002848565b94505060406200311788828901620030ab565b935050606086015167ffffffffffffffff8111156200313b576200313a62001a02565b5b6200314988828901620028aa565b92505060806200315c8882890162002553565b915050929550929590935056fe60806040523480156200001157600080fd5b506040516200090a3803806200090a8339818101604052810190620000379190620003f7565b876000819055508660018190555085600260006101000a81548173ffffffffffffffffffffffffffffffffffffffff021916908373ffffffffffffffffffffffffffffffffffffffff16021790555084600360006101000a81548173ffffffffffffffffffffffffffffffffffffffff021916908373ffffffffffffffffffffffffffffffffffffffff1602179055508360048190555082600581905550816006819055508060079080519060200190620000f49291906200010a565b5042600881905550505050505050505062000543565b82805462000118906200050e565b90600052602060002090601f0160209004810192826200013c576000855562000188565b82601f106200015757805160ff191683800117855562000188565b8280016001018555821562000188579182015b82811115620001875782518255916020019190600101906200016a565b5b5090506200019791906200019b565b5090565b5b80821115620001b65760008160009055506001016200019c565b5090565b6000604051905090565b600080fd5b600080fd5b6000819050919050565b620001e381620001ce565b8114620001ef57600080fd5b50565b6000815190506200020381620001d8565b92915050565b600073ffffffffffffffffffffffffffffffffffffffff82169050919050565b6000620002368262000209565b9050919050565b620002488162000229565b81146200025457600080fd5b50565b60008151905062000268816200023d565b92915050565b600080fd5b600080fd5b6000601f19601f8301169050919050565b7f4e487b7100000000000000000000000000000000000000000000000000000000600052604160045260246000fd5b620002c38262000278565b810181811067ffffffffffffffff82111715620002e557620002e462000289565b5b80604052505050565b6000620002fa620001ba565b9050620003088282620002b8565b919050565b600067ffffffffffffffff8211156200032b576200032a62000289565b5b620003368262000278565b9050602081019050919050565b60005b838110156200036357808201518184015260208101905062000346565b8381111562000373576000848401525b50505050565b6000620003906200038a846200030d565b620002ee565b905082815260208101848484011115620003af57620003ae62000273565b5b620003bc84828562000343565b509392505050565b600082601f830112620003dc57620003db6200026e565b5b8151620003ee84826020860162000379565b91505092915050565b600080600080600080600080610100898b0312156200041b576200041a620001c4565b5b60006200042b8b828c01620001f2565b98505060206200043e8b828c01620001f2565b9750506040620004518b828c0162000257565b9650506060620004648b828c0162000257565b9550506080620004778b828c01620001f2565b94505060a06200048a8b828c01620001f2565b93505060c06200049d8b828c01620001f2565b92505060e089015167ffffffffffffffff811115620004c157620004c0620001c9565b5b620004cf8b828c01620003c4565b9150509295985092959890939650565b7f4e487b7100000000000000000000000000000000000000000000000000000000600052602260045260246000fd5b600060028204905060018216806200052757607f821691505b6020821081036200053d576200053c620004df565b5b50919050565b6103b780620005536000396000f3fe608060405234801561001057600080fd5b50600436106100365760003560e01c806331b71c931461003b578063af640d0f14610060575b600080fd5b61004361007e565b604051610057989796959493929190610281565b60405180910390f35b610068610188565b6040516100759190610306565b60405180910390f35b60008060008060008060606000600154600260009054906101000a900473ffffffffffffffffffffffffffffffffffffffff16600360009054906101000a900473ffffffffffffffffffffffffffffffffffffffff1660045460055460065460076008548180546100ee90610350565b80601f016020809104026020016040519081016040528092919081815260200182805461011a90610350565b80156101675780601f1061013c57610100808354040283529160200191610167565b820191906000526020600020905b81548152906001019060200180831161014a57829003601f168201915b50505050509150975097509750975097509750975097509091929394959697565b60005481565b6000819050919050565b6101a18161018e565b82525050565b600073ffffffffffffffffffffffffffffffffffffffff82169050919050565b60006101d2826101a7565b9050919050565b6101e2816101c7565b82525050565b600081519050919050565b600082825260208201905092915050565b60005b83811015610222578082015181840152602081019050610207565b83811115610231576000848401525b50505050565b6000601f19601f8301169050919050565b6000610253826101e8565b61025d81856101f3565b935061026d818560208601610204565b61027681610237565b840191505092915050565b600061010082019050610297600083018b610198565b6102a4602083018a6101d9565b6102b160408301896101d9565b6102be6060830188610198565b6102cb6080830187610198565b6102d860a0830186610198565b81810360c08301526102ea8185610248565b90506102f960e0830184610198565b9998505050505050505050565b600060208201905061031b6000830184610198565b92915050565b7f4e487b7100000000000000000000000000000000000000000000000000000000600052602260045260246000fd5b6000600282049050600182168061036857607f821691505b60208210810361037b5761037a610321565b5b5091905056fea264697066735822122051cd30d134f545ece78b96e25b0b89f68f8091c4d5dc0aa6bc57cbf0498202bc64736f6c634300080d0033608060405234801561001057600080fd5b5060405161052e38038061052e83398181016040528101906100329190610089565b81600081905550806001819055508060028190555050506100c9565b600080fd5b6000819050919050565b61006681610053565b811461007157600080fd5b50565b6000815190506100838161005d565b92915050565b600080604083850312156100a05761009f61004e565b5b60006100ae85828601610074565b92505060206100bf85828601610074565b9150509250929050565b610456806100d86000396000f3fe608060405234801561001057600080fd5b50600436106100575760003560e01c80631dfe52db1461005c5780632e1a7d4d1461007a5780637d839d2f146100aa5780637ec49395146100da578063af640d0f146100fa575b600080fd5b610064610118565b6040516100719190610212565b60405180910390f35b610094600480360381019061008f919061025e565b61011e565b6040516100a191906102a6565b60405180910390f35b6100c460048036038101906100bf919061025e565b610155565b6040516100d191906102a6565b60405180910390f35b6100e2610189565b6040516100f19392919061037f565b60405180910390f35b6101026101f3565b60405161010f9190610212565b60405180910390f35b60025481565b6000816002541061014b57816002600082825461013b91906103ec565b9250508190555060019050610150565b600090505b919050565b6000600382908060018154018082558091505060019003906000526020600020016000909190919091505560019050919050565b60008060606001546002546003808054806020026020016040519081016040528092919081815260200182805480156101e157602002820191906000526020600020905b8154815260200190600101908083116101cd575b50505050509050925092509250909192565b60005481565b6000819050919050565b61020c816101f9565b82525050565b60006020820190506102276000830184610203565b92915050565b600080fd5b61023b816101f9565b811461024657600080fd5b50565b60008135905061025881610232565b92915050565b6000602082840312156102745761027361022d565b5b600061028284828501610249565b91505092915050565b60008115159050919050565b6102a08161028b565b82525050565b60006020820190506102bb6000830184610297565b92915050565b600081519050919050565b600082825260208201905092915050565b6000819050602082019050919050565b6102f6816101f9565b82525050565b600061030883836102ed565b60208301905092915050565b6000602082019050919050565b600061032c826102c1565b61033681856102cc565b9350610341836102dd565b8060005b8381101561037257815161035988826102fc565b975061036483610314565b925050600181019050610345565b5085935050505092915050565b60006060820190506103946000830186610203565b6103a16020830185610203565b81810360408301526103b38184610321565b9050949350505050565b7f4e487b7100000000000000000000000000000000000000000000000000000000600052601160045260246000fd5b60006103f7826101f9565b9150610402836101f9565b925082821015610415576104146103bd565b5b82820390509291505056fea2646970667358221220dbc0bf7c776293ef003f97cfabc16af0c5586966c0860dde5f52121834da6bd864736f6c634300080d0033a26469706673582212201c3f182ff4b5f050b7eb4edec78a03ebcaffd9e890c736eabe395d25b819c6f064736f6c634300080d0033",
  "immutableReferences": {},
  "source": "// SPDX-License-Identifier: SimPL-2.0\r\npragma solidity ^0.8.7;\r\n\r\nimport \"./Lender.sol\";\r\nimport \"./Borrower.sol\";\r\nimport \"./Manager.sol\";\r\nimport \"./CashFlow.sol\";\r\nimport \"./Transaction.sol\";\r\nimport \"./PartsFlow.sol\";\r\nimport \"./Procedure.sol\";\r\nimport \"./SysFunc.sol\";\r\n\r\ncontract TraceabilitySystem {\r\n    event CreateCashFlow(address from, address to, uint256 amount);\r\n    event CreateTransaction(\r\n        address from,\r\n        address to,\r\n        uint256 cashFlowID,\r\n        uint256 amount\r\n    );\r\n\r\n    Lender[] lenders;\r\n    Borrower[] borrowers;\r\n    Manager[] managers;\r\n    CashFlow[] cashFlows;\r\n    Transaction[] transactions;\r\n    PartsFlow[] partsflows;\r\n    Procedure[] procedures;\r\n\r\n    uint256 cashFlowCount = 0; //ID\r\n    uint256 TransactionCount = 0; //ID\r\n    uint256 partsFlowCount = 0; //ID\r\n    uint256 procedureCount = 0; //ID\r\n\r\n    function createLender(\r\n        string memory account,\r\n        string memory passwd,\r\n        string memory name\r\n    ) public {\r\n        //\r\n        require(SysFunc.createLender(lenders, account, passwd, name));\r\n    }\r\n\r\n    function createBorrower(\r\n        string memory account,\r\n        string memory passwd,\r\n        string memory name\r\n    ) public {\r\n        //\r\n        require(SysFunc.createBorrower(borrowers, account, passwd, name));\r\n    }\r\n\r\n    function createManager(string memory passwd) public {\r\n        //\r\n        require(SysFunc.createManager(managers, passwd));\r\n    }\r\n\r\n    function deleteLender() public {\r\n        //\r\n        require(SysFunc.deleteLender(lenders));\r\n    }\r\n\r\n    function deleteBorrower() public {\r\n        //\r\n        require(SysFunc.deleteBorrower(borrowers));\r\n    }\r\n\r\n    function deleteManager() public {\r\n        //\r\n        require(SysFunc.deleteManager(managers));\r\n    }\r\n\r\n    function getLenderInfo()\r\n        public\r\n        view\r\n        returns (\r\n            address,\r\n            string memory,\r\n            string memory,\r\n            uint256[] memory\r\n        )\r\n    {\r\n        //()\r\n        return SysFunc.getLenderInfo(lenders);\r\n    }\r\n\r\n    function getBorrowerInfo()\r\n        public\r\n        view\r\n        returns (\r\n            address,\r\n            string memory,\r\n            string memory,\r\n            uint256[] memory\r\n        )\r\n    {\r\n        //()\r\n        return SysFunc.getBorrowerInfo(borrowers);\r\n    }\r\n\r\n    function createCashFlow(address borrowerID, uint256 cashNum)\r\n        public\r\n        returns (uint256)\r\n    {\r\n        //\r\n        CashFlow cashflow = new CashFlow(cashFlowCount, cashNum);\r\n        cashFlows.push(cashflow);\r\n        for (uint256 i = 0; i < lenders.length; i++) {\r\n            if (lenders[i].id() == msg.sender && lenders[i].valid())\r\n                lenders[i].attachCashFlow(cashflow.id());\r\n        }\r\n        for (uint256 i = 0; i < borrowers.length; i++) {\r\n            if (borrowers[i].id() == borrowerID && borrowers[i].valid())\r\n                borrowers[i].attachCashFlow(cashFlowCount);\r\n        }\r\n        emit CreateCashFlow(msg.sender, borrowerID, cashNum);\r\n        cashFlowCount++;\r\n        return cashflow.id();\r\n    }\r\n\r\n    function createTransaction(\r\n        uint256 cashFlowID,\r\n        address receiverID,\r\n        uint256 cashNum,\r\n        string memory note\r\n    ) public returns (uint256) {\r\n        //\r\n        uint256 prevCash = cashFlows[cashFlowID].currBalance();\r\n        if (cashFlows[cashFlowID].withdraw(cashNum)) {\r\n            Transaction transaction = new Transaction(\r\n                TransactionCount,\r\n                cashFlowID,\r\n                msg.sender,\r\n                receiverID,\r\n                prevCash,\r\n                cashFlows[cashFlowID].currBalance(),\r\n                cashNum,\r\n                note\r\n            );\r\n            transactions.push(transaction);\r\n            TransactionCount++;\r\n            cashFlows[cashFlowID].attachTransaction(transaction.id());\r\n            emit CreateTransaction(msg.sender, receiverID, cashFlowID, cashNum);\r\n            return transaction.id();\r\n        } else return type(uint256).max;\r\n    }\r\n\r\n    function createPartsFlow(\r\n        string memory name,\r\n        string memory partsType,\r\n        string memory batch,\r\n        string memory note,\r\n        uint256[] memory formerType\r\n    ) public returns (uint256) {\r\n        //\r\n        require(\r\n            SysFunc.createPartsFlow(\r\n                name,\r\n                partsType,\r\n                batch,\r\n                note,\r\n                formerType,\r\n                partsFlowCount,\r\n                partsflows\r\n            )\r\n        );\r\n        partsFlowCount++;\r\n        return partsFlowCount - 1;\r\n    }\r\n\r\n    function createProcedure(\r\n        uint256 partsID,\r\n        ProcedureType procedureType,\r\n        string memory operation\r\n    ) public {\r\n        //\r\n        require(\r\n            SysFunc.createProcedure(\r\n                partsID,\r\n                procedureType,\r\n                operation,\r\n                procedureCount,\r\n                procedures\r\n            )\r\n        );\r\n        partsflows[partsID].attachProcedure(procedureCount);\r\n        procedureCount++;\r\n    }\r\n\r\n    function checkCashFlow(uint256 cashflowID)\r\n        public\r\n        view\r\n        returns (\r\n            uint256,\r\n            uint256,\r\n            uint256[] memory\r\n        )\r\n    {\r\n        //\r\n        return cashFlows[cashflowID].checkCashFlow();\r\n    }\r\n\r\n    function checkTransaction(uint256 transactionID)\r\n        public\r\n        view\r\n        returns (\r\n            uint256,\r\n            address,\r\n            address,\r\n            uint256,\r\n            uint256,\r\n            uint256,\r\n            string memory,\r\n            uint256\r\n        )\r\n    {\r\n        //\r\n        return transactions[transactionID].checkTransaction();\r\n    }\r\n\r\n    function checkPartsFlow(uint256 partsID)\r\n        public\r\n        view\r\n        returns (\r\n            address,\r\n            string memory,\r\n            string memory,\r\n            string memory,\r\n            string memory,\r\n            uint256[] memory,\r\n            uint256[] memory\r\n        )\r\n    {\r\n        return partsflows[partsID].checkPartsFlow();\r\n    }\r\n\r\n    function checkProcedure(uint256 procedureID)\r\n        public\r\n        view\r\n        returns (\r\n            uint256,\r\n            address,\r\n            ProcedureType,\r\n            string memory,\r\n            uint256\r\n        )\r\n    {\r\n        return procedures[procedureID].checkProcedure();\r\n    }\r\n}\r\n",
  "sourcePath": "/home/syj/Desktop/TraceabilitySystem/contracts/TraceabilitySystem.sol",
  "compiler": {
    "name": "solc",
    "version": "0.8.13+commit.abaa5c0e.Emscripten.clang"
  },
  "schemaVersion": "3.4.4",
  "updatedAt": "2022-05-12T10:08:08.896Z",
  "networkType": "ethereum",
  "devdoc": {
    "kind": "dev",
    "methods": {},
    "version": 1
  },
  "userdoc": {
    "kind": "user",
    "methods": {},
    "version": 1
  }
}