{
  "contractName": "Transaction",
  "abi": [
    {
      "inputs": [
        {
          "internalType": "uint256",
          "name": "_id",
          "type": "uint256"
        },
        {
          "internalType": "uint256",
          "name": "_cashFlowID",
          "type": "uint256"
        },
        {
          "internalType": "address",
          "name": "_senderID",
          "type": "address"
        },
        {
          "internalType": "address",
          "name": "_receiverID",
          "type": "address"
        },
        {
          "internalType": "uint256",
          "name": "_beforeTrans",
          "type": "uint256"
        },
        {
          "internalType": "uint256",
          "name": "_afterTrans",
          "type": "uint256"
        },
        {
          "internalType": "uint256",
          "name": "_cashNum",
          "type": "uint256"
        },
        {
          "internalType": "string",
          "name": "_note",
          "type": "string"
        }
      ],
      "stateMutability": "nonpayable",
      "type": "constructor"
    },
    {
      "inputs": [],
      "name": "id",
      "outputs": [
        {
          "internalType": "uint256",
          "name": "",
          "type": "uint256"
        }
      ],
      "stateMutability": "view",
      "type": "function"
    },
    {
      "inputs": [],
      "name": "checkTransaction",
      "outputs": [
        {
          "internalType": "uint256",
          "name": "",
          "type": "uint256"
        },
        {
          "internalType": "address",
          "name": "",
          "type": "address"
        },
        {
          "internalType": "address",
          "name": "",
          "type": "address"
        },
        {
          "internalType": "uint256",
          "name": "",
          "type": "uint256"
        },
        {
          "internalType": "uint256",
          "name": "",
          "type": "uint256"
        },
        {
          "internalType": "uint256",
          "name": "",
          "type": "uint256"
        },
        {
          "internalType": "string",
          "name": "",
          "type": "string"
        },
        {
          "internalType": "uint256",
          "name": "",
          "type": "uint256"
        }
      ],
      "stateMutability": "view",
      "type": "function"
    }
  ],
  "bytecode": "0x60806040523480156200001157600080fd5b506040516200090a3803806200090a8339818101604052810190620000379190620003f7565b876000819055508660018190555085600260006101000a81548173ffffffffffffffffffffffffffffffffffffffff021916908373ffffffffffffffffffffffffffffffffffffffff16021790555084600360006101000a81548173ffffffffffffffffffffffffffffffffffffffff021916908373ffffffffffffffffffffffffffffffffffffffff1602179055508360048190555082600581905550816006819055508060079080519060200190620000f49291906200010a565b5042600881905550505050505050505062000543565b82805462000118906200050e565b90600052602060002090601f0160209004810192826200013c576000855562000188565b82601f106200015757805160ff191683800117855562000188565b8280016001018555821562000188579182015b82811115620001875782518255916020019190600101906200016a565b5b5090506200019791906200019b565b5090565b5b80821115620001b65760008160009055506001016200019c565b5090565b6000604051905090565b600080fd5b600080fd5b6000819050919050565b620001e381620001ce565b8114620001ef57600080fd5b50565b6000815190506200020381620001d8565b92915050565b600073ffffffffffffffffffffffffffffffffffffffff82169050919050565b6000620002368262000209565b9050919050565b620002488162000229565b81146200025457600080fd5b50565b60008151905062000268816200023d565b92915050565b600080fd5b600080fd5b6000601f19601f8301169050919050565b7f4e487b7100000000000000000000000000000000000000000000000000000000600052604160045260246000fd5b620002c38262000278565b810181811067ffffffffffffffff82111715620002e557620002e462000289565b5b80604052505050565b6000620002fa620001ba565b9050620003088282620002b8565b919050565b600067ffffffffffffffff8211156200032b576200032a62000289565b5b620003368262000278565b9050602081019050919050565b60005b838110156200036357808201518184015260208101905062000346565b8381111562000373576000848401525b50505050565b6000620003906200038a846200030d565b620002ee565b905082815260208101848484011115620003af57620003ae62000273565b5b620003bc84828562000343565b509392505050565b600082601f830112620003dc57620003db6200026e565b5b8151620003ee84826020860162000379565b91505092915050565b600080600080600080600080610100898b0312156200041b576200041a620001c4565b5b60006200042b8b828c01620001f2565b98505060206200043e8b828c01620001f2565b9750506040620004518b828c0162000257565b9650506060620004648b828c0162000257565b9550506080620004778b828c01620001f2565b94505060a06200048a8b828c01620001f2565b93505060c06200049d8b828c01620001f2565b92505060e089015167ffffffffffffffff811115620004c157620004c0620001c9565b5b620004cf8b828c01620003c4565b9150509295985092959890939650565b7f4e487b7100000000000000000000000000000000000000000000000000000000600052602260045260246000fd5b600060028204905060018216806200052757607f821691505b6020821081036200053d576200053c620004df565b5b50919050565b6103b780620005536000396000f3fe608060405234801561001057600080fd5b50600436106100365760003560e01c806331b71c931461003b578063af640d0f14610060575b600080fd5b61004361007e565b604051610057989796959493929190610281565b60405180910390f35b610068610188565b6040516100759190610306565b60405180910390f35b60008060008060008060606000600154600260009054906101000a900473ffffffffffffffffffffffffffffffffffffffff16600360009054906101000a900473ffffffffffffffffffffffffffffffffffffffff1660045460055460065460076008548180546100ee90610350565b80601f016020809104026020016040519081016040528092919081815260200182805461011a90610350565b80156101675780601f1061013c57610100808354040283529160200191610167565b820191906000526020600020905b81548152906001019060200180831161014a57829003601f168201915b50505050509150975097509750975097509750975097509091929394959697565b60005481565b6000819050919050565b6101a18161018e565b82525050565b600073ffffffffffffffffffffffffffffffffffffffff82169050919050565b60006101d2826101a7565b9050919050565b6101e2816101c7565b82525050565b600081519050919050565b600082825260208201905092915050565b60005b83811015610222578082015181840152602081019050610207565b83811115610231576000848401525b50505050565b6000601f19601f8301169050919050565b6000610253826101e8565b61025d81856101f3565b935061026d818560208601610204565b61027681610237565b840191505092915050565b600061010082019050610297600083018b610198565b6102a4602083018a6101d9565b6102b160408301896101d9565b6102be6060830188610198565b6102cb6080830187610198565b6102d860a0830186610198565b81810360c08301526102ea8185610248565b90506102f960e0830184610198565b9998505050505050505050565b600060208201905061031b6000830184610198565b92915050565b7f4e487b7100000000000000000000000000000000000000000000000000000000600052602260045260246000fd5b6000600282049050600182168061036857607f821691505b60208210810361037b5761037a610321565b5b5091905056fea264697066735822122051cd30d134f545ece78b96e25b0b89f68f8091c4d5dc0aa6bc57cbf0498202bc64736f6c634300080d0033",
  "immutableReferences": {},
  "source": "contract Transaction {\r\n    //\r\n    uint256 public id; //ID\r\n    uint256 cashFlowID; //ID\r\n    address senderID; //ID\r\n    address receiverID; //ID\r\n    uint256 beforeTrans; //\r\n    uint256 afterTrans; //\r\n    uint256 cashNum; //\r\n    string note; //\r\n    uint256 timestamp; //\r\n\r\n    constructor(\r\n        uint256 _id,\r\n        uint256 _cashFlowID,\r\n        address _senderID,\r\n        address _receiverID,\r\n        uint256 _beforeTrans,\r\n        uint256 _afterTrans,\r\n        uint256 _cashNum,\r\n        string memory _note\r\n    ) {\r\n        id = _id;\r\n        cashFlowID = _cashFlowID;\r\n        senderID = _senderID;\r\n        receiverID = _receiverID;\r\n        beforeTrans = _beforeTrans;\r\n        afterTrans = _afterTrans;\r\n        cashNum = _cashNum;\r\n        note = _note;\r\n        timestamp = block.timestamp;\r\n    }\r\n\r\n    function checkTransaction()\r\n        public\r\n        view\r\n        returns (\r\n            uint256,\r\n            address,\r\n            address,\r\n            uint256,\r\n            uint256,\r\n            uint256,\r\n            string memory,\r\n            uint256\r\n        )\r\n    {\r\n        return (\r\n            cashFlowID,\r\n            senderID,\r\n            receiverID,\r\n            beforeTrans,\r\n            afterTrans,\r\n            cashNum,\r\n            note,\r\n            timestamp\r\n        );\r\n    }\r\n}\r\n",
  "sourcePath": "/home/syj/Desktop/TraceabilitySystem/contracts/Transaction.sol",
  "compiler": {
    "name": "solc",
    "version": "0.8.13+commit.abaa5c0e.Emscripten.clang"
  },
  "schemaVersion": "3.4.4",
  "updatedAt": "2022-05-12T02:45:55.308Z",
  "devdoc": {
    "kind": "dev",
    "methods": {},
    "version": 1
  },
  "userdoc": {
    "kind": "user",
    "methods": {},
    "version": 1
  }
}